{
  "contractName": "BallotContract",
  "abi": [
    {
      "constant": true,
      "inputs": [
        {
          "name": "",
          "type": "address"
        }
      ],
      "name": "voters",
      "outputs": [
        {
          "name": "eligibleToVote",
          "type": "bool"
        },
        {
          "name": "isVoted",
          "type": "bool"
        },
        {
          "name": "isFunded",
          "type": "bool"
        }
      ],
      "payable": false,
      "stateMutability": "view",
      "type": "function"
    },
    {
      "inputs": [],
      "payable": false,
      "stateMutability": "nonpayable",
      "type": "constructor"
    },
    {
      "payable": true,
      "stateMutability": "payable",
      "type": "fallback"
    },
    {
      "constant": false,
      "inputs": [
        {
          "name": "phrase",
          "type": "bytes32"
        }
      ],
      "name": "close",
      "outputs": [],
      "payable": false,
      "stateMutability": "nonpayable",
      "type": "function"
    },
    {
      "constant": false,
      "inputs": [
        {
          "name": "phrase",
          "type": "bytes32"
        }
      ],
      "name": "claimStoredAmount",
      "outputs": [],
      "payable": false,
      "stateMutability": "nonpayable",
      "type": "function"
    },
    {
      "constant": false,
      "inputs": [
        {
          "name": "_ballotName",
          "type": "bytes32"
        },
        {
          "name": "_fundAmount",
          "type": "uint256"
        },
        {
          "name": "_limitCandidate",
          "type": "uint256"
        },
        {
          "name": "_startVotingPhase",
          "type": "uint256"
        },
        {
          "name": "_endVotingPhase",
          "type": "uint256"
        },
        {
          "name": "_startRegPhase",
          "type": "uint256"
        },
        {
          "name": "_endRegPhase",
          "type": "uint256"
        },
        {
          "name": "_candidateIDs",
          "type": "bytes32[]"
        }
      ],
      "name": "setupBallot",
      "outputs": [],
      "payable": false,
      "stateMutability": "nonpayable",
      "type": "function"
    },
    {
      "constant": false,
      "inputs": [
        {
          "name": "_amount",
          "type": "uint256"
        }
      ],
      "name": "setTransferAmount",
      "outputs": [],
      "payable": false,
      "stateMutability": "nonpayable",
      "type": "function"
    },
    {
      "constant": false,
      "inputs": [
        {
          "name": "_candidateIDs",
          "type": "bytes32[]"
        }
      ],
      "name": "addCandidates",
      "outputs": [],
      "payable": false,
      "stateMutability": "nonpayable",
      "type": "function"
    },
    {
      "constant": false,
      "inputs": [
        {
          "name": "phrase",
          "type": "bytes32"
        }
      ],
      "name": "finalizeBallot",
      "outputs": [],
      "payable": false,
      "stateMutability": "nonpayable",
      "type": "function"
    },
    {
      "constant": false,
      "inputs": [
        {
          "name": "phrase",
          "type": "bytes32"
        }
      ],
      "name": "resetTime",
      "outputs": [
        {
          "name": "",
          "type": "bool"
        }
      ],
      "payable": false,
      "stateMutability": "nonpayable",
      "type": "function"
    },
    {
      "constant": false,
      "inputs": [
        {
          "name": "_voter",
          "type": "address"
        }
      ],
      "name": "giveRightToVote",
      "outputs": [],
      "payable": false,
      "stateMutability": "nonpayable",
      "type": "function"
    },
    {
      "constant": false,
      "inputs": [
        {
          "name": "_candidateIDs",
          "type": "bytes32[]"
        }
      ],
      "name": "voteForCandidates",
      "outputs": [],
      "payable": false,
      "stateMutability": "nonpayable",
      "type": "function"
    },
    {
      "constant": true,
      "inputs": [
        {
          "name": "_candidateID",
          "type": "bytes32"
        }
      ],
      "name": "validCandidate",
      "outputs": [
        {
          "name": "",
          "type": "bool"
        }
      ],
      "payable": false,
      "stateMutability": "view",
      "type": "function"
    },
    {
      "constant": true,
      "inputs": [
        {
          "name": "voterAddress",
          "type": "address"
        }
      ],
      "name": "hasRightToVote",
      "outputs": [
        {
          "name": "",
          "type": "bool"
        }
      ],
      "payable": false,
      "stateMutability": "view",
      "type": "function"
    },
    {
      "constant": false,
      "inputs": [],
      "name": "getBallotOverview",
      "outputs": [
        {
          "name": "",
          "type": "bytes32"
        },
        {
          "name": "",
          "type": "uint256"
        },
        {
          "name": "",
          "type": "bool"
        },
        {
          "name": "",
          "type": "uint256"
        },
        {
          "name": "",
          "type": "uint256"
        },
        {
          "name": "",
          "type": "uint256"
        },
        {
          "name": "",
          "type": "uint256"
        },
        {
          "name": "",
          "type": "uint256"
        },
        {
          "name": "",
          "type": "uint256"
        },
        {
          "name": "",
          "type": "uint256"
        },
        {
          "name": "",
          "type": "uint256"
        },
        {
          "name": "",
          "type": "uint256"
        }
      ],
      "payable": false,
      "stateMutability": "nonpayable",
      "type": "function"
    },
    {
      "constant": false,
      "inputs": [],
      "name": "getCandidateLength",
      "outputs": [
        {
          "name": "",
          "type": "uint256"
        }
      ],
      "payable": false,
      "stateMutability": "nonpayable",
      "type": "function"
    },
    {
      "constant": false,
      "inputs": [],
      "name": "getCandidateList",
      "outputs": [
        {
          "name": "",
          "type": "bytes32[]"
        }
      ],
      "payable": false,
      "stateMutability": "nonpayable",
      "type": "function"
    },
    {
      "constant": false,
      "inputs": [
        {
          "name": "_candidateID",
          "type": "bytes32"
        }
      ],
      "name": "getCandidateResult",
      "outputs": [
        {
          "name": "",
          "type": "uint256"
        },
        {
          "name": "",
          "type": "address[]"
        }
      ],
      "payable": false,
      "stateMutability": "nonpayable",
      "type": "function"
    },
    {
      "constant": false,
      "inputs": [],
      "name": "isBallotFinalized",
      "outputs": [
        {
          "name": "",
          "type": "bool"
        }
      ],
      "payable": false,
      "stateMutability": "nonpayable",
      "type": "function"
    },
    {
      "constant": false,
      "inputs": [
        {
          "name": "voterAddress",
          "type": "address"
        }
      ],
      "name": "getVotedForList",
      "outputs": [
        {
          "name": "",
          "type": "bytes32[]"
        }
      ],
      "payable": false,
      "stateMutability": "nonpayable",
      "type": "function"
    },
    {
      "constant": false,
      "inputs": [],
      "name": "getVoterAddressList",
      "outputs": [
        {
          "name": "",
          "type": "address[]"
        }
      ],
      "payable": false,
      "stateMutability": "nonpayable",
      "type": "function"
    }
  ],
  "bytecode": "0x608060405234801561001057600080fd5b50336000806101000a81548173ffffffffffffffffffffffffffffffffffffffff021916908373ffffffffffffffffffffffffffffffffffffffff1602179055507f4e6f74207365740000000000000000000000000000000000000000000000000060028160001916905550600060038190555060006004819055506000600581905550600060068190555060006007819055506000600860006101000a81548160ff02191690831515021790555060006009819055506000600a819055506000600b819055503073ffffffffffffffffffffffffffffffffffffffff16316001819055506000600c81905550611f798061010c6000396000f300608060405260043610610107576000357c0100000000000000000000000000000000000000000000000000000000900463ffffffff168063392e66781461011057806339c79e0c1461014d5780633bdcb71e14610176578063431f96ac146101a1578063458b6474146101de5780635ef955dc1461021c57806365c93769146102455780636eab06c41461028257806381c82233146102ab5780638b5e05e2146102d45780639e7b8d61146102fd578063a3ec138d14610326578063bd8f7d2e14610365578063c623f9101461039b578063dbcb6d47146103c4578063e17b240a146103ef578063eeaa17a514610418578063f7522a8314610455578063fdbc400614610480575b34600181905550005b34801561011c57600080fd5b5061013760048036036101329190810190611a2c565b6104ab565b6040516101449190611cb5565b60405180910390f35b34801561015957600080fd5b50610174600480360361016f9190810190611a2c565b61050a565b005b34801561018257600080fd5b5061018b61068a565b6040516101989190611cb5565b60405180910390f35b3480156101ad57600080fd5b506101c860048036036101c39190810190611a2c565b6106a1565b6040516101d59190611cb5565b60405180910390f35b3480156101ea57600080fd5b5061020560048036036102009190810190611a2c565b610936565b604051610213929190611dfc565b60405180910390f35b34801561022857600080fd5b50610243600480360361023e9190810190611a2c565b610a05565b005b34801561025157600080fd5b5061026c600480360361026791908101906119c2565b610b5e565b6040516102799190611cb5565b60405180910390f35b34801561028e57600080fd5b506102a960048036036102a491908101906119eb565b610c21565b005b3480156102b757600080fd5b506102d260048036036102cd9190810190611b1f565b610cfe565b005b3480156102e057600080fd5b506102fb60048036036102f69190810190611a55565b610d0e565b005b34801561030957600080fd5b50610324600480360361031f91908101906119c2565b610e08565b005b34801561033257600080fd5b5061034d600480360361034891908101906119c2565b610fc1565b60405161035c93929190611cd0565b60405180910390f35b34801561037157600080fd5b5061037a611012565b6040516103929c9b9a99989796959493929190611d07565b60405180910390f35b3480156103a757600080fd5b506103c260048036036103bd9190810190611a2c565b61107b565b005b3480156103d057600080fd5b506103d9611198565b6040516103e69190611c71565b60405180910390f35b3480156103fb57600080fd5b50610416600480360361041191908101906119eb565b611281565b005b34801561042457600080fd5b5061043f600480360361043a91908101906119c2565b6112e9565b60405161044c9190611c93565b60405180910390f35b34801561046157600080fd5b5061046a611387565b6040516104779190611de1565b60405180910390f35b34801561048c57600080fd5b50610495611394565b6040516104a29190611c93565b60405180910390f35b600080600090505b600d805490508110156104ff578260001916600d828154811015156104d457fe5b90600052602060002001546000191614156104f25760019150610504565b80806001019150506104b3565b600091505b50919050565b6000809054906101000a900473ffffffffffffffffffffffffffffffffffffffff1673ffffffffffffffffffffffffffffffffffffffff163373ffffffffffffffffffffffffffffffffffffffff1614151561056557600080fd5b7f636c6f7365000000000000000000000000000000000000000000000000000000604051808260001916600019168152602001915050604051809103902060001916816040518082600019166000191681526020019150506040518091039020600019161415156105d557600080fd5b60006001541115156105e657600080fd5b6000809054906101000a900473ffffffffffffffffffffffffffffffffffffffff1673ffffffffffffffffffffffffffffffffffffffff166108fc6001549081150290604051600060405180830381858888f1935050505015801561064f573d6000803e3d6000fd5b506000809054906101000a900473ffffffffffffffffffffffffffffffffffffffff1673ffffffffffffffffffffffffffffffffffffffff16ff5b6000600860009054906101000a900460ff16905090565b60008060009054906101000a900473ffffffffffffffffffffffffffffffffffffffff1673ffffffffffffffffffffffffffffffffffffffff163373ffffffffffffffffffffffffffffffffffffffff161415156106fe57600080fd5b7f73746172745265675068617365000000000000000000000000000000000000006040518082600019166000191681526020019150506040518091039020600019168260405180826000191660001916815260200191505060405180910390206000191614156107715760006004819055505b7f656e6452656750686173650000000000000000000000000000000000000000006040518082600019166000191681526020019150506040518091039020600019168260405180826000191660001916815260200191505060405180910390206000191614156107e45760006005819055505b7f7374617274566f74696e675068617365000000000000000000000000000000006040518082600019166000191681526020019150506040518091039020600019168260405180826000191660001916815260200191505060405180910390206000191614156108575760006006819055505b7f656e64566f74696e6750686173650000000000000000000000000000000000006040518082600019166000191681526020019150506040518091039020600019168260405180826000191660001916815260200191505060405180910390206000191614156108ca5760006007819055505b7f737461727452656750686173650000000000000000000000000000000000000060405180826000191660001916815260200191505060405180910390206000191682604051808260001916600019168152602001915050604051809103902060001916149050919050565b60006060600e6000846000191660001916815260200190815260200160002080549050600e60008560001916600019168152602001908152602001600020808054806020026020016040519081016040528092919081815260200182805480156109f557602002820191906000526020600020905b8160009054906101000a900473ffffffffffffffffffffffffffffffffffffffff1673ffffffffffffffffffffffffffffffffffffffff16815260200190600101908083116109ab575b5050505050905091509150915091565b6000809054906101000a900473ffffffffffffffffffffffffffffffffffffffff1673ffffffffffffffffffffffffffffffffffffffff163373ffffffffffffffffffffffffffffffffffffffff16141515610a6057600080fd5b60075442111515610a7057600080fd5b6000600154111515610a8157600080fd5b7f636c61696d00000000000000000000000000000000000000000000000000000060405180826000191660001916815260200191505060405180910390206000191681604051808260001916600019168152602001915050604051809103902060001916141515610af157600080fd5b6000809054906101000a900473ffffffffffffffffffffffffffffffffffffffff1673ffffffffffffffffffffffffffffffffffffffff166108fc6001549081150290604051600060405180830381858888f19350505050158015610b5a573d6000803e3d6000fd5b5050565b6000601060008373ffffffffffffffffffffffffffffffffffffffff1673ffffffffffffffffffffffffffffffffffffffff16815260200190815260200160002060000160009054906101000a900460ff168015610c095750601060008373ffffffffffffffffffffffffffffffffffffffff1673ffffffffffffffffffffffffffffffffffffffff16815260200190815260200160002060000160019054906101000a900460ff16155b15610c175760019050610c1c565b600090505b919050565b6000809054906101000a900473ffffffffffffffffffffffffffffffffffffffff1673ffffffffffffffffffffffffffffffffffffffff163373ffffffffffffffffffffffffffffffffffffffff16141515610c7c57600080fd5b60055442101515610cc2576040517f08c379a0000000000000000000000000000000000000000000000000000000008152600401610cb990611dc1565b60405180910390fd5b60001515600860009054906101000a900460ff161515141515610ce457600080fd5b80600d9080519060200190610cfa929190611889565b5050565b633b9aca008102600c8190555050565b6000809054906101000a900473ffffffffffffffffffffffffffffffffffffffff1673ffffffffffffffffffffffffffffffffffffffff163373ffffffffffffffffffffffffffffffffffffffff16141515610d6957600080fd5b8760028160001916905550633b9aca008702600c8190555085600381905550826004819055508160058190555084600681905550836007819055506000600860006101000a81548160ff02191690831515021790555060006009819055506000600a819055506000600b819055503073ffffffffffffffffffffffffffffffffffffffff1631600181905550610dfe81610c21565b5050505050505050565b6000809054906101000a900473ffffffffffffffffffffffffffffffffffffffff1673ffffffffffffffffffffffffffffffffffffffff163373ffffffffffffffffffffffffffffffffffffffff16141515610e6357600080fd5b60055442101515610ea9576040517f08c379a0000000000000000000000000000000000000000000000000000000008152600401610ea090611dc1565b60405180910390fd5b6001543073ffffffffffffffffffffffffffffffffffffffff163110151515610ed157600080fd5b600c54600154111515610ee357600080fd5b6001601060008373ffffffffffffffffffffffffffffffffffffffff1673ffffffffffffffffffffffffffffffffffffffff16815260200190815260200160002060000160006101000a81548160ff0219169083151502179055506001600960008282540192505081905550600f8190806001815401808255809150509060018203906000526020600020016000909192909190916101000a81548173ffffffffffffffffffffffffffffffffffffffff021916908373ffffffffffffffffffffffffffffffffffffffff16021790555050610fbe816113f0565b50565b60106020528060005260406000206000915090508060000160009054906101000a900460ff16908060000160019054906101000a900460ff16908060000160029054906101000a900460ff16905083565b600080600080600080600080600080600080600254600354600860009054906101000a900460ff16600c54600154600454600554600654600754600954600a54600b549b509b509b509b509b509b509b509b509b509b509b509b50909192939495969798999a9b565b6000809054906101000a900473ffffffffffffffffffffffffffffffffffffffff1673ffffffffffffffffffffffffffffffffffffffff163373ffffffffffffffffffffffffffffffffffffffff161415156110d657600080fd5b6002600d805490501115156110ea57600080fd5b7f66696e616c697a650000000000000000000000000000000000000000000000006040518082600019166000191681526020019150506040518091039020600019168160405180826000191660001916815260200191505060405180910390206000191614151561115a57600080fd5b6006544210151561116a57600080fd5b6004544211151561117a57600080fd5b6001600860006101000a81548160ff02191690831515021790555050565b60606000809054906101000a900473ffffffffffffffffffffffffffffffffffffffff1673ffffffffffffffffffffffffffffffffffffffff163373ffffffffffffffffffffffffffffffffffffffff161415156111f557600080fd5b600f80548060200260200160405190810160405280929190818152602001828054801561127757602002820191906000526020600020905b8160009054906101000a900473ffffffffffffffffffffffffffffffffffffffff1673ffffffffffffffffffffffffffffffffffffffff168152602001906001019080831161122d575b5050505050905090565b600061128b6115e3565b151561129657600080fd5b61129f33611608565b15156112aa57600080fd5b600090505b81518110156112e5576112d882828151811015156112c957fe5b90602001906020020151611702565b80806001019150506112af565b5050565b6060601060008373ffffffffffffffffffffffffffffffffffffffff1673ffffffffffffffffffffffffffffffffffffffff16815260200190815260200160002060010180548060200260200160405190810160405280929190818152602001828054801561137b57602002820191906000526020600020905b81546000191681526020019060010190808311611363575b50505050509050919050565b6000600d80549050905090565b6060600d8054806020026020016040519081016040528092919081815260200182805480156113e657602002820191906000526020600020905b815460001916815260200190600101908083116113ce575b5050505050905090565b6000809054906101000a900473ffffffffffffffffffffffffffffffffffffffff1673ffffffffffffffffffffffffffffffffffffffff163373ffffffffffffffffffffffffffffffffffffffff1614151561144b57600080fd5b601060008273ffffffffffffffffffffffffffffffffffffffff1673ffffffffffffffffffffffffffffffffffffffff16815260200190815260200160002060000160009054906101000a900460ff1615156114a657600080fd5b6001543073ffffffffffffffffffffffffffffffffffffffff1631101515156114ce57600080fd5b601060008273ffffffffffffffffffffffffffffffffffffffff1673ffffffffffffffffffffffffffffffffffffffff16815260200190815260200160002060000160029054906101000a900460ff1615151561152a57600080fd5b6001601060008373ffffffffffffffffffffffffffffffffffffffff1673ffffffffffffffffffffffffffffffffffffffff16815260200190815260200160002060000160026101000a81548160ff021916908315150217905550600c546001600082825403925050819055508073ffffffffffffffffffffffffffffffffffffffff166108fc600c549081150290604051600060405180830381858888f193505050501580156115df573d6000803e3d6000fd5b5050565b60006007544211806115f6575060065442105b156116045760009050611605565b5b90565b6000801515600860009054906101000a900460ff161515141561162e57600090506116fd565b60001515601060008473ffffffffffffffffffffffffffffffffffffffff1673ffffffffffffffffffffffffffffffffffffffff16815260200190815260200160002060000160009054906101000a900460ff161515141561169357600090506116fd565b60011515601060008473ffffffffffffffffffffffffffffffffffffffff1673ffffffffffffffffffffffffffffffffffffffff16815260200190815260200160002060000160019054906101000a900460ff16151514156116f857600090506116fd565b600190505b919050565b61170a6115e3565b151561171557600080fd5b61171e33611608565b151561172957600080fd5b6001601060003373ffffffffffffffffffffffffffffffffffffffff1673ffffffffffffffffffffffffffffffffffffffff16815260200190815260200160002060000160016101000a81548160ff0219169083151502179055506001600a60008282540192505081905550601060003373ffffffffffffffffffffffffffffffffffffffff1673ffffffffffffffffffffffffffffffffffffffff168152602001908152602001600020600101819080600181540180825580915050906001820390600052602060002001600090919290919091509060001916905550600e600082600019166000191681526020019081526020016000203390806001815401808255809150509060018203906000526020600020016000909192909190916101000a81548173ffffffffffffffffffffffffffffffffffffffff021916908373ffffffffffffffffffffffffffffffffffffffff1602179055505050565b8280548282559060005260206000209081019282156118cb579160200282015b828111156118ca5782518290600019169055916020019190600101906118a9565b5b5090506118d891906118dc565b5090565b6118fe91905b808211156118fa5760008160009055506001016118e2565b5090565b90565b600061190d8235611f0b565b905092915050565b600082601f830112151561192857600080fd5b813561193b61193682611e59565b611e2c565b9150818183526020840193506020810190508385602084028201111561196057600080fd5b60005b838110156119905781611976888261199a565b845260208401935060208301925050600181019050611963565b5050505092915050565b60006119a68235611f2b565b905092915050565b60006119ba8235611f35565b905092915050565b6000602082840312156119d457600080fd5b60006119e284828501611901565b91505092915050565b6000602082840312156119fd57600080fd5b600082013567ffffffffffffffff811115611a1757600080fd5b611a2384828501611915565b91505092915050565b600060208284031215611a3e57600080fd5b6000611a4c8482850161199a565b91505092915050565b600080600080600080600080610100898b031215611a7257600080fd5b6000611a808b828c0161199a565b9850506020611a918b828c016119ae565b9750506040611aa28b828c016119ae565b9650506060611ab38b828c016119ae565b9550506080611ac48b828c016119ae565b94505060a0611ad58b828c016119ae565b93505060c0611ae68b828c016119ae565b92505060e089013567ffffffffffffffff811115611b0357600080fd5b611b0f8b828c01611915565b9150509295985092959890939650565b600060208284031215611b3157600080fd5b6000611b3f848285016119ae565b91505092915050565b611b5181611ecb565b82525050565b6000611b6282611e9b565b808452602084019350611b7483611e81565b60005b82811015611ba657611b8a868351611b48565b611b9382611eb1565b9150602086019550600181019050611b77565b50849250505092915050565b6000611bbd82611ea6565b808452602084019350611bcf83611e8e565b60005b82811015611c0157611be5868351611c1c565b611bee82611ebe565b9150602086019550600181019050611bd2565b50849250505092915050565b611c1681611eeb565b82525050565b611c2581611ef7565b82525050565b6000601c82527f42616c6c6f742073657475702074696d652068617320656e64656421000000006020830152604082019050919050565b611c6b81611f01565b82525050565b60006020820190508181036000830152611c8b8184611b57565b905092915050565b60006020820190508181036000830152611cad8184611bb2565b905092915050565b6000602082019050611cca6000830184611c0d565b92915050565b6000606082019050611ce56000830186611c0d565b611cf26020830185611c0d565b611cff6040830184611c0d565b949350505050565b600061018082019050611d1d600083018f611c1c565b611d2a602083018e611c62565b611d37604083018d611c0d565b611d44606083018c611c62565b611d51608083018b611c62565b611d5e60a083018a611c62565b611d6b60c0830189611c62565b611d7860e0830188611c62565b611d86610100830187611c62565b611d94610120830186611c62565b611da2610140830185611c62565b611db0610160830184611c62565b9d9c50505050505050505050505050565b60006020820190508181036000830152611dda81611c2b565b9050919050565b6000602082019050611df66000830184611c62565b92915050565b6000604082019050611e116000830185611c62565b8181036020830152611e238184611b57565b90509392505050565b6000604051905081810181811067ffffffffffffffff82111715611e4f57600080fd5b8060405250919050565b600067ffffffffffffffff821115611e7057600080fd5b602082029050602081019050919050565b6000602082019050919050565b6000602082019050919050565b600081519050919050565b600081519050919050565b6000602082019050919050565b6000602082019050919050565b600073ffffffffffffffffffffffffffffffffffffffff82169050919050565b60008115159050919050565b6000819050919050565b6000819050919050565b600073ffffffffffffffffffffffffffffffffffffffff82169050919050565b6000819050919050565b60008190509190505600a265627a7a72305820c00cf03b66c579711201c1ed799f05f70482c588390502a4cbc0b9c30d00c9e36c6578706572696d656e74616cf50037",
  "source": "pragma solidity ^0.4.24;\r\npragma experimental ABIEncoderV2; // Allow passing struct as argument\r\n\r\n// We have to specify what version of compiler this code will compile with\r\n\r\ncontract BallotContract {\r\n\r\n\r\n// ~~~~~~~~~~~~~~~~~~~~~~~~~~~~~~~~~~~~~~~~~~~~ Contract Constructor ~~~~~~~~~~~~~~~~~~~~~~~~~~~~~~~~~~~~~~~~~~~~~~ //\r\n\r\n    address owner;\r\n    uint256 storedAmount;\r\n\r\n    /*\r\n    * Modifier to only allow the owner to call a function.\r\n    */\r\n    modifier onlyOwner {\r\n        require(msg.sender == owner );\r\n        _;\r\n\r\n    }\r\n\r\n    /*\r\n    *  This function is called *once* at first initialization into the blockchain.\r\n    */\r\n    constructor ()\r\n    {\r\n        owner = msg.sender;       // Set the owner to the address creating the contract.\r\n        ballotName = 'Not set';\r\n        limitCandidate = 0;\r\n\r\n        startRegPhase = 0;\r\n        endRegPhase = 0;\r\n        startVotingPhase = 0;\r\n        endVotingPhase = 0;\r\n\r\n        isFinalized = false;\r\n        registeredVoterCount = 0;\r\n        votedVoterCount = 0;\r\n        fundedVoterCount = 0;\r\n        storedAmount = address(this).balance;\r\n        amount = 0;\r\n\r\n    }\r\n\r\n    function close(bytes32 phrase) onlyOwner public {\r\n        require( keccak256(phrase) == keccak256(bytes32('close')));\r\n        require(storedAmount > 0);\r\n        owner.transfer(storedAmount);\r\n        selfdestruct(owner);\r\n    }\r\n\r\n    function () payable {\r\n        storedAmount = msg.value;\r\n    }\r\n\r\n    function claimStoredAmount(bytes32 phrase) onlyOwner {\r\n        require(now > endVotingPhase);\r\n        require(storedAmount > 0);\r\n        require(  keccak256(phrase) == keccak256(bytes32('claim')) );\r\n\r\n        owner.transfer(storedAmount); // Transfer back remaining amount\r\n    }\r\n\r\n\r\n    // ~~~~~~~~~~~~~~~~~~~~~~~~~~~~~~~~~~~~~~~~~~~~ Validator ~~~~~~~~~~~~~~~~~~~~~~~~~~~~~~~~~~~~~~~~~~~~~~ //\r\n\r\n    function validTime() private view returns (bool) {\r\n        if ( now > endVotingPhase || now < startVotingPhase)\r\n            return false;\r\n    }\r\n\r\n    function canVote(address voterAddress) private view returns (bool) {\r\n        if (isFinalized == false)       // If the options are not finalized, we cannot vote.\r\n            return false;\r\n\r\n        if (voters[voterAddress].eligibleToVote == false)\r\n            return false;\r\n\r\n        if (voters[voterAddress].isVoted == true) // If the voter has already voted, voter cannot vote anymore\r\n            return false;\r\n        return true;\r\n    }\r\n\r\n    // ~~~~~~~~~~~~~~~~~~~~~~~~~~~~~~~~~~~~~~~~~~~~~~ Ballot Options (Candidate) ~~~~~~~~~~~~~~~~~~~~~~~~~~~~~~~~~~~~~~~~~~~~~~~~~~ //\r\n\r\n\r\n    bytes32 ballotName; // The ballot candidateID.\r\n    uint    limitCandidate;\r\n\r\n    // Time: seconds since 1970-01-01\r\n    uint    startRegPhase;\r\n    uint    endRegPhase;\r\n    uint    startVotingPhase;\r\n    uint    endVotingPhase;\r\n\r\n    // Ballot status\r\n    bool    isFinalized;       // Whether the owner can still add voting options.\r\n    uint    registeredVoterCount;   // Total number of voter addresses registered.\r\n    uint    votedVoterCount;\r\n    uint    fundedVoterCount;\r\n    uint    amount; // in GWei\r\n\r\n    //\r\n    bytes32[] candidateIDs;\r\n    mapping (bytes32 => address[]) voteReceived; //map candidateId to array of address of whom has voted for them\r\n\r\n    function setupBallot (bytes32 _ballotName, uint _fundAmount, uint _limitCandidate,\r\n        uint _startVotingPhase, uint _endVotingPhase,\r\n                          uint _startRegPhase, uint _endRegPhase, bytes32[] _candidateIDs) onlyOwner public {\r\n\r\n        ballotName = _ballotName;\r\n        amount = _fundAmount*1000000000; //convert to wei\r\n        limitCandidate = _limitCandidate;\r\n        startRegPhase = _startRegPhase;\r\n        endRegPhase = _endRegPhase;\r\n        startVotingPhase = _startVotingPhase;\r\n        endVotingPhase = _endVotingPhase;\r\n\r\n        isFinalized = false;\r\n        registeredVoterCount = 0;\r\n        votedVoterCount = 0;\r\n        fundedVoterCount = 0;\r\n        storedAmount = address(this).balance;\r\n\r\n        addCandidates(_candidateIDs);\r\n    }\r\n\r\n    function setTransferAmount(uint _amount) {\r\n        amount = _amount*1000000000; //convert Gwei to wei\r\n    }\r\n\r\n\r\n    function addCandidates(bytes32[] _candidateIDs) onlyOwner public {\r\n        require (now < endRegPhase, 'Ballot setup time has ended!');\r\n        require (isFinalized == false);    // Check we are allowed to add options.\r\n\r\n        candidateIDs = _candidateIDs;\r\n    }\r\n\r\n    /*\r\n    *  Call this once all options have been added, this will stop further changes\r\n    *  and allow votes to be cast.\r\n    *  NOTE: this can only be called by the ballot owner.\r\n    */\r\n    function finalizeBallot(bytes32 phrase) onlyOwner public {\r\n        require(candidateIDs.length > 2);\r\n        require( keccak256(phrase) == keccak256(bytes32('finalize')));\r\n        require (now < startVotingPhase);\r\n        require (now > startRegPhase);\r\n\r\n        isFinalized = true;    // Stop the addition of any more change.\r\n    }\r\n\r\n    function resetTime(bytes32 phrase) onlyOwner public returns(bool) {\r\n        if (keccak256(phrase) == keccak256(bytes32('startRegPhase'))) {\r\n            startRegPhase = 0;\r\n        }\r\n        if (keccak256(phrase) == keccak256(bytes32('endRegPhase'))) {\r\n            endRegPhase = 0;\r\n        }\r\n        if (keccak256(phrase) == keccak256(bytes32('startVotingPhase'))) {\r\n            startVotingPhase = 0;\r\n        }\r\n        if (keccak256(phrase) == keccak256(bytes32('endVotingPhase'))) {\r\n            endVotingPhase = 0;\r\n        }\r\n        return keccak256(phrase) == keccak256(bytes32('startRegPhase'));\r\n    }\r\n\r\n    // ~~~~~~~~~~~~~~~~~~~~~~~~~~~~~~~~~~~~~~~~~~~~~~~~ Voting Options ~~~~~~~~~~~~~~~~~~~~~~~~~~~~~~~~~~~~~~~~~~~~~~~~ //\r\n\r\n    /*\r\n    *  Structure which represents a single voter.\r\n    */\r\n    struct Voter\r\n    {\r\n        bool eligibleToVote;    // Is this voter allowed to vote?\r\n        bool isVoted;             // State of whether this voter has voted.\r\n        bool isFunded;\r\n        bytes32[] votedFor;          // List candidates' ID this voter voted for.\r\n    }\r\n\r\n    address[] voterAddressList;\r\n    mapping(address => Voter) public voters; // State variable which maps any address to a 'Voter' struct.\r\n\r\n    /*\r\n    *  Allow an address (voter) to vote on this ballot.\r\n    *  NOTE: this can only be called by the ballot owner.\r\n    */\r\n    function giveRightToVote(address _voter) onlyOwner public {\r\n        require (now < endRegPhase, 'Ballot setup time has ended!');\r\n        require(address(this).balance >= storedAmount);\r\n        require(storedAmount > amount);\r\n\r\n        voters[_voter].eligibleToVote = true;\r\n        registeredVoterCount += 1;      // Increment registered voters.\r\n        voterAddressList.push(_voter);\r\n\r\n        // Fund user with money\r\n        giveFund(_voter);\r\n\r\n    }\r\n\r\n    function giveFund(address _voter) onlyOwner private {\r\n        require(voters[_voter].eligibleToVote); // User already had the right to vote\r\n        require(address(this).balance >= storedAmount);\r\n        require(!voters[_voter].isFunded);\r\n\r\n        voters[_voter].isFunded = true;\r\n        storedAmount -= amount;\r\n        _voter.transfer(amount);\r\n    }\r\n\r\n    /*\r\n    *  Allow an eligible voter to vote for their chosen votingOption.\r\n    *\r\n    *  NOTE: if anything fails during this call we will throw and automatically\r\n    *        revert all changes.\r\n    */\r\n    function voteForCandidate(bytes32 _candidateID) private {\r\n        require(validTime());\r\n        require(canVote(msg.sender));// Get the Voter struct for this sender.\r\n\r\n        voters[msg.sender].isVoted = true;\r\n        votedVoterCount += 1;\r\n        voters[msg.sender].votedFor.push(_candidateID); //Add candidateID to list whom voter voted\r\n        voteReceived[_candidateID].push(msg.sender);\r\n    }\r\n\r\n    /*\r\n    *  Allow an eligible voter to vote for a list of candidate\r\n    *  If they have already isVoted, then remove their vote from the previous\r\n    *  'votingOption' and assign it to the new one.\r\n    *\r\n    *  NOTE: if anything fails during this call we will throw and automatically\r\n    *        revert all changes.\r\n    */\r\n    function voteForCandidates(bytes32[] _candidateIDs) public {\r\n        require(validTime());\r\n        require(canVote(msg.sender));\r\n\r\n        for (uint i = 0; i < _candidateIDs.length; i++) {\r\n            voteForCandidate(_candidateIDs[i]);\r\n            //emit VoteFor(msg.sender, _candidateIDs);\r\n        }\r\n    }\r\n\r\n    function validCandidate(bytes32 _candidateID) public view returns (bool) {\r\n        for (uint i = 0; i < candidateIDs.length; i++) {\r\n            if (candidateIDs[i] == _candidateID) {\r\n                return true;\r\n            }\r\n        }\r\n        return false;\r\n    }\r\n\r\n    function hasRightToVote(address voterAddress) public view returns (bool) {\r\n        if (voters[voterAddress].eligibleToVote && !voters[voterAddress].isVoted) {\r\n            return true;\r\n        } else {\r\n            return false;\r\n        }\r\n    }\r\n\r\n    // ~~~~~~~~~~~~~~~~~~~~~~~~~~~~~~~~~~~~~~~~~~~~~~ Getter Functions ~~~~~~~~~~~~~~~~~~~~~~~~~~~~~~~~~~~~~~~~~~~~~~~~ //\r\n\r\n    /*\r\n    * Returns the ballots bytes32.\r\n    */\r\n    function getBallotOverview() public returns (\r\n        bytes32, uint, bool, uint, uint, uint, uint, uint, uint, uint, uint, uint\r\n    ) {\r\n        return ( // Do not change the return order\r\n        /*Ballot Info*/\r\n        ballotName,\r\n        limitCandidate,\r\n        isFinalized,\r\n        amount,\r\n        storedAmount,\r\n\r\n        /*Phase Info*/\r\n        startRegPhase,\r\n        endRegPhase,\r\n        startVotingPhase,\r\n        endVotingPhase,\r\n\r\n        /*Voter Info*/\r\n        registeredVoterCount,\r\n        votedVoterCount,\r\n        fundedVoterCount\r\n        );\r\n    }\r\n\r\n    /*\r\n    * Returns the number of candidates.\r\n    */\r\n    function getCandidateLength() public returns (uint)  {\r\n        return candidateIDs.length;\r\n    }\r\n\r\n    function getCandidateList() public returns (bytes32[]) {\r\n        return candidateIDs;\r\n    }\r\n\r\n    /*    *//*\r\n    * Returns the candidateID of a candidate at a specific index.\r\n    * Throws if index out of bounds.\r\n    *//*\r\n    function getVotingOptionsName(uint _index) returns (bytes32)\r\n    {\r\n        return votingOptions[_index].candidateID;\r\n    }*/\r\n\r\n    /*\r\n    * Returns the number of votes for a candidate at the specified index.\r\n    * Throws if index out of bounds.\r\n    */\r\n    function getCandidateResult(bytes32 _candidateID) public returns (uint, address[])\r\n    {\r\n        return (voteReceived[_candidateID].length, voteReceived[_candidateID]);\r\n    }\r\n\r\n    // Return a list of people who have voted for candidate\r\n\r\n\r\n    /*\r\n    * Returns if the voting options have been finalized.\r\n    */\r\n    function isBallotFinalized() public returns (bool)\r\n    {\r\n        return isFinalized;\r\n    }\r\n\r\n    function getVotedForList(address voterAddress) public returns (bytes32[]) {\r\n        return voters[voterAddress].votedFor;\r\n    }\r\n\r\n    function getVoterAddressList() onlyOwner public  returns (address[]) {\r\n        return voterAddressList;\r\n    }\r\n\r\n\r\n}\r\n",
  "sourcePath": "E:\\Work\\ETH\\EtherVote\\OnlineBallotRegulator\\truffle\\contracts\\BallotContract.sol",
  "compiler": {
    "name": "solc",
    "version": "0.4.24+commit.e67f0147.Emscripten.clang"
  },
  "schemaVersion": "2.0.1",
  "updatedAt": "2018-10-02T09:28:15.279Z"
}