{
  "contractName": "BallotContract",
  "abi": [
    {
      "constant": true,
      "inputs": [
        {
          "name": "",
          "type": "address"
        }
      ],
      "name": "voters",
      "outputs": [
        {
          "name": "eligibleToVote",
          "type": "bool"
        },
        {
          "name": "isVoted",
          "type": "bool"
        },
        {
          "name": "isFunded",
          "type": "bool"
        }
      ],
      "payable": false,
      "stateMutability": "view",
      "type": "function"
    },
    {
      "inputs": [],
      "payable": false,
      "stateMutability": "nonpayable",
      "type": "constructor"
    },
    {
      "payable": true,
      "stateMutability": "payable",
      "type": "fallback"
    },
    {
      "constant": false,
      "inputs": [
        {
          "name": "phrase",
          "type": "bytes32"
        }
      ],
      "name": "close",
      "outputs": [],
      "payable": false,
      "stateMutability": "nonpayable",
      "type": "function"
    },
    {
      "constant": false,
      "inputs": [
        {
          "name": "phrase",
          "type": "bytes32"
        }
      ],
      "name": "claimStoredAmount",
      "outputs": [],
      "payable": false,
      "stateMutability": "nonpayable",
      "type": "function"
    },
    {
      "constant": false,
      "inputs": [
        {
          "name": "_ballotName",
          "type": "bytes32"
        },
        {
          "name": "_fundAmount",
          "type": "uint256"
        },
        {
          "name": "_limitCandidate",
          "type": "uint256"
        },
        {
          "name": "_startVotingPhase",
          "type": "uint256"
        },
        {
          "name": "_endVotingPhase",
          "type": "uint256"
        },
        {
          "name": "_startRegPhase",
          "type": "uint256"
        },
        {
          "name": "_endRegPhase",
          "type": "uint256"
        },
        {
          "name": "_candidateIDs",
          "type": "bytes32[]"
        }
      ],
      "name": "setupBallot",
      "outputs": [],
      "payable": false,
      "stateMutability": "nonpayable",
      "type": "function"
    },
    {
      "constant": false,
      "inputs": [
        {
          "name": "_amount",
          "type": "uint256"
        }
      ],
      "name": "setTransferAmount",
      "outputs": [],
      "payable": false,
      "stateMutability": "nonpayable",
      "type": "function"
    },
    {
      "constant": false,
      "inputs": [
        {
          "name": "_candidateIDs",
          "type": "bytes32[]"
        }
      ],
      "name": "addCandidates",
      "outputs": [],
      "payable": false,
      "stateMutability": "nonpayable",
      "type": "function"
    },
    {
      "constant": false,
      "inputs": [
        {
          "name": "phrase",
          "type": "bytes32"
        }
      ],
      "name": "finalizeBallot",
      "outputs": [],
      "payable": false,
      "stateMutability": "nonpayable",
      "type": "function"
    },
    {
      "constant": false,
      "inputs": [
        {
          "name": "phrase",
          "type": "bytes32"
        }
      ],
      "name": "resetTime",
      "outputs": [],
      "payable": false,
      "stateMutability": "nonpayable",
      "type": "function"
    },
    {
      "constant": false,
      "inputs": [
        {
          "name": "_voter",
          "type": "address"
        }
      ],
      "name": "giveRightToVote",
      "outputs": [],
      "payable": false,
      "stateMutability": "nonpayable",
      "type": "function"
    },
    {
      "constant": false,
      "inputs": [
        {
          "name": "_candidateIDs",
          "type": "bytes32[]"
        }
      ],
      "name": "voteForCandidates",
      "outputs": [],
      "payable": false,
      "stateMutability": "nonpayable",
      "type": "function"
    },
    {
      "constant": true,
      "inputs": [
        {
          "name": "voterAddress",
          "type": "address"
        }
      ],
      "name": "hasRightToVote",
      "outputs": [
        {
          "name": "",
          "type": "bool"
        }
      ],
      "payable": false,
      "stateMutability": "view",
      "type": "function"
    },
    {
      "constant": false,
      "inputs": [],
      "name": "getBallotOverview",
      "outputs": [
        {
          "name": "",
          "type": "bytes32"
        },
        {
          "name": "",
          "type": "uint256"
        },
        {
          "name": "",
          "type": "bool"
        },
        {
          "name": "",
          "type": "uint256"
        },
        {
          "name": "",
          "type": "uint256"
        },
        {
          "name": "",
          "type": "uint256"
        },
        {
          "name": "",
          "type": "uint256"
        },
        {
          "name": "",
          "type": "uint256"
        },
        {
          "name": "",
          "type": "uint256"
        },
        {
          "name": "",
          "type": "uint256"
        },
        {
          "name": "",
          "type": "uint256"
        }
      ],
      "payable": false,
      "stateMutability": "nonpayable",
      "type": "function"
    },
    {
      "constant": false,
      "inputs": [],
      "name": "getBallotPhases",
      "outputs": [
        {
          "name": "",
          "type": "uint256"
        },
        {
          "name": "",
          "type": "uint256"
        },
        {
          "name": "",
          "type": "uint256"
        },
        {
          "name": "",
          "type": "uint256"
        }
      ],
      "payable": false,
      "stateMutability": "nonpayable",
      "type": "function"
    },
    {
      "constant": false,
      "inputs": [],
      "name": "getCandidateLength",
      "outputs": [
        {
          "name": "",
          "type": "uint256"
        }
      ],
      "payable": false,
      "stateMutability": "nonpayable",
      "type": "function"
    },
    {
      "constant": false,
      "inputs": [],
      "name": "getCandidateList",
      "outputs": [
        {
          "name": "",
          "type": "bytes32[]"
        }
      ],
      "payable": false,
      "stateMutability": "nonpayable",
      "type": "function"
    },
    {
      "constant": false,
      "inputs": [
        {
          "name": "_candidateID",
          "type": "bytes32"
        }
      ],
      "name": "getCandidateResult",
      "outputs": [
        {
          "name": "",
          "type": "uint256"
        },
        {
          "name": "",
          "type": "address[]"
        }
      ],
      "payable": false,
      "stateMutability": "nonpayable",
      "type": "function"
    },
    {
      "constant": false,
      "inputs": [],
      "name": "isBallotFinalized",
      "outputs": [
        {
          "name": "",
          "type": "bool"
        }
      ],
      "payable": false,
      "stateMutability": "nonpayable",
      "type": "function"
    },
    {
      "constant": false,
      "inputs": [
        {
          "name": "voterAddress",
          "type": "address"
        }
      ],
      "name": "getVotedForList",
      "outputs": [
        {
          "name": "",
          "type": "bytes32[]"
        }
      ],
      "payable": false,
      "stateMutability": "nonpayable",
      "type": "function"
    },
    {
      "constant": false,
      "inputs": [
        {
          "name": "candidateID",
          "type": "bytes32"
        }
      ],
      "name": "getAddressForCandidate",
      "outputs": [
        {
          "name": "",
          "type": "address[]"
        }
      ],
      "payable": false,
      "stateMutability": "nonpayable",
      "type": "function"
    },
    {
      "constant": false,
      "inputs": [],
      "name": "getEligibleVoterList",
      "outputs": [
        {
          "name": "",
          "type": "address[]"
        }
      ],
      "payable": false,
      "stateMutability": "nonpayable",
      "type": "function"
    }
  ],
  "bytecode": "0x608060405234801561001057600080fd5b50336000806101000a81548173ffffffffffffffffffffffffffffffffffffffff021916908373ffffffffffffffffffffffffffffffffffffffff1602179055507f4e6f74207365740000000000000000000000000000000000000000000000000060018160001916905550600060028190555060006003819055506000600481905550600060058190555060006006819055506000600760006101000a81548160ff021916908315150217905550600060088190555060006009819055503073ffffffffffffffffffffffffffffffffffffffff1631600b819055506000600a81905550611fc8806101046000396000f300608060405260043610610112576000357c0100000000000000000000000000000000000000000000000000000000900463ffffffff16806313fc1e0b1461012457806339c79e0c146101615780633bdcb71e1461018a578063431f96ac146101b5578063458b6474146101de5780635ef955dc1461021c57806365c93769146102455780636eab06c41461028257806371f9a5dd146102ab57806378221c7d146102d957806381c82233146103045780638b5e05e21461032d5780639e7b8d6114610356578063a3ec138d1461037f578063bd8f7d2e146103be578063c623f910146103f3578063e17b240a1461041c578063eeaa17a514610445578063f7522a8314610482578063fdbc4006146104ad575b34600b60008282540192505081905550005b34801561013057600080fd5b5061014b60048036036101469190810190611a45565b6104d8565b6040516101589190611c8a565b60405180910390f35b34801561016d57600080fd5b5061018860048036036101839190810190611a45565b610591565b005b34801561019657600080fd5b5061019f610711565b6040516101ac9190611cce565b60405180910390f35b3480156101c157600080fd5b506101dc60048036036101d79190810190611a45565b610728565b005b3480156101ea57600080fd5b5061020560048036036102009190810190611a45565b610952565b604051610213929190611e06565b60405180910390f35b34801561022857600080fd5b50610243600480360361023e9190810190611a45565b610a21565b005b34801561025157600080fd5b5061026c600480360361026791908101906119db565b610b7a565b6040516102799190611cce565b60405180910390f35b34801561028e57600080fd5b506102a960048036036102a49190810190611a04565b610c3d565b005b3480156102b757600080fd5b506102c0610d1a565b6040516102d09493929190611e36565b60405180910390f35b3480156102e557600080fd5b506102ee610d3a565b6040516102fb9190611c8a565b60405180910390f35b34801561031057600080fd5b5061032b60048036036103269190810190611b38565b610e33565b005b34801561033957600080fd5b50610354600480360361034f9190810190611a6e565b610e9e565b005b34801561036257600080fd5b5061037d600480360361037891908101906119db565b610f90565b005b34801561038b57600080fd5b506103a660048036036103a191908101906119db565b611149565b6040516103b593929190611ce9565b60405180910390f35b3480156103ca57600080fd5b506103d361119a565b6040516103ea9b9a99989796959493929190611d20565b60405180910390f35b3480156103ff57600080fd5b5061041a60048036036104159190810190611a45565b6111fc565b005b34801561042857600080fd5b50610443600480360361043e9190810190611a04565b611319565b005b34801561045157600080fd5b5061046c600480360361046791908101906119db565b611408565b6040516104799190611cac565b60405180910390f35b34801561048e57600080fd5b506104976114b6565b6040516104a49190611deb565b60405180910390f35b3480156104b957600080fd5b506104c26114c3565b6040516104cf9190611cac565b60405180910390f35b6060600654421115156104ea57600080fd5b600d6000836000191660001916815260200190815260200160002080548060200260200160405190810160405280929190818152602001828054801561058557602002820191906000526020600020905b8160009054906101000a900473ffffffffffffffffffffffffffffffffffffffff1673ffffffffffffffffffffffffffffffffffffffff168152602001906001019080831161053b575b50505050509050919050565b6000809054906101000a900473ffffffffffffffffffffffffffffffffffffffff1673ffffffffffffffffffffffffffffffffffffffff163373ffffffffffffffffffffffffffffffffffffffff161415156105ec57600080fd5b7f636c6f73650000000000000000000000000000000000000000000000000000006040518082600019166000191681526020019150506040518091039020600019168160405180826000191660001916815260200191505060405180910390206000191614151561065c57600080fd5b6000600b5411151561066d57600080fd5b6000809054906101000a900473ffffffffffffffffffffffffffffffffffffffff1673ffffffffffffffffffffffffffffffffffffffff166108fc600b549081150290604051600060405180830381858888f193505050501580156106d6573d6000803e3d6000fd5b506000809054906101000a900473ffffffffffffffffffffffffffffffffffffffff1673ffffffffffffffffffffffffffffffffffffffff16ff5b6000600760009054906101000a900460ff16905090565b6000809054906101000a900473ffffffffffffffffffffffffffffffffffffffff1673ffffffffffffffffffffffffffffffffffffffff163373ffffffffffffffffffffffffffffffffffffffff1614151561078357600080fd5b7f73746172745265675068617365000000000000000000000000000000000000006040518082600019166000191681526020019150506040518091039020600019168160405180826000191660001916815260200191505060405180910390206000191614156107f65760006003819055505b7f656e6452656750686173650000000000000000000000000000000000000000006040518082600019166000191681526020019150506040518091039020600019168160405180826000191660001916815260200191505060405180910390206000191614156108695760006004819055505b7f7374617274566f74696e675068617365000000000000000000000000000000006040518082600019166000191681526020019150506040518091039020600019168160405180826000191660001916815260200191505060405180910390206000191614156108dc5760006005819055505b7f656e64566f74696e67506861736500000000000000000000000000000000000060405180826000191660001916815260200191505060405180910390206000191681604051808260001916600019168152602001915050604051809103902060001916141561094f5760006006819055505b50565b60006060600d6000846000191660001916815260200190815260200160002080549050600d6000856000191660001916815260200190815260200160002080805480602002602001604051908101604052809291908181526020018280548015610a1157602002820191906000526020600020905b8160009054906101000a900473ffffffffffffffffffffffffffffffffffffffff1673ffffffffffffffffffffffffffffffffffffffff16815260200190600101908083116109c7575b5050505050905091509150915091565b6000809054906101000a900473ffffffffffffffffffffffffffffffffffffffff1673ffffffffffffffffffffffffffffffffffffffff163373ffffffffffffffffffffffffffffffffffffffff16141515610a7c57600080fd5b60065442111515610a8c57600080fd5b6000600b54111515610a9d57600080fd5b7f636c61696d00000000000000000000000000000000000000000000000000000060405180826000191660001916815260200191505060405180910390206000191681604051808260001916600019168152602001915050604051809103902060001916141515610b0d57600080fd5b6000809054906101000a900473ffffffffffffffffffffffffffffffffffffffff1673ffffffffffffffffffffffffffffffffffffffff166108fc600b549081150290604051600060405180830381858888f19350505050158015610b76573d6000803e3d6000fd5b5050565b6000600f60008373ffffffffffffffffffffffffffffffffffffffff1673ffffffffffffffffffffffffffffffffffffffff16815260200190815260200160002060000160009054906101000a900460ff168015610c255750600f60008373ffffffffffffffffffffffffffffffffffffffff1673ffffffffffffffffffffffffffffffffffffffff16815260200190815260200160002060000160019054906101000a900460ff16155b15610c335760019050610c38565b600090505b919050565b6000809054906101000a900473ffffffffffffffffffffffffffffffffffffffff1673ffffffffffffffffffffffffffffffffffffffff163373ffffffffffffffffffffffffffffffffffffffff16141515610c9857600080fd5b60045442101515610cde576040517f08c379a0000000000000000000000000000000000000000000000000000000008152600401610cd590611dcb565b60405180910390fd5b60001515600760009054906101000a900460ff161515141515610d0057600080fd5b80600c9080519060200190610d169291906118a2565b5050565b600080600080600354600454600554600654935093509350935090919293565b60606000809054906101000a900473ffffffffffffffffffffffffffffffffffffffff1673ffffffffffffffffffffffffffffffffffffffff163373ffffffffffffffffffffffffffffffffffffffff16141515610d9757600080fd5b60065442111515610da757600080fd5b600e805480602002602001604051908101604052809291908181526020018280548015610e2957602002820191906000526020600020905b8160009054906101000a900473ffffffffffffffffffffffffffffffffffffffff1673ffffffffffffffffffffffffffffffffffffffff1681526020019060010190808311610ddf575b5050505050905090565b6000809054906101000a900473ffffffffffffffffffffffffffffffffffffffff1673ffffffffffffffffffffffffffffffffffffffff163373ffffffffffffffffffffffffffffffffffffffff16141515610e8e57600080fd5b633b9aca008102600a8190555050565b6000809054906101000a900473ffffffffffffffffffffffffffffffffffffffff1673ffffffffffffffffffffffffffffffffffffffff163373ffffffffffffffffffffffffffffffffffffffff16141515610ef957600080fd5b8760018160001916905550633b9aca008702600a8190555085600281905550826003819055508160048190555084600581905550836006819055506000600760006101000a81548160ff021916908315150217905550600060088190555060006009819055503073ffffffffffffffffffffffffffffffffffffffff1631600b81905550610f8681610c3d565b5050505050505050565b6000809054906101000a900473ffffffffffffffffffffffffffffffffffffffff1673ffffffffffffffffffffffffffffffffffffffff163373ffffffffffffffffffffffffffffffffffffffff16141515610feb57600080fd5b60045442101515611031576040517f08c379a000000000000000000000000000000000000000000000000000000000815260040161102890611dcb565b60405180910390fd5b600b543073ffffffffffffffffffffffffffffffffffffffff16311015151561105957600080fd5b600a54600b5411151561106b57600080fd5b6001600f60008373ffffffffffffffffffffffffffffffffffffffff1673ffffffffffffffffffffffffffffffffffffffff16815260200190815260200160002060000160006101000a81548160ff0219169083151502179055506001600860008282540192505081905550600e8190806001815401808255809150509060018203906000526020600020016000909192909190916101000a81548173ffffffffffffffffffffffffffffffffffffffff021916908373ffffffffffffffffffffffffffffffffffffffff160217905550506111468161151f565b50565b600f6020528060005260406000206000915090508060000160009054906101000a900460ff16908060000160019054906101000a900460ff16908060000160029054906101000a900460ff16905083565b6000806000806000806000806000806000600154600254600760009054906101000a900460ff16600a54600b546003546004546005546006546008546009549a509a509a509a509a509a509a509a509a509a509a50909192939495969798999a565b6000809054906101000a900473ffffffffffffffffffffffffffffffffffffffff1673ffffffffffffffffffffffffffffffffffffffff163373ffffffffffffffffffffffffffffffffffffffff1614151561125757600080fd5b6002600c8054905011151561126b57600080fd5b7f66696e616c697a65000000000000000000000000000000000000000000000000604051808260001916600019168152602001915050604051809103902060001916816040518082600019166000191681526020019150506040518091039020600019161415156112db57600080fd5b600554421015156112eb57600080fd5b600354421115156112fb57600080fd5b6001600760006101000a81548160ff02191690831515021790555050565b6000611323611712565b151561132e57600080fd5b600760009054906101000a900460ff16151561134957600080fd5b61135233610b7a565b151561135d57600080fd5b600090505b81518110156113985761138b828281518110151561137c57fe5b9060200190602002015161173b565b8080600101915050611362565b6001600f60003373ffffffffffffffffffffffffffffffffffffffff1673ffffffffffffffffffffffffffffffffffffffff16815260200190815260200160002060000160016101000a81548160ff02191690831515021790555060016009600082825401925050819055505050565b60606006544211151561141a57600080fd5b600f60008373ffffffffffffffffffffffffffffffffffffffff1673ffffffffffffffffffffffffffffffffffffffff1681526020019081526020016000206001018054806020026020016040519081016040528092919081815260200182805480156114aa57602002820191906000526020600020905b81546000191681526020019060010190808311611492575b50505050509050919050565b6000600c80549050905090565b6060600c80548060200260200160405190810160405280929190818152602001828054801561151557602002820191906000526020600020905b815460001916815260200190600101908083116114fd575b5050505050905090565b6000809054906101000a900473ffffffffffffffffffffffffffffffffffffffff1673ffffffffffffffffffffffffffffffffffffffff163373ffffffffffffffffffffffffffffffffffffffff1614151561157a57600080fd5b600f60008273ffffffffffffffffffffffffffffffffffffffff1673ffffffffffffffffffffffffffffffffffffffff16815260200190815260200160002060000160009054906101000a900460ff1615156115d557600080fd5b600b543073ffffffffffffffffffffffffffffffffffffffff1631101515156115fd57600080fd5b600f60008273ffffffffffffffffffffffffffffffffffffffff1673ffffffffffffffffffffffffffffffffffffffff16815260200190815260200160002060000160029054906101000a900460ff1615151561165957600080fd5b6001600f60008373ffffffffffffffffffffffffffffffffffffffff1673ffffffffffffffffffffffffffffffffffffffff16815260200190815260200160002060000160026101000a81548160ff021916908315150217905550600a54600b600082825403925050819055508073ffffffffffffffffffffffffffffffffffffffff166108fc600a549081150290604051600060405180830381858888f1935050505015801561170e573d6000803e3d6000fd5b5050565b6000600654421080611725575060055442115b156117335760019050611738565b600090505b90565b61174481611843565b151561174f57600080fd5b600f60003373ffffffffffffffffffffffffffffffffffffffff1673ffffffffffffffffffffffffffffffffffffffff168152602001908152602001600020600101819080600181540180825580915050906001820390600052602060002001600090919290919091509060001916905550600d600082600019166000191681526020019081526020016000203390806001815401808255809150509060018203906000526020600020016000909192909190916101000a81548173ffffffffffffffffffffffffffffffffffffffff021916908373ffffffffffffffffffffffffffffffffffffffff1602179055505050565b600080600090505b600c80549050811015611897578260001916600c8281548110151561186c57fe5b906000526020600020015460001916141561188a576001915061189c565b808060010191505061184b565b600091505b50919050565b8280548282559060005260206000209081019282156118e4579160200282015b828111156118e35782518290600019169055916020019190600101906118c2565b5b5090506118f191906118f5565b5090565b61191791905b808211156119135760008160009055506001016118fb565b5090565b90565b60006119268235611f5a565b905092915050565b600082601f830112151561194157600080fd5b813561195461194f82611ea8565b611e7b565b9150818183526020840193506020810190508385602084028201111561197957600080fd5b60005b838110156119a9578161198f88826119b3565b84526020840193506020830192505060018101905061197c565b5050505092915050565b60006119bf8235611f7a565b905092915050565b60006119d38235611f84565b905092915050565b6000602082840312156119ed57600080fd5b60006119fb8482850161191a565b91505092915050565b600060208284031215611a1657600080fd5b600082013567ffffffffffffffff811115611a3057600080fd5b611a3c8482850161192e565b91505092915050565b600060208284031215611a5757600080fd5b6000611a65848285016119b3565b91505092915050565b600080600080600080600080610100898b031215611a8b57600080fd5b6000611a998b828c016119b3565b9850506020611aaa8b828c016119c7565b9750506040611abb8b828c016119c7565b9650506060611acc8b828c016119c7565b9550506080611add8b828c016119c7565b94505060a0611aee8b828c016119c7565b93505060c0611aff8b828c016119c7565b92505060e089013567ffffffffffffffff811115611b1c57600080fd5b611b288b828c0161192e565b9150509295985092959890939650565b600060208284031215611b4a57600080fd5b6000611b58848285016119c7565b91505092915050565b611b6a81611f1a565b82525050565b6000611b7b82611eea565b808452602084019350611b8d83611ed0565b60005b82811015611bbf57611ba3868351611b61565b611bac82611f00565b9150602086019550600181019050611b90565b50849250505092915050565b6000611bd682611ef5565b808452602084019350611be883611edd565b60005b82811015611c1a57611bfe868351611c35565b611c0782611f0d565b9150602086019550600181019050611beb565b50849250505092915050565b611c2f81611f3a565b82525050565b611c3e81611f46565b82525050565b6000601c82527f42616c6c6f742073657475702074696d652068617320656e64656421000000006020830152604082019050919050565b611c8481611f50565b82525050565b60006020820190508181036000830152611ca48184611b70565b905092915050565b60006020820190508181036000830152611cc68184611bcb565b905092915050565b6000602082019050611ce36000830184611c26565b92915050565b6000606082019050611cfe6000830186611c26565b611d0b6020830185611c26565b611d186040830184611c26565b949350505050565b600061016082019050611d36600083018e611c35565b611d43602083018d611c7b565b611d50604083018c611c26565b611d5d606083018b611c7b565b611d6a608083018a611c7b565b611d7760a0830189611c7b565b611d8460c0830188611c7b565b611d9160e0830187611c7b565b611d9f610100830186611c7b565b611dad610120830185611c7b565b611dbb610140830184611c7b565b9c9b505050505050505050505050565b60006020820190508181036000830152611de481611c44565b9050919050565b6000602082019050611e006000830184611c7b565b92915050565b6000604082019050611e1b6000830185611c7b565b8181036020830152611e2d8184611b70565b90509392505050565b6000608082019050611e4b6000830187611c7b565b611e586020830186611c7b565b611e656040830185611c7b565b611e726060830184611c7b565b95945050505050565b6000604051905081810181811067ffffffffffffffff82111715611e9e57600080fd5b8060405250919050565b600067ffffffffffffffff821115611ebf57600080fd5b602082029050602081019050919050565b6000602082019050919050565b6000602082019050919050565b600081519050919050565b600081519050919050565b6000602082019050919050565b6000602082019050919050565b600073ffffffffffffffffffffffffffffffffffffffff82169050919050565b60008115159050919050565b6000819050919050565b6000819050919050565b600073ffffffffffffffffffffffffffffffffffffffff82169050919050565b6000819050919050565b60008190509190505600a265627a7a723058209da353a93691c971fc831b5f670fdcab15f1b6a670227251e6e225dce4074b186c6578706572696d656e74616cf50037",
  "source": "pragma solidity ^0.4.24;\r\npragma experimental ABIEncoderV2; // Allow passing struct as argument\r\n\r\n// We have to specify what version of compiler this code will compile with\r\n\r\ncontract BallotContract {\r\n\r\n\r\n// ~~~~~~~~~~~~~~~~~~~~~~~~~~~~~~~~~~~~~~~~~~~~Ballot Management~~~~~~~~~~~~~~~~~~~~~~~~~~~~~~~~~~~~~~~~~~~~~~ //\r\n\r\n    address private owner;\r\n\r\n    bytes32 private ballotName;\r\n    uint    private limitCandidate;\r\n\r\n    // Time: seconds since 1970-01-01\r\n    uint private    startRegPhase;\r\n    uint private    endRegPhase;\r\n    uint private    startVotingPhase;\r\n    uint private    endVotingPhase;\r\n\r\n    // Ballot status\r\n    bool private    isFinalized;            // Whether the owner can still add voting options.\r\n    uint private    registeredVoterCount;   // Total number of voter addresses registered.\r\n    uint private    votedVoterCount;\r\n    //uint private    fundedVoterCount;\r\n    uint private    amount; // in GWei\r\n    uint256 private storedAmount;\r\n\r\n    // Candidate list\r\n    bytes32[] private candidateIDs;\r\n    mapping (bytes32 => address[]) voteReceived; //map candidateId to array of address of whom has voted for them\r\n\r\n\r\n    constructor ()\r\n    {\r\n        owner = msg.sender;       // Set the owner to the address creating the contract.\r\n        ballotName = 'Not set';\r\n        limitCandidate = 0;\r\n\r\n        startRegPhase = 0;\r\n        endRegPhase = 0;\r\n        startVotingPhase = 0;\r\n        endVotingPhase = 0;\r\n\r\n        isFinalized = false;\r\n        registeredVoterCount = 0;\r\n        votedVoterCount = 0;\r\n        //fundedVoterCount = 0;\r\n        storedAmount = address(this).balance;\r\n        amount = 0;\r\n\r\n    }\r\n\r\n    function close(bytes32 phrase) onlyOwner public {\r\n        require( keccak256(phrase) == keccak256(bytes32('close')));\r\n        require(storedAmount > 0);\r\n        owner.transfer(storedAmount);\r\n        selfdestruct(owner);\r\n    }\r\n\r\n    function () payable {\r\n        storedAmount += msg.value;\r\n    }\r\n\r\n    function claimStoredAmount(bytes32 phrase) onlyOwner {\r\n        require(now > endVotingPhase);\r\n        require(storedAmount > 0);\r\n        require(  keccak256(phrase) == keccak256(bytes32('claim')) );\r\n\r\n        owner.transfer(storedAmount); // Transfer back remaining amount\r\n    }\r\n\r\n    function setupBallot (\r\n        bytes32 _ballotName,\r\n        uint _fundAmount,\r\n        uint _limitCandidate,\r\n        uint _startVotingPhase,\r\n        uint _endVotingPhase,\r\n        uint _startRegPhase,\r\n        uint _endRegPhase,\r\n        bytes32[] _candidateIDs\r\n    ) onlyOwner public {\r\n\r\n        ballotName = _ballotName;\r\n        amount = _fundAmount*1000000000; //convert to wei\r\n        limitCandidate = _limitCandidate;\r\n        startRegPhase = _startRegPhase;\r\n        endRegPhase = _endRegPhase;\r\n        startVotingPhase = _startVotingPhase;\r\n        endVotingPhase = _endVotingPhase;\r\n\r\n        isFinalized = false;\r\n        registeredVoterCount = 0;\r\n        votedVoterCount = 0;\r\n        //fundedVoterCount = 0;\r\n        storedAmount = address(this).balance;\r\n\r\n        addCandidates(_candidateIDs);\r\n    }\r\n\r\n    function setTransferAmount(uint _amount) onlyOwner public {\r\n        amount = _amount*1000000000; //convert Gwei to wei\r\n    }\r\n\r\n    function addCandidates(bytes32[] _candidateIDs) onlyOwner public {\r\n        require (now < endRegPhase, 'Ballot setup time has ended!');\r\n        require (isFinalized == false);    // Check we are allowed to add options.\r\n\r\n        candidateIDs = _candidateIDs;\r\n    }\r\n\r\n    function finalizeBallot(bytes32 phrase) onlyOwner public {\r\n        require(candidateIDs.length > 2);\r\n        require( keccak256(phrase) == keccak256(bytes32('finalize')));\r\n        require (now < startVotingPhase);\r\n        require (now > startRegPhase);\r\n\r\n        isFinalized = true;    // Stop the addition of any more change.\r\n    }\r\n\r\n    function resetTime(bytes32 phrase) onlyOwner public {\r\n        if (keccak256(phrase) == keccak256(bytes32('startRegPhase'))) {\r\n            startRegPhase = 0;\r\n        }\r\n        if (keccak256(phrase) == keccak256(bytes32('endRegPhase'))) {\r\n            endRegPhase = 0;\r\n        }\r\n        if (keccak256(phrase) == keccak256(bytes32('startVotingPhase'))) {\r\n            startVotingPhase = 0;\r\n        }\r\n        if (keccak256(phrase) == keccak256(bytes32('endVotingPhase'))) {\r\n            endVotingPhase = 0;\r\n        }\r\n    }\r\n\r\n\r\n    // ~~~~~~~~~~~~~~~~~~~~~~~~~~~~~~~~~~~~~~~~~~~~~~~~ Voting Management ~~~~~~~~~~~~~~~~~~~~~~~~~~~~~~~~~~~~~~~~~~~~~~~~ //\r\n\r\n    /*\r\n    *  Structure which represents a single voter.\r\n    */\r\n    struct Voter\r\n    {\r\n        bool eligibleToVote;    // Is this voter allowed to vote?\r\n        bool isVoted;           // State of whether this voter has voted.\r\n        bool isFunded;\r\n        bytes32[] votedFor;     // List candidates' IDs this voter voted for.\r\n    }\r\n\r\n    address[] private voterAddressList;\r\n    mapping(address => Voter) public voters; // State variable which maps any address to a 'Voter' struct.\r\n\r\n    function giveRightToVote(address _voter) onlyOwner public {\r\n        require (now < endRegPhase, 'Ballot setup time has ended!');\r\n        require(address(this).balance >= storedAmount);\r\n        require(storedAmount > amount);\r\n\r\n        voters[_voter].eligibleToVote = true;\r\n        registeredVoterCount += 1;      // Increment registered voters.\r\n        voterAddressList.push(_voter);\r\n\r\n        // Fund user with money\r\n        giveFund(_voter);\r\n\r\n    }\r\n\r\n    function giveFund(address _voter) onlyOwner private {\r\n        require(voters[_voter].eligibleToVote); // User already had the right to vote\r\n        require(address(this).balance >= storedAmount);\r\n        require(!voters[_voter].isFunded);\r\n\r\n        voters[_voter].isFunded = true;\r\n        storedAmount -= amount;\r\n        _voter.transfer(amount);\r\n        //fundedVoterCount += 1;\r\n    }\r\n\r\n    function voteForCandidate(bytes32 _candidateID) private {\r\n        require(validCandidate(_candidateID));\r\n        voters[msg.sender].votedFor.push(_candidateID); //Add candidateID to list whom voter voted\r\n        voteReceived[_candidateID].push(msg.sender);\r\n    }\r\n\r\n    function voteForCandidates(bytes32[] _candidateIDs) public {\r\n        require(validTime());\r\n        require(isFinalized);\r\n        require(hasRightToVote(msg.sender));\r\n\r\n        for (uint i = 0; i < _candidateIDs.length; i++) {\r\n            voteForCandidate(_candidateIDs[i]);\r\n        }\r\n        voters[msg.sender].isVoted = true;\r\n        votedVoterCount += 1;\r\n    }\r\n\r\n    function validCandidate(bytes32 _candidateID) private view returns (bool) {\r\n        for (uint i = 0; i < candidateIDs.length; i++) {\r\n            if (candidateIDs[i] == _candidateID) {\r\n                return true;\r\n            }\r\n        }\r\n        return false;\r\n    }\r\n\r\n    function hasRightToVote(address voterAddress) public view returns (bool) {\r\n        if (voters[voterAddress].eligibleToVote && !voters[voterAddress].isVoted) {\r\n            return true;\r\n        } else {\r\n            return false;\r\n        }\r\n    }\r\n\r\n    // ~~~~~~~~~~~~~~~~~~~~~~~~~~~~~~~~~~~~~~~~~~~~~~ Getters & Validators Functions ~~~~~~~~~~~~~~~~~~~~~~~~~~~~~~~~~~~~~~~~~~~~~~~~ //\r\n\r\n    /*------Validators-------*/\r\n    function validTime() private returns (bool) {\r\n        if ( now < endVotingPhase || now > startVotingPhase) {\r\n            return true;\r\n        } else { return false; }\r\n    }\r\n\r\n    modifier onlyOwner {\r\n        require(msg.sender == owner );\r\n        _;\r\n    }\r\n\r\n    /*------Getters-------*/\r\n\r\n    //Get ballot info\r\n    function getBallotOverview() public returns (\r\n        bytes32, uint, bool, uint, uint, uint, uint, uint, uint, uint, uint\r\n    ) {\r\n        return ( // Do not change the return order\r\n        /*Ballot Info*/\r\n        ballotName,\r\n        limitCandidate,\r\n        isFinalized,\r\n        amount,\r\n        storedAmount,\r\n\r\n        /*Phase Info*/\r\n        startRegPhase,\r\n        endRegPhase,\r\n        startVotingPhase,\r\n        endVotingPhase,\r\n\r\n        /*Voter Info*/\r\n        registeredVoterCount,\r\n        votedVoterCount\r\n        );\r\n    }\r\n\r\n    //Get ballot timeline info\r\n    function getBallotPhases() public returns (uint, uint, uint, uint) {\r\n        return (\r\n        /*Phase Info*/\r\n        startRegPhase,\r\n        endRegPhase,\r\n        startVotingPhase,\r\n        endVotingPhase\r\n        );\r\n    }\r\n\r\n    //Get total number of candidates\r\n    function getCandidateLength() public returns (uint)  {\r\n        return candidateIDs.length;\r\n    }\r\n\r\n    //Get list of candidate for that ballot\r\n    function getCandidateList() public returns (bytes32[]) {\r\n        return candidateIDs;\r\n    }\r\n\r\n    //Get total vote count for that candidate\r\n    function getCandidateResult(bytes32 _candidateID) public returns (uint, address[])\r\n    {\r\n        return (voteReceived[_candidateID].length, voteReceived[_candidateID]);\r\n    }\r\n\r\n    //Whether ballot is finalized\r\n    function isBallotFinalized() public returns (bool)\r\n    {\r\n        return isFinalized;\r\n    }\r\n\r\n    //Get list of candidate that a voter has voted for\r\n    function getVotedForList(address voterAddress) public returns (bytes32[]) {\r\n        require(now > endVotingPhase);\r\n        return voters[voterAddress].votedFor;\r\n    }\r\n\r\n    //Get list of voterAddress that has voted for a candidate\r\n    function getAddressForCandidate(bytes32 candidateID) public returns (address[]) {\r\n        require(now > endVotingPhase);\r\n        return voteReceived[candidateID];\r\n    }\r\n\r\n    //Get list of eligible candidate for that ballot\r\n    function getEligibleVoterList() onlyOwner public  returns (address[]) {\r\n        require(now > endVotingPhase);\r\n        return voterAddressList;\r\n    }\r\n\r\n\r\n}\r\n",
  "sourcePath": "C:\\Users\\linhkhoi\\Desktop\\Votereum\\OBR\\truffle\\contracts\\BallotContract.sol",
  "compiler": {
    "name": "solc",
    "version": "0.4.24+commit.e67f0147.Emscripten.clang"
  },
  "schemaVersion": "2.0.1",
  "updatedAt": "2018-12-12T02:28:42.548Z"
}