{
  "contractName": "BallotContract",
  "abi": [
    {
      "constant": true,
      "inputs": [
        {
          "name": "",
          "type": "address"
        }
      ],
      "name": "voters",
      "outputs": [
        {
          "name": "eligibleToVote",
          "type": "bool"
        },
        {
          "name": "isVoted",
          "type": "bool"
        }
      ],
      "payable": false,
      "stateMutability": "view",
      "type": "function"
    },
    {
      "inputs": [],
      "payable": false,
      "stateMutability": "nonpayable",
      "type": "constructor"
    },
    {
      "constant": false,
      "inputs": [
        {
          "name": "phrase",
          "type": "bytes32"
        }
      ],
      "name": "close",
      "outputs": [],
      "payable": false,
      "stateMutability": "nonpayable",
      "type": "function"
    },
    {
      "constant": false,
      "inputs": [
        {
          "name": "_ballotName",
          "type": "bytes32"
        },
        {
          "name": "_startVotingPhase",
          "type": "uint256"
        },
        {
          "name": "_endVotingPhase",
          "type": "uint256"
        },
        {
          "name": "_startRegPhase",
          "type": "uint256"
        },
        {
          "name": "_endRegPhase",
          "type": "uint256"
        },
        {
          "name": "_candidateIDs",
          "type": "bytes32[]"
        }
      ],
      "name": "setupBallot",
      "outputs": [],
      "payable": false,
      "stateMutability": "nonpayable",
      "type": "function"
    },
    {
      "constant": false,
      "inputs": [
        {
          "name": "_candidateIDs",
          "type": "bytes32[]"
        }
      ],
      "name": "addCandidates",
      "outputs": [],
      "payable": false,
      "stateMutability": "nonpayable",
      "type": "function"
    },
    {
      "constant": false,
      "inputs": [
        {
          "name": "phrase",
          "type": "bytes32"
        }
      ],
      "name": "finalizeBallot",
      "outputs": [],
      "payable": false,
      "stateMutability": "nonpayable",
      "type": "function"
    },
    {
      "constant": false,
      "inputs": [
        {
          "name": "phrase",
          "type": "bytes32"
        }
      ],
      "name": "resetTime",
      "outputs": [
        {
          "name": "",
          "type": "bytes32"
        },
        {
          "name": "",
          "type": "bytes32"
        },
        {
          "name": "",
          "type": "bytes32"
        }
      ],
      "payable": false,
      "stateMutability": "nonpayable",
      "type": "function"
    },
    {
      "constant": false,
      "inputs": [
        {
          "name": "_voter",
          "type": "address"
        }
      ],
      "name": "giveRightToVote",
      "outputs": [],
      "payable": false,
      "stateMutability": "nonpayable",
      "type": "function"
    },
    {
      "constant": false,
      "inputs": [
        {
          "name": "_candidateIDs",
          "type": "bytes32[]"
        }
      ],
      "name": "voteForCandidates",
      "outputs": [],
      "payable": false,
      "stateMutability": "nonpayable",
      "type": "function"
    },
    {
      "constant": true,
      "inputs": [
        {
          "name": "_candidateID",
          "type": "bytes32"
        }
      ],
      "name": "validCandidate",
      "outputs": [
        {
          "name": "",
          "type": "bool"
        }
      ],
      "payable": false,
      "stateMutability": "view",
      "type": "function"
    },
    {
      "constant": true,
      "inputs": [
        {
          "name": "voterAddress",
          "type": "address"
        }
      ],
      "name": "hasRightToVote",
      "outputs": [
        {
          "name": "",
          "type": "bool"
        }
      ],
      "payable": false,
      "stateMutability": "view",
      "type": "function"
    },
    {
      "constant": false,
      "inputs": [],
      "name": "getBallotInfo",
      "outputs": [
        {
          "name": "",
          "type": "bytes32"
        },
        {
          "name": "",
          "type": "uint256"
        },
        {
          "name": "",
          "type": "uint256"
        },
        {
          "name": "",
          "type": "uint256"
        },
        {
          "name": "",
          "type": "uint256"
        },
        {
          "name": "",
          "type": "bool"
        },
        {
          "name": "",
          "type": "uint256"
        },
        {
          "name": "",
          "type": "uint256"
        }
      ],
      "payable": false,
      "stateMutability": "nonpayable",
      "type": "function"
    },
    {
      "constant": false,
      "inputs": [],
      "name": "getCandidateLength",
      "outputs": [
        {
          "name": "",
          "type": "uint256"
        }
      ],
      "payable": false,
      "stateMutability": "nonpayable",
      "type": "function"
    },
    {
      "constant": false,
      "inputs": [],
      "name": "getCandidateList",
      "outputs": [
        {
          "name": "",
          "type": "bytes32[]"
        }
      ],
      "payable": false,
      "stateMutability": "nonpayable",
      "type": "function"
    },
    {
      "constant": false,
      "inputs": [
        {
          "name": "_candidateID",
          "type": "bytes32"
        }
      ],
      "name": "getCandidateResult",
      "outputs": [
        {
          "name": "",
          "type": "uint256"
        },
        {
          "name": "",
          "type": "address[]"
        }
      ],
      "payable": false,
      "stateMutability": "nonpayable",
      "type": "function"
    },
    {
      "constant": false,
      "inputs": [],
      "name": "isBallotFinalized",
      "outputs": [
        {
          "name": "",
          "type": "bool"
        }
      ],
      "payable": false,
      "stateMutability": "nonpayable",
      "type": "function"
    },
    {
      "constant": false,
      "inputs": [
        {
          "name": "voterAddress",
          "type": "address"
        }
      ],
      "name": "getVotedForList",
      "outputs": [
        {
          "name": "",
          "type": "bytes32[]"
        }
      ],
      "payable": false,
      "stateMutability": "nonpayable",
      "type": "function"
    },
    {
      "constant": false,
      "inputs": [],
      "name": "getVoterAddressList",
      "outputs": [
        {
          "name": "",
          "type": "address[]"
        }
      ],
      "payable": false,
      "stateMutability": "nonpayable",
      "type": "function"
    }
  ],
  "bytecode": "0x608060405234801561001057600080fd5b50336000806101000a81548173ffffffffffffffffffffffffffffffffffffffff021916908373ffffffffffffffffffffffffffffffffffffffff1602179055506118a0806100606000396000f3006080604052600436106100f1576000357c0100000000000000000000000000000000000000000000000000000000900463ffffffff168063392e6678146100f657806339c79e0c146101335780633bdcb71e1461015c578063431f96ac14610187578063458b6474146101c657806365c93769146102045780636eab06c4146102415780639098ed151461026a5780639e7b8d6114610293578063a3ec138d146102bc578063c623f910146102fa578063dbcb6d4714610323578063e17b240a1461034e578063eeaa17a514610377578063f7522a83146103b4578063f767b1ca146103df578063fdbc400614610411575b600080fd5b34801561010257600080fd5b5061011d600480360361011891908101906113b8565b61043c565b60405161012a91906115ef565b60405180910390f35b34801561013f57600080fd5b5061015a600480360361015591908101906113b8565b61049b565b005b34801561016857600080fd5b50610171610598565b60405161017e91906115ef565b60405180910390f35b34801561019357600080fd5b506101ae60048036036101a991908101906113b8565b6105af565b6040516101bd93929190611633565b60405180910390f35b3480156101d257600080fd5b506101ed60048036036101e891908101906113b8565b610671565b6040516101fb929190611723565b60405180910390f35b34801561021057600080fd5b5061022b6004803603610226919081019061134e565b610740565b60405161023891906115ef565b60405180910390f35b34801561024d57600080fd5b5061026860048036036102639190810190611377565b610802565b005b34801561027657600080fd5b50610291600480360361028c91908101906113e1565b6108df565b005b34801561029f57600080fd5b506102ba60048036036102b5919081019061134e565b610a03565b005b3480156102c857600080fd5b506102e360048036036102de919081019061134e565b610b79565b6040516102f192919061160a565b60405180910390f35b34801561030657600080fd5b50610321600480360361031c91908101906113b8565b610bb7565b005b34801561032f57600080fd5b50610338610ccc565b60405161034591906115ab565b60405180910390f35b34801561035a57600080fd5b5061037560048036036103709190810190611377565b610db5565b005b34801561038357600080fd5b5061039e6004803603610399919081019061134e565b610e1d565b6040516103ab91906115cd565b60405180910390f35b3480156103c057600080fd5b506103c9610ebb565b6040516103d69190611708565b60405180910390f35b3480156103eb57600080fd5b506103f4610ec8565b60405161040898979695949392919061166a565b60405180910390f35b34801561041d57600080fd5b50610426610f13565b60405161043391906115cd565b60405180910390f35b600080600090505b600a80549050811015610490578260001916600a8281548110151561046557fe5b90600052602060002001546000191614156104835760019150610495565b8080600101915050610444565b600091505b50919050565b6000809054906101000a900473ffffffffffffffffffffffffffffffffffffffff1673ffffffffffffffffffffffffffffffffffffffff163373ffffffffffffffffffffffffffffffffffffffff161415156104f657600080fd5b60405180807f636c6f736500000000000000000000000000000000000000000000000000000081525060050190506040518091039020600019168160405180826000191660001916815260200191505060405180910390206000191614151561055e57600080fd5b6000809054906101000a900473ffffffffffffffffffffffffffffffffffffffff1673ffffffffffffffffffffffffffffffffffffffff16ff5b6000600660009054906101000a900460ff16905090565b60008060008060009054906101000a900473ffffffffffffffffffffffffffffffffffffffff1673ffffffffffffffffffffffffffffffffffffffff163373ffffffffffffffffffffffffffffffffffffffff1614151561060f57600080fd5b8360405180826000191660001916815260200191505060405180910390208460405180807f7374617274726567706861736500000000000000000000000000000000000000815250600d01905060405180910390209250925092509193909250565b60006060600b6000846000191660001916815260200190815260200160002080549050600b600085600019166000191681526020019081526020016000208080548060200260200160405190810160405280929190818152602001828054801561073057602002820191906000526020600020905b8160009054906101000a900473ffffffffffffffffffffffffffffffffffffffff1673ffffffffffffffffffffffffffffffffffffffff16815260200190600101908083116106e6575b5050505050905091509150915091565b6000600d60008373ffffffffffffffffffffffffffffffffffffffff1673ffffffffffffffffffffffffffffffffffffffff16815260200190815260200160002060000160009054906101000a900460ff1680156107ea5750600d60008373ffffffffffffffffffffffffffffffffffffffff1673ffffffffffffffffffffffffffffffffffffffff16815260200190815260200160002060000160019054906101000a900460ff165b156107f857600190506107fd565b600090505b919050565b6000809054906101000a900473ffffffffffffffffffffffffffffffffffffffff1673ffffffffffffffffffffffffffffffffffffffff163373ffffffffffffffffffffffffffffffffffffffff1614151561085d57600080fd5b600354421015156108a3576040517f08c379a000000000000000000000000000000000000000000000000000000000815260040161089a906116e8565b60405180910390fd5b60001515600660009054906101000a900460ff1615151415156108c557600080fd5b80600a90805190602001906108db929190611215565b5050565b6000809054906101000a900473ffffffffffffffffffffffffffffffffffffffff1673ffffffffffffffffffffffffffffffffffffffff163373ffffffffffffffffffffffffffffffffffffffff1614151561093a57600080fd5b814210151561097e576040517f08c379a0000000000000000000000000000000000000000000000000000000008152600401610975906116e8565b60405180910390fd5b60001515600660009054906101000a900460ff1615151415156109a057600080fd5b8560018160001916905550826002819055508160038190555084600481905550836005819055506000600660006101000a81548160ff021916908315150217905550600060078190555060006008819055506109fb81610802565b505050505050565b6000809054906101000a900473ffffffffffffffffffffffffffffffffffffffff1673ffffffffffffffffffffffffffffffffffffffff163373ffffffffffffffffffffffffffffffffffffffff16141515610a5e57600080fd5b60035442101515610aa4576040517f08c379a0000000000000000000000000000000000000000000000000000000008152600401610a9b906116e8565b60405180910390fd5b6001600d60008373ffffffffffffffffffffffffffffffffffffffff1673ffffffffffffffffffffffffffffffffffffffff16815260200190815260200160002060000160006101000a81548160ff0219169083151502179055506001600760008282540192505081905550600c8190806001815401808255809150509060018203906000526020600020016000909192909190916101000a81548173ffffffffffffffffffffffffffffffffffffffff021916908373ffffffffffffffffffffffffffffffffffffffff1602179055505050565b600d6020528060005260406000206000915090508060000160009054906101000a900460ff16908060000160019054906101000a900460ff16905082565b6000809054906101000a900473ffffffffffffffffffffffffffffffffffffffff1673ffffffffffffffffffffffffffffffffffffffff163373ffffffffffffffffffffffffffffffffffffffff16141515610c1257600080fd5b6002600a80549050111515610c2657600080fd5b60405180807f66696e616c697a65000000000000000000000000000000000000000000000000815250600801905060405180910390206000191681604051808260001916600019168152602001915050604051809103902060001916141515610c8e57600080fd5b60045442101515610c9e57600080fd5b60025442111515610cae57600080fd5b6001600660006101000a81548160ff02191690831515021790555050565b60606000809054906101000a900473ffffffffffffffffffffffffffffffffffffffff1673ffffffffffffffffffffffffffffffffffffffff163373ffffffffffffffffffffffffffffffffffffffff16141515610d2957600080fd5b600c805480602002602001604051908101604052809291908181526020018280548015610dab57602002820191906000526020600020905b8160009054906101000a900473ffffffffffffffffffffffffffffffffffffffff1673ffffffffffffffffffffffffffffffffffffffff1681526020019060010190808311610d61575b5050505050905090565b6000610dbf610f6f565b1515610dca57600080fd5b610dd333610f94565b1515610dde57600080fd5b600090505b8151811015610e1957610e0c8282815181101515610dfd57fe5b9060200190602002015161108e565b8080600101915050610de3565b5050565b6060600d60008373ffffffffffffffffffffffffffffffffffffffff1673ffffffffffffffffffffffffffffffffffffffff168152602001908152602001600020600101805480602002602001604051908101604052809291908181526020018280548015610eaf57602002820191906000526020600020905b81546000191681526020019060010190808311610e97575b50505050509050919050565b6000600a80549050905090565b600080600080600080600080600154600254600354600454600554600660009054906101000a900460ff16600754600854975097509750975097509750975097509091929394959697565b6060600a805480602002602001604051908101604052809291908181526020018280548015610f6557602002820191906000526020600020905b81546000191681526020019060010190808311610f4d575b5050505050905090565b6000600554421180610f82575060045442105b15610f905760009050610f91565b5b90565b6000801515600660009054906101000a900460ff1615151415610fba5760009050611089565b60001515600d60008473ffffffffffffffffffffffffffffffffffffffff1673ffffffffffffffffffffffffffffffffffffffff16815260200190815260200160002060000160009054906101000a900460ff161515141561101f5760009050611089565b60011515600d60008473ffffffffffffffffffffffffffffffffffffffff1673ffffffffffffffffffffffffffffffffffffffff16815260200190815260200160002060000160019054906101000a900460ff16151514156110845760009050611089565b600190505b919050565b611096610f6f565b15156110a157600080fd5b6110aa33610f94565b15156110b557600080fd5b6001600d60003373ffffffffffffffffffffffffffffffffffffffff1673ffffffffffffffffffffffffffffffffffffffff16815260200190815260200160002060000160016101000a81548160ff0219169083151502179055506001600860008282540192505081905550600d60003373ffffffffffffffffffffffffffffffffffffffff1673ffffffffffffffffffffffffffffffffffffffff168152602001908152602001600020600101819080600181540180825580915050906001820390600052602060002001600090919290919091509060001916905550600b600082600019166000191681526020019081526020016000203390806001815401808255809150509060018203906000526020600020016000909192909190916101000a81548173ffffffffffffffffffffffffffffffffffffffff021916908373ffffffffffffffffffffffffffffffffffffffff1602179055505050565b828054828255906000526020600020908101928215611257579160200282015b82811115611256578251829060001916905591602001919060010190611235565b5b5090506112649190611268565b5090565b61128a91905b8082111561128657600081600090555060010161126e565b5090565b90565b60006112998235611832565b905092915050565b600082601f83011215156112b457600080fd5b81356112c76112c282611780565b611753565b915081818352602084019350602081019050838560208402820111156112ec57600080fd5b60005b8381101561131c57816113028882611326565b8452602084019350602083019250506001810190506112ef565b5050505092915050565b60006113328235611852565b905092915050565b6000611346823561185c565b905092915050565b60006020828403121561136057600080fd5b600061136e8482850161128d565b91505092915050565b60006020828403121561138957600080fd5b600082013567ffffffffffffffff8111156113a357600080fd5b6113af848285016112a1565b91505092915050565b6000602082840312156113ca57600080fd5b60006113d884828501611326565b91505092915050565b60008060008060008060c087890312156113fa57600080fd5b600061140889828a01611326565b965050602061141989828a0161133a565b955050604061142a89828a0161133a565b945050606061143b89828a0161133a565b935050608061144c89828a0161133a565b92505060a087013567ffffffffffffffff81111561146957600080fd5b61147589828a016112a1565b9150509295509295509295565b61148b816117f2565b82525050565b600061149c826117c2565b8084526020840193506114ae836117a8565b60005b828110156114e0576114c4868351611482565b6114cd826117d8565b91506020860195506001810190506114b1565b50849250505092915050565b60006114f7826117cd565b808452602084019350611509836117b5565b60005b8281101561153b5761151f868351611556565b611528826117e5565b915060208601955060018101905061150c565b50849250505092915050565b61155081611812565b82525050565b61155f8161181e565b82525050565b6000601c82527f42616c6c6f742073657475702074696d652068617320656e64656421000000006020830152604082019050919050565b6115a581611828565b82525050565b600060208201905081810360008301526115c58184611491565b905092915050565b600060208201905081810360008301526115e781846114ec565b905092915050565b60006020820190506116046000830184611547565b92915050565b600060408201905061161f6000830185611547565b61162c6020830184611547565b9392505050565b60006060820190506116486000830186611556565b6116556020830185611556565b6116626040830184611556565b949350505050565b600061010082019050611680600083018b611556565b61168d602083018a61159c565b61169a604083018961159c565b6116a7606083018861159c565b6116b4608083018761159c565b6116c160a0830186611547565b6116ce60c083018561159c565b6116db60e083018461159c565b9998505050505050505050565b6000602082019050818103600083015261170181611565565b9050919050565b600060208201905061171d600083018461159c565b92915050565b6000604082019050611738600083018561159c565b818103602083015261174a8184611491565b90509392505050565b6000604051905081810181811067ffffffffffffffff8211171561177657600080fd5b8060405250919050565b600067ffffffffffffffff82111561179757600080fd5b602082029050602081019050919050565b6000602082019050919050565b6000602082019050919050565b600081519050919050565b600081519050919050565b6000602082019050919050565b6000602082019050919050565b600073ffffffffffffffffffffffffffffffffffffffff82169050919050565b60008115159050919050565b6000819050919050565b6000819050919050565b600073ffffffffffffffffffffffffffffffffffffffff82169050919050565b6000819050919050565b60008190509190505600a265627a7a72305820367374e1995d511dbda39b7c546f162d5e07c58920f2c483f6240c6ee324b8806c6578706572696d656e74616cf50037",
  "source": "pragma solidity ^0.4.24;\r\npragma experimental ABIEncoderV2; // Allow passing struct as argument\r\n\r\n// We have to specify what version of compiler this code will compile with\r\n\r\ncontract BallotContract {\r\n\r\n\r\n    // ~~~~~~~~~~~~~~~~~~~~~~~~~~~~~~~~~~~~~~~~~~~~ Contract Constructor ~~~~~~~~~~~~~~~~~~~~~~~~~~~~~~~~~~~~~~~~~~~~~~ //\r\n\r\n    address owner;                  // The address of the owner. Set in 'Ballot()'\r\n\r\n\r\n\r\n    /*\r\n    * Modifier to only allow the owner to call a function.\r\n    */\r\n    modifier onlyOwner\r\n    {\r\n        require( msg.sender             == owner );\r\n        _;\r\n\r\n    }\r\n\r\n    /*\r\n    *  This function is called *once* at first initialization into the blockchain.\r\n    */\r\n    constructor ()\r\n    {\r\n        owner                   = msg.sender;       // Set the owner to the address creating the contract.\r\n    }\r\n\r\n    function close(bytes32 phrase) onlyOwner public {\r\n        require( keccak256(phrase) == keccak256('close'));\r\n        selfdestruct(owner);\r\n    }\r\n\r\n\r\n    // ~~~~~~~~~~~~~~~~~~~~~~~~~~~~~~~~~~~~~~~~~~~~ Validator ~~~~~~~~~~~~~~~~~~~~~~~~~~~~~~~~~~~~~~~~~~~~~~ //\r\n\r\n    function validTime() private view returns (bool) {\r\n        if ( now > endVotingPhase || now < startVotingPhase)\r\n            return false;\r\n    }\r\n\r\n    function canVote(address voterAddress) private view returns (bool) {\r\n        if (isFinalized == false)       // If the options are not finalized, we cannot vote.\r\n            return false;\r\n\r\n        if (voters[voterAddress].eligibleToVote == false)\r\n            return false;\r\n\r\n        if (voters[voterAddress].isVoted == true) // If the voter has already voted, voter cannot vote anymore\r\n            return false;\r\n        return true;\r\n    }\r\n\r\n    // ~~~~~~~~~~~~~~~~~~~~~~~~~~~~~~~~~~~~~~~~~~~~~~ Ballot Options (Candidate) ~~~~~~~~~~~~~~~~~~~~~~~~~~~~~~~~~~~~~~~~~~~~~~~~~~ //\r\n\r\n\r\n    bytes32  ballotName; // The ballot candidateID.\r\n\r\n    // Time: seconds since 1970-01-01\r\n    uint    startRegPhase;\r\n    uint    endRegPhase;\r\n    uint    startVotingPhase;\r\n    uint    endVotingPhase;\r\n\r\n    // Ballot status\r\n    bool    isFinalized;       // Whether the owner can still add voting options.\r\n    uint    registeredVoterCount;   // Total number of voter addresses registered.\r\n    uint    votedVoterCount;\r\n    uint    fundedVoterCount;\r\n\r\n    //\r\n    bytes32[] candidateIDs;\r\n    mapping (bytes32 => address[]) voteReceived; //map candidateId to array of address of whom has voted for them\r\n\r\n    function setupBallot (bytes32 _ballotName, uint _startVotingPhase, uint _endVotingPhase,\r\n                          uint _startRegPhase, uint _endRegPhase, bytes32[] _candidateIDs) onlyOwner public {\r\n\r\n        require (now < _endRegPhase, 'Ballot setup time has ended!');\r\n        require (isFinalized == false);\r\n\r\n        ballotName = _ballotName;\r\n        startRegPhase = _startRegPhase;\r\n        endRegPhase = _endRegPhase;\r\n        startVotingPhase = _startVotingPhase;\r\n        endVotingPhase = _endVotingPhase;\r\n\r\n        isFinalized = false;\r\n        registeredVoterCount = 0;\r\n        votedVoterCount = 0;\r\n\r\n        addCandidates(_candidateIDs);\r\n    }\r\n\r\n\r\n    function addCandidates(bytes32[] _candidateIDs) onlyOwner public {\r\n        require (now < endRegPhase, 'Ballot setup time has ended!');\r\n        require (isFinalized == false);    // Check we are allowed to add options.\r\n\r\n        candidateIDs = _candidateIDs;\r\n    }\r\n\r\n    /*\r\n    *  Call this once all options have been added, this will stop further changes\r\n    *  and allow votes to be cast.\r\n    *  NOTE: this can only be called by the ballot owner.\r\n    */\r\n    function finalizeBallot(bytes32 phrase) onlyOwner public {\r\n        require(candidateIDs.length > 2);\r\n        require( keccak256(phrase) == keccak256('finalize'));\r\n        require (now < startVotingPhase);\r\n        require (now > startRegPhase);\r\n\r\n        isFinalized = true;    // Stop the addition of any more change.\r\n    }\r\n\r\n    function resetTime(bytes32 phrase) onlyOwner public returns(bytes32, bytes32, bytes32) {\r\n/*        if (keccak256(phrase) == keccak256('startRegPhase')) {\r\n            startRegPhase = 0;\r\n        }\r\n        if (keccak256(phrase) == keccak256('endRegPhase')) {\r\n            endRegPhase = 0;\r\n        }\r\n        if (keccak256(phrase) == keccak256('startVotingPhase')) {\r\n            startVotingPhase = 0;\r\n        }\r\n        if (keccak256(phrase) == keccak256('endVotingPhase')) {\r\n            endVotingPhase = 0;\r\n        }*/\r\n/*        if (keccak256(phrase) == keccak256('startregphase')) {\r\n            startRegPhase = 0;\r\n        }\r\n        if (keccak256(phrase) == keccak256('endRegPhase')) {\r\n            endRegPhase = 0;\r\n        }\r\n        if (keccak256(phrase) == keccak256('startVotingPhase')) {\r\n            startVotingPhase = 0;\r\n        }\r\n        if (keccak256(phrase) == keccak256('endVotingPhase')) {\r\n            endVotingPhase = 0;\r\n        }*/\r\n\r\n        return (keccak256(phrase), phrase, keccak256('startregphase'));\r\n    }\r\n\r\n    // ~~~~~~~~~~~~~~~~~~~~~~~~~~~~~~~~~~~~~~~~~~~~~~~~ Voting Options ~~~~~~~~~~~~~~~~~~~~~~~~~~~~~~~~~~~~~~~~~~~~~~~~ //\r\n\r\n    /*\r\n    *  Structure which represents a single voter.\r\n    */\r\n    struct Voter\r\n    {\r\n        bool eligibleToVote;    // Is this voter allowed to vote?\r\n        bool isVoted;             // State of whether this voter has voted.\r\n        bytes32[] votedFor;          // List candidates' ID this voter voted for.\r\n    }\r\n\r\n    address[] voterAddressList;\r\n    mapping(address => Voter) public voters; // State variable which maps any address to a 'Voter' struct.\r\n\r\n    /*\r\n    *  Allow an address (voter) to vote on this ballot.\r\n    *  NOTE: this can only be called by the ballot owner.\r\n    */\r\n    function giveRightToVote(address _voter) onlyOwner public\r\n    {\r\n        require (now < endRegPhase, 'Ballot setup time has ended!');\r\n        voters[_voter].eligibleToVote = true;\r\n        registeredVoterCount += 1;      // Increment registered voters.\r\n        voterAddressList.push(_voter);\r\n    }\r\n\r\n    /*\r\n    *  Allow an eligible voter to vote for their chosen votingOption.\r\n    *\r\n    *  NOTE: if anything fails during this call we will throw and automatically\r\n    *        revert all changes.\r\n    */\r\n    function voteForCandidate(bytes32 _candidateID) private\r\n    {\r\n        require(validTime());\r\n        require(canVote(msg.sender));// Get the Voter struct for this sender.\r\n\r\n        voters[msg.sender].isVoted = true;\r\n        votedVoterCount += 1;\r\n        voters[msg.sender].votedFor.push(_candidateID); //Add candidateID to list whom voter voted\r\n        voteReceived[_candidateID].push(msg.sender);\r\n    }\r\n\r\n    /*\r\n    *  Allow an eligible voter to vote for a list of candidate\r\n    *  If they have already isVoted, then remove their vote from the previous\r\n    *  'votingOption' and assign it to the new one.\r\n    *\r\n    *  NOTE: if anything fails during this call we will throw and automatically\r\n    *        revert all changes.\r\n    */\r\n    function voteForCandidates(bytes32[] _candidateIDs) public {\r\n        require(validTime());\r\n        require(canVote(msg.sender));\r\n\r\n        for (uint i = 0; i < _candidateIDs.length; i++) {\r\n            voteForCandidate(_candidateIDs[i]);\r\n            //emit VoteFor(msg.sender, _candidateIDs);\r\n        }\r\n    }\r\n\r\n    function validCandidate(bytes32 _candidateID) public view returns (bool) {\r\n        for (uint i = 0; i < candidateIDs.length; i++) {\r\n            if (candidateIDs[i] == _candidateID) {\r\n                return true;\r\n            }\r\n        }\r\n        return false;\r\n    }\r\n\r\n    function hasRightToVote(address voterAddress) public view returns (bool) {\r\n        if (voters[voterAddress].eligibleToVote && voters[voterAddress].isVoted) {\r\n            return true;\r\n        } else {\r\n            return false;\r\n        }\r\n    }\r\n\r\n    // ~~~~~~~~~~~~~~~~~~~~~~~~~~~~~~~~~~~~~~~~~~~~~~ Getter Functions ~~~~~~~~~~~~~~~~~~~~~~~~~~~~~~~~~~~~~~~~~~~~~~~~ //\r\n\r\n    /*\r\n    * Returns the ballots bytes32.\r\n    */\r\n    function getBallotInfo() public returns (\r\n        bytes32, uint, uint, uint, uint, bool, uint, uint\r\n    ) {\r\n        return (\r\n        ballotName,\r\n        startRegPhase,\r\n        endRegPhase,\r\n        startVotingPhase,\r\n        endVotingPhase,\r\n        isFinalized,\r\n        registeredVoterCount,\r\n        votedVoterCount\r\n        );\r\n    }\r\n\r\n    /*\r\n    * Returns the number of candidates.\r\n    */\r\n    function getCandidateLength() public returns (uint)\r\n    {\r\n        return candidateIDs.length;\r\n    }\r\n\r\n    function getCandidateList() public returns (bytes32[]) {\r\n        return candidateIDs;\r\n    }\r\n\r\n    /*    *//*\r\n    * Returns the candidateID of a candidate at a specific index.\r\n    * Throws if index out of bounds.\r\n    *//*\r\n    function getVotingOptionsName(uint _index) returns (bytes32)\r\n    {\r\n        return votingOptions[_index].candidateID;\r\n    }*/\r\n\r\n    /*\r\n    * Returns the number of votes for a candidate at the specified index.\r\n    * Throws if index out of bounds.\r\n    */\r\n    function getCandidateResult(bytes32 _candidateID) public returns (uint, address[])\r\n    {\r\n        return (voteReceived[_candidateID].length, voteReceived[_candidateID]);\r\n    }\r\n\r\n    // Return a list of people who have voted for candidate\r\n\r\n\r\n    /*\r\n    * Returns if the voting options have been finalized.\r\n    */\r\n    function isBallotFinalized() public returns (bool)\r\n    {\r\n        return isFinalized;\r\n    }\r\n\r\n    function getVotedForList(address voterAddress) public returns (bytes32[]) {\r\n        return voters[voterAddress].votedFor;\r\n    }\r\n\r\n    function getVoterAddressList() onlyOwner public  returns (address[]) {\r\n        return voterAddressList;\r\n    }\r\n\r\n\r\n}\r\n",
  "sourcePath": "E:\\Work\\ETH\\EtherVote\\OnlineBallotRegulator\\truffle\\contracts\\BallotContract.sol",
  "compiler": {
    "name": "solc",
    "version": "0.4.24+commit.e67f0147.Emscripten.clang"
  },
  "schemaVersion": "2.0.1",
  "updatedAt": "2018-09-12T09:18:31.691Z"
}