{
  "contractName": "BallotContract",
  "abi": [
    {
      "constant": true,
      "inputs": [
        {
          "name": "",
          "type": "address"
        }
      ],
      "name": "voters",
      "outputs": [
        {
          "name": "eligibleToVote",
          "type": "bool"
        },
        {
          "name": "isVoted",
          "type": "bool"
        }
      ],
      "payable": false,
      "stateMutability": "view",
      "type": "function"
    },
    {
      "inputs": [],
      "payable": false,
      "stateMutability": "nonpayable",
      "type": "constructor"
    },
    {
      "constant": false,
      "inputs": [
        {
          "name": "_ballotName",
          "type": "bytes32"
        },
        {
          "name": "_ballotEndTime",
          "type": "uint256"
        },
        {
          "name": "_ballotStartTime",
          "type": "uint256"
        }
      ],
      "name": "setupBallot",
      "outputs": [],
      "payable": false,
      "stateMutability": "nonpayable",
      "type": "function"
    },
    {
      "constant": false,
      "inputs": [
        {
          "name": "_candidateIDs",
          "type": "bytes32[]"
        }
      ],
      "name": "addCandidate",
      "outputs": [],
      "payable": false,
      "stateMutability": "nonpayable",
      "type": "function"
    },
    {
      "constant": false,
      "inputs": [],
      "name": "finalizeBallot",
      "outputs": [],
      "payable": false,
      "stateMutability": "nonpayable",
      "type": "function"
    },
    {
      "constant": false,
      "inputs": [
        {
          "name": "_voter",
          "type": "address"
        }
      ],
      "name": "giveRightToVote",
      "outputs": [],
      "payable": false,
      "stateMutability": "nonpayable",
      "type": "function"
    },
    {
      "constant": false,
      "inputs": [
        {
          "name": "_candidateIDs",
          "type": "bytes32[]"
        }
      ],
      "name": "voteForCandidates",
      "outputs": [],
      "payable": false,
      "stateMutability": "nonpayable",
      "type": "function"
    },
    {
      "constant": true,
      "inputs": [
        {
          "name": "_candidateID",
          "type": "bytes32"
        }
      ],
      "name": "validCandidate",
      "outputs": [
        {
          "name": "",
          "type": "bool"
        }
      ],
      "payable": false,
      "stateMutability": "view",
      "type": "function"
    },
    {
      "constant": false,
      "inputs": [],
      "name": "getBallotName",
      "outputs": [
        {
          "name": "",
          "type": "bytes32"
        }
      ],
      "payable": false,
      "stateMutability": "nonpayable",
      "type": "function"
    },
    {
      "constant": false,
      "inputs": [],
      "name": "getCandidateLength",
      "outputs": [
        {
          "name": "",
          "type": "uint256"
        }
      ],
      "payable": false,
      "stateMutability": "nonpayable",
      "type": "function"
    },
    {
      "constant": false,
      "inputs": [],
      "name": "getRegisteredVoterCount",
      "outputs": [
        {
          "name": "",
          "type": "uint256"
        }
      ],
      "payable": false,
      "stateMutability": "nonpayable",
      "type": "function"
    },
    {
      "constant": false,
      "inputs": [],
      "name": "getVotedVoterCount",
      "outputs": [
        {
          "name": "",
          "type": "uint256"
        }
      ],
      "payable": false,
      "stateMutability": "nonpayable",
      "type": "function"
    },
    {
      "constant": false,
      "inputs": [
        {
          "name": "_candidateID",
          "type": "bytes32"
        }
      ],
      "name": "getCandidateVoteReceived",
      "outputs": [
        {
          "name": "",
          "type": "uint256"
        }
      ],
      "payable": false,
      "stateMutability": "nonpayable",
      "type": "function"
    },
    {
      "constant": false,
      "inputs": [],
      "name": "getOptionsFinalized",
      "outputs": [
        {
          "name": "",
          "type": "bool"
        }
      ],
      "payable": false,
      "stateMutability": "nonpayable",
      "type": "function"
    },
    {
      "constant": false,
      "inputs": [],
      "name": "getBallotEndTime",
      "outputs": [
        {
          "name": "",
          "type": "uint256"
        }
      ],
      "payable": false,
      "stateMutability": "nonpayable",
      "type": "function"
    },
    {
      "constant": false,
      "inputs": [],
      "name": "getBallotStartTime",
      "outputs": [
        {
          "name": "",
          "type": "uint256"
        }
      ],
      "payable": false,
      "stateMutability": "nonpayable",
      "type": "function"
    }
  ],
  "bytecode": "0x608060405234801561001057600080fd5b50336000806101000a81548173ffffffffffffffffffffffffffffffffffffffff021916908373ffffffffffffffffffffffffffffffffffffffff16021790555060008060146101000a81548160ff021916908315150217905550610e658061007a6000396000f3006080604052600436106100db576000357c0100000000000000000000000000000000000000000000000000000000900463ffffffff1680631e29c11f146100e05780632b8c25041461011d578063392e6678146101485780633986fc4c1461018557806339f1f254146101ae5780635926eaee146101d95780636bb37f721461020457806372a51f811461022f5780639e7b8d611461025a578063a3ec138d14610283578063d4f8ecb8146102c1578063d638cb5d146102d8578063e17b240a14610303578063e465a68f1461032c578063f7522a8314610355575b600080fd5b3480156100ec57600080fd5b5061010760048036036101029190810190610c63565b610380565b6040516101149190610d67565b60405180910390f35b34801561012957600080fd5b506101326103a5565b60405161013f9190610d67565b60405180910390f35b34801561015457600080fd5b5061016f600480360361016a9190810190610c63565b6103af565b60405161017c9190610d08565b60405180910390f35b34801561019157600080fd5b506101ac60048036036101a79190810190610c22565b61040e565b005b3480156101ba57600080fd5b506101c36104dd565b6040516101d09190610d08565b60405180910390f35b3480156101e557600080fd5b506101ee6104f3565b6040516101fb9190610d67565b60405180910390f35b34801561021057600080fd5b506102196104fd565b6040516102269190610d4c565b60405180910390f35b34801561023b57600080fd5b50610244610507565b6040516102519190610d67565b60405180910390f35b34801561026657600080fd5b50610281600480360361027c9190810190610bf9565b610511565b005b34801561028f57600080fd5b506102aa60048036036102a59190810190610bf9565b6105ec565b6040516102b8929190610d23565b60405180910390f35b3480156102cd57600080fd5b506102d661062a565b005b3480156102e457600080fd5b506102ed6106c7565b6040516102fa9190610d67565b60405180910390f35b34801561030f57600080fd5b5061032a60048036036103259190810190610c22565b6106d1565b005b34801561033857600080fd5b50610353600480360361034e9190810190610c8c565b61080e565b005b34801561036157600080fd5b5061036a61083c565b6040516103779190610d67565b60405180910390f35b6000600660008360001916600019168152602001908152602001600020549050919050565b6000600254905090565b600080600090505b6007805490508110156104035782600019166007828154811015156103d857fe5b90600052602060002001546000191614156103f65760019150610408565b80806001019150506103b7565b600091505b50919050565b60008060009054906101000a900473ffffffffffffffffffffffffffffffffffffffff1673ffffffffffffffffffffffffffffffffffffffff163373ffffffffffffffffffffffffffffffffffffffff161415151561046c57600080fd5b6003544211151561047c57600080fd5b60011515600060149054906101000a900460ff16151514151561049e57600080fd5b600090505b81518110156104d9576104cc82828151811015156104bd57fe5b90602001906020020151610849565b80806001019150506104a3565b5050565b60008060149054906101000a900460ff16905090565b6000600554905090565b6000600154905090565b6000600354905090565b6000809054906101000a900473ffffffffffffffffffffffffffffffffffffffff1673ffffffffffffffffffffffffffffffffffffffff163373ffffffffffffffffffffffffffffffffffffffff161415151561056d57600080fd5b6003544211151561057d57600080fd5b6001600860008373ffffffffffffffffffffffffffffffffffffffff1673ffffffffffffffffffffffffffffffffffffffff16815260200190815260200160002060000160006101000a81548160ff021916908315150217905550600160026000828254019250508190555050565b60086020528060005260406000206000915090508060000160009054906101000a900460ff16908060000160019054906101000a900460ff16905082565b6000809054906101000a900473ffffffffffffffffffffffffffffffffffffffff1673ffffffffffffffffffffffffffffffffffffffff163373ffffffffffffffffffffffffffffffffffffffff161415151561068657600080fd5b6003544211151561069657600080fd5b60026007805490501015156106aa57600080fd5b6001600060146101000a81548160ff021916908315150217905550565b6000600454905090565b6106d9610b12565b6000600860003373ffffffffffffffffffffffffffffffffffffffff1673ffffffffffffffffffffffffffffffffffffffff168152602001908152602001600020606060405190810160405290816000820160009054906101000a900460ff161515151581526020016000820160019054906101000a900460ff16151515158152602001600182018054806020026020016040519081016040528092919081815260200182805480156107af57602002820191906000526020600020905b81546000191681526020019060010190808311610797575b50505050508152505091506107c38261092d565b15156107ce57600080fd5b600090505b8251811015610809576107fc83828151811015156107ed57fe5b9060200190602002015161098d565b80806001019150506107d3565b505050565b8260018160001916905550816003819055508060048190555060006002819055506000600581905550505050565b6000600780549050905090565b6000809054906101000a900473ffffffffffffffffffffffffffffffffffffffff1673ffffffffffffffffffffffffffffffffffffffff163373ffffffffffffffffffffffffffffffffffffffff16141515156108a557600080fd5b600354421115156108b557600080fd5b60011515600060149054906101000a900460ff1615151415156108d757600080fd5b600781908060018154018082558091505090600182039060005260206000200160009091929091909150906000191690555060006006600083600019166000191681526020019081526020016000208190555050565b6000801515600060149054906101000a900460ff16151514156109535760009050610988565b6000151582600001511515141561096d5760009050610988565b600115158260200151151514156109875760009050610988565b5b919050565b6000600860003373ffffffffffffffffffffffffffffffffffffffff1673ffffffffffffffffffffffffffffffffffffffff1681526020019081526020016000209050610a7781606060405190810160405290816000820160009054906101000a900460ff161515151581526020016000820160019054906101000a900460ff1615151515815260200160018201805480602002602001604051908101604052809291908181526020018280548015610a6957602002820191906000526020600020905b81546000191681526020019060010190808311610a51575b50505050508152505061092d565b1515610a8257600080fd5b60018160000160016101000a81548160ff0219169083151502179055506001600560008282540192505081905550806001018290806001815401808255809150509060018203906000526020600020016000909192909190915090600019169055506001600660008460001916600019168152602001908152602001600020600082825401925050819055505050565b606060405190810160405280600015158152602001600015158152602001606081525090565b6000610b448235610df7565b905092915050565b600082601f8301121515610b5f57600080fd5b8135610b72610b6d82610daf565b610d82565b91508181835260208401935060208101905083856020840282011115610b9757600080fd5b60005b83811015610bc75781610bad8882610bd1565b845260208401935060208301925050600181019050610b9a565b5050505092915050565b6000610bdd8235610e17565b905092915050565b6000610bf18235610e21565b905092915050565b600060208284031215610c0b57600080fd5b6000610c1984828501610b38565b91505092915050565b600060208284031215610c3457600080fd5b600082013567ffffffffffffffff811115610c4e57600080fd5b610c5a84828501610b4c565b91505092915050565b600060208284031215610c7557600080fd5b6000610c8384828501610bd1565b91505092915050565b600080600060608486031215610ca157600080fd5b6000610caf86828701610bd1565b9350506020610cc086828701610be5565b9250506040610cd186828701610be5565b9150509250925092565b610ce481610dd7565b82525050565b610cf381610de3565b82525050565b610d0281610ded565b82525050565b6000602082019050610d1d6000830184610cdb565b92915050565b6000604082019050610d386000830185610cdb565b610d456020830184610cdb565b9392505050565b6000602082019050610d616000830184610cea565b92915050565b6000602082019050610d7c6000830184610cf9565b92915050565b6000604051905081810181811067ffffffffffffffff82111715610da557600080fd5b8060405250919050565b600067ffffffffffffffff821115610dc657600080fd5b602082029050602081019050919050565b60008115159050919050565b6000819050919050565b6000819050919050565b600073ffffffffffffffffffffffffffffffffffffffff82169050919050565b6000819050919050565b60008190509190505600a265627a7a7230582016ef726fc2db90371e946c813eeab25403c54c1bf9a62de7ed573c8b1b958e0b6c6578706572696d656e74616cf50037",
  "source": "pragma solidity ^0.4.24;\r\npragma experimental ABIEncoderV2; // Allow passing struct as argument\r\n\r\n// We have to specify what version of compiler this code will compile with\r\n\r\ncontract BallotContract {\r\n\r\n\r\n    // ~~~~~~~~~~~~~~~~~~~~~~~~~~~~~~~~~~~~~~~~~~~~ Contract Constructor ~~~~~~~~~~~~~~~~~~~~~~~~~~~~~~~~~~~~~~~~~~~~~~ //\r\n\r\n    address owner;                  // The address of the owner. Set in 'Ballot()'\r\n    bool    optionsFinalized;       // Whether the owner can still add voting options.\r\n\r\n    /*\r\n    * Modifier to only allow the owner to call a function.\r\n    */\r\n    modifier onlyOwner\r\n    {\r\n        require( msg.sender != owner );\r\n        _;\r\n\r\n    }\r\n\r\n    /*\r\n    *  This function is called *once* at first initialization into the blockchain.\r\n    */\r\n    constructor ()\r\n    {\r\n        owner                   = msg.sender;       // Set the owner to the address creating the contract.\r\n        optionsFinalized        = false;            // Initially false as we need to add some choices.\r\n    }\r\n\r\n    // ~~~~~~~~~~~~~~~~~~~~~~~~~~~~~~~~~~~~~~~~~~~~ Validator ~~~~~~~~~~~~~~~~~~~~~~~~~~~~~~~~~~~~~~~~~~~~~~ //\r\n\r\n    function validTime() private view returns (bool) {\r\n        if ( now > ballotEndTime || now < ballotStartTime)\r\n            return false;\r\n    }\r\n\r\n    function canVote(Voter _voter) private view returns (bool) {\r\n        if (optionsFinalized == false)       // If the options are not finalized, we cannot vote.\r\n            return false;\r\n\r\n        if (_voter.eligibleToVote == false)\r\n            return false;\r\n\r\n        if (_voter.isVoted == true) // If the voter has already voted, voter cannot vote anymore\r\n            return false;\r\n    }\r\n\r\n    // ~~~~~~~~~~~~~~~~~~~~~~~~~~~~~~~~~~~~~~~~~~~~~~ Ballot Options (Candidate) ~~~~~~~~~~~~~~~~~~~~~~~~~~~~~~~~~~~~~~~~~~~~~~~~~~ //\r\n\r\n    bytes32  ballotName;             // The ballot candidateID.\r\n    uint    registeredVoterCount;   // Total number of voter addresses registered.\r\n    uint    ballotEndTime;          // End time for ballot after which no changes can be made. (seconds since 1970-01-01)\r\n    uint    ballotStartTime;        // Start time for ballot before which voters can not vote. (seconds since 1970-01-01)\r\n    uint    votedVoterCount;\r\n\r\n    mapping (bytes32 => uint) voteReceived; //Map candidateId to the number of vote they received\r\n    bytes32[] candidateIDs; // dynamically sized array IDs\r\n\r\n    function setupBallot (bytes32 _ballotName, uint _ballotEndTime, uint _ballotStartTime) public {\r\n        ballotName = _ballotName;\r\n        ballotEndTime = _ballotEndTime;\r\n        ballotStartTime = _ballotStartTime;\r\n        registeredVoterCount = 0;\r\n        votedVoterCount = 0;\r\n    }\r\n\r\n    /*\r\n    *  Add a new candidate for this ballot.\r\n    *  NOTE: this can only be called by the ballot owner.\r\n    */\r\n    function addCandidate(bytes32 _candidateID) onlyOwner private\r\n    {\r\n        require ( now > ballotEndTime);\r\n        require (optionsFinalized == true);    // Check we are allowed to add options.\r\n\r\n        candidateIDs.push(_candidateID);\r\n        voteReceived[_candidateID] = 0;\r\n    }\r\n\r\n    function addCandidate(bytes32[] _candidateIDs) onlyOwner {\r\n        require ( now > ballotEndTime);\r\n        require (optionsFinalized == true);    // Check we are allowed to add options.\r\n\r\n        for (uint i = 0; i < _candidateIDs.length; i++) {\r\n            addCandidate(_candidateIDs[i]);\r\n        }\r\n    }\r\n\r\n    /*\r\n    *  Call this once all options have been added, this will stop further changes\r\n    *  and allow votes to be cast.\r\n    *  NOTE: this can only be called by the ballot owner.\r\n    */\r\n    function finalizeBallot() onlyOwner public\r\n    {\r\n        require(now > ballotEndTime);\r\n        require(candidateIDs.length < 2);\r\n\r\n        optionsFinalized = true;    // Stop the addition of any more change.\r\n    }\r\n\r\n    // ~~~~~~~~~~~~~~~~~~~~~~~~~~~~~~~~~~~~~~~~~~~~~~~~ Voting Options ~~~~~~~~~~~~~~~~~~~~~~~~~~~~~~~~~~~~~~~~~~~~~~~~ //\r\n\r\n    /*\r\n    *  Structure which represents a single voter.\r\n    */\r\n    struct Voter\r\n    {\r\n        bool eligibleToVote;    // Is this voter allowed to vote?\r\n        bool isVoted;             // State of whether this voter has voted.\r\n        bytes32[] votedFor;          // List candidates' ID this voter voted for.\r\n    }\r\n    mapping(address => Voter) public voters; // State variable which maps any address to a 'Voter' struct.\r\n\r\n    /*\r\n    *  Allow an address (voter) to vote on this ballot.\r\n    *  NOTE: this can only be called by the ballot owner.\r\n    */\r\n    function giveRightToVote(address _voter) onlyOwner\r\n    {\r\n        require(now > ballotEndTime);\r\n        voters[_voter].eligibleToVote = true;\r\n        registeredVoterCount += 1;      // Increment registered voters.\r\n    }\r\n\r\n\r\n\r\n    /*\r\n    *  Allow an eligible voter to vote for their chosen votingOption.\r\n    *\r\n    *  NOTE: if anything fails during this call we will throw and automatically\r\n    *        revert all changes.\r\n    */\r\n    function voteForCandidate(bytes32 _candidateID) private\r\n    {\r\n        Voter storage voter = voters[msg.sender];    // Get the Voter struct for this sender.\r\n\r\n        require(canVote(voter));\r\n\r\n        voter.isVoted = true;\r\n        votedVoterCount += 1;\r\n        voter.votedFor.push(_candidateID);\r\n        voteReceived[_candidateID] += 1;\r\n    }\r\n\r\n    /*\r\n    *  Allow an eligible voter to vote for a list of candidate\r\n    *  If they have already isVoted, then remove their vote from the previous\r\n    *  'votingOption' and assign it to the new one.\r\n    *\r\n    *  NOTE: if anything fails during this call we will throw and automatically\r\n    *        revert all changes.\r\n    */\r\n    function voteForCandidates(bytes32[] _candidateIDs) public {\r\n        Voter memory voter = voters[msg.sender];    // Get the Voter struct for this sender.\r\n\r\n        require(canVote(voter));\r\n\r\n        for (uint i = 0; i < _candidateIDs.length; i++) {\r\n            voteForCandidate(_candidateIDs[i]);\r\n            //emit VoteFor(msg.sender, _candidateIDs);\r\n        }\r\n    }\r\n\r\n    function validCandidate(bytes32 _candidateID) public view returns (bool) {\r\n        for (uint i = 0; i < candidateIDs.length; i++) {\r\n            if (candidateIDs[i] == _candidateID) {\r\n                return true;\r\n            }\r\n        }\r\n        return false;\r\n    }\r\n\r\n    // ~~~~~~~~~~~~~~~~~~~~~~~~~~~~~~~~~~~~~~~~~~~~~~ Getter Functions ~~~~~~~~~~~~~~~~~~~~~~~~~~~~~~~~~~~~~~~~~~~~~~~~ //\r\n\r\n    /*\r\n    * Returns the ballots bytes32.\r\n    */\r\n    function getBallotName() returns (bytes32)\r\n    {\r\n        return ballotName;\r\n    }\r\n\r\n    /*\r\n    * Returns the number of candidates.\r\n    */\r\n    function getCandidateLength() returns (uint)\r\n    {\r\n        return candidateIDs.length;\r\n    }\r\n\r\n    /*\r\n    * Returns the count of registered voter addresses.\r\n    */\r\n    function getRegisteredVoterCount() returns (uint)\r\n    {\r\n        return registeredVoterCount;\r\n    }\r\n\r\n    /*\r\n    * Returns the count of voted voter addresses.\r\n    */\r\n    function getVotedVoterCount() returns (uint)\r\n    {\r\n        return votedVoterCount;\r\n    }\r\n\r\n    /*    *//*\r\n    * Returns the candidateID of a candidate at a specific index.\r\n    * Throws if index out of bounds.\r\n    *//*\r\n    function getVotingOptionsName(uint _index) returns (bytes32)\r\n    {\r\n        return votingOptions[_index].candidateID;\r\n    }*/\r\n\r\n    /*\r\n    * Returns the number of votes for a candidate at the specified index.\r\n    * Throws if index out of bounds.\r\n    */\r\n    function getCandidateVoteReceived(bytes32 _candidateID) returns (uint)\r\n    {\r\n        return voteReceived[_candidateID];\r\n    }\r\n\r\n    /*\r\n    * Returns if the voting options have been finalized.\r\n    */\r\n    function getOptionsFinalized() returns (bool)\r\n    {\r\n        return optionsFinalized;\r\n    }\r\n\r\n    /*\r\n    * Returns the end time of the ballot in seconds since epoch.\r\n    */\r\n    function getBallotEndTime() returns (uint)\r\n    {\r\n        return ballotEndTime;\r\n    }\r\n\r\n    function getBallotStartTime() returns (uint)\r\n    {\r\n        return ballotStartTime;\r\n    }\r\n\r\n}\r\n",
  "sourcePath": "C:\\Users\\khoic\\Desktop\\Thesis\\Ether-Vote-OBR\\truffle\\contracts\\BallotContract.sol",
  "compiler": {
    "name": "solc",
    "version": "0.4.24+commit.e67f0147.Emscripten.clang"
  },
  "schemaVersion": "2.0.1",
  "updatedAt": "2018-08-27T12:38:34.378Z"
}