{
  "contractName": "BallotContract",
  "abi": [
    {
      "constant": true,
      "inputs": [
        {
          "name": "",
          "type": "address"
        }
      ],
      "name": "voters",
      "outputs": [
        {
          "name": "eligibleToVote",
          "type": "bool"
        },
        {
          "name": "isVoted",
          "type": "bool"
        },
        {
          "name": "isFunded",
          "type": "bool"
        }
      ],
      "payable": false,
      "stateMutability": "view",
      "type": "function"
    },
    {
      "inputs": [],
      "payable": false,
      "stateMutability": "nonpayable",
      "type": "constructor"
    },
    {
      "payable": true,
      "stateMutability": "payable",
      "type": "fallback"
    },
    {
      "constant": false,
      "inputs": [
        {
          "name": "phrase",
          "type": "bytes32"
        }
      ],
      "name": "close",
      "outputs": [],
      "payable": false,
      "stateMutability": "nonpayable",
      "type": "function"
    },
    {
      "constant": false,
      "inputs": [
        {
          "name": "phrase",
          "type": "bytes32"
        }
      ],
      "name": "claimStoredAmount",
      "outputs": [],
      "payable": false,
      "stateMutability": "nonpayable",
      "type": "function"
    },
    {
      "constant": false,
      "inputs": [
        {
          "name": "_ballotName",
          "type": "bytes32"
        },
        {
          "name": "_startVotingPhase",
          "type": "uint256"
        },
        {
          "name": "_endVotingPhase",
          "type": "uint256"
        },
        {
          "name": "_startRegPhase",
          "type": "uint256"
        },
        {
          "name": "_endRegPhase",
          "type": "uint256"
        },
        {
          "name": "_candidateIDs",
          "type": "bytes32[]"
        }
      ],
      "name": "setupBallot",
      "outputs": [],
      "payable": false,
      "stateMutability": "nonpayable",
      "type": "function"
    },
    {
      "constant": false,
      "inputs": [
        {
          "name": "_amount",
          "type": "uint256"
        }
      ],
      "name": "setTransferAmount",
      "outputs": [],
      "payable": false,
      "stateMutability": "nonpayable",
      "type": "function"
    },
    {
      "constant": false,
      "inputs": [
        {
          "name": "_candidateIDs",
          "type": "bytes32[]"
        }
      ],
      "name": "addCandidates",
      "outputs": [],
      "payable": false,
      "stateMutability": "nonpayable",
      "type": "function"
    },
    {
      "constant": false,
      "inputs": [
        {
          "name": "phrase",
          "type": "bytes32"
        }
      ],
      "name": "finalizeBallot",
      "outputs": [],
      "payable": false,
      "stateMutability": "nonpayable",
      "type": "function"
    },
    {
      "constant": false,
      "inputs": [
        {
          "name": "phrase",
          "type": "bytes32"
        }
      ],
      "name": "resetTime",
      "outputs": [
        {
          "name": "",
          "type": "bool"
        }
      ],
      "payable": false,
      "stateMutability": "nonpayable",
      "type": "function"
    },
    {
      "constant": false,
      "inputs": [
        {
          "name": "_voter",
          "type": "address"
        }
      ],
      "name": "giveRightToVote",
      "outputs": [],
      "payable": false,
      "stateMutability": "nonpayable",
      "type": "function"
    },
    {
      "constant": false,
      "inputs": [],
      "name": "claimFund",
      "outputs": [],
      "payable": false,
      "stateMutability": "nonpayable",
      "type": "function"
    },
    {
      "constant": false,
      "inputs": [
        {
          "name": "_candidateIDs",
          "type": "bytes32[]"
        }
      ],
      "name": "voteForCandidates",
      "outputs": [],
      "payable": false,
      "stateMutability": "nonpayable",
      "type": "function"
    },
    {
      "constant": true,
      "inputs": [
        {
          "name": "_candidateID",
          "type": "bytes32"
        }
      ],
      "name": "validCandidate",
      "outputs": [
        {
          "name": "",
          "type": "bool"
        }
      ],
      "payable": false,
      "stateMutability": "view",
      "type": "function"
    },
    {
      "constant": true,
      "inputs": [
        {
          "name": "voterAddress",
          "type": "address"
        }
      ],
      "name": "hasRightToVote",
      "outputs": [
        {
          "name": "",
          "type": "bool"
        }
      ],
      "payable": false,
      "stateMutability": "view",
      "type": "function"
    },
    {
      "constant": false,
      "inputs": [],
      "name": "getBallotInfo",
      "outputs": [
        {
          "name": "",
          "type": "bytes32"
        },
        {
          "name": "",
          "type": "uint256"
        },
        {
          "name": "",
          "type": "uint256"
        },
        {
          "name": "",
          "type": "uint256"
        },
        {
          "name": "",
          "type": "uint256"
        },
        {
          "name": "",
          "type": "bool"
        },
        {
          "name": "",
          "type": "uint256"
        },
        {
          "name": "",
          "type": "uint256"
        },
        {
          "name": "",
          "type": "uint256"
        },
        {
          "name": "",
          "type": "uint256"
        }
      ],
      "payable": false,
      "stateMutability": "nonpayable",
      "type": "function"
    },
    {
      "constant": false,
      "inputs": [],
      "name": "getCandidateLength",
      "outputs": [
        {
          "name": "",
          "type": "uint256"
        }
      ],
      "payable": false,
      "stateMutability": "nonpayable",
      "type": "function"
    },
    {
      "constant": false,
      "inputs": [],
      "name": "getCandidateList",
      "outputs": [
        {
          "name": "",
          "type": "bytes32[]"
        }
      ],
      "payable": false,
      "stateMutability": "nonpayable",
      "type": "function"
    },
    {
      "constant": false,
      "inputs": [
        {
          "name": "_candidateID",
          "type": "bytes32"
        }
      ],
      "name": "getCandidateResult",
      "outputs": [
        {
          "name": "",
          "type": "uint256"
        },
        {
          "name": "",
          "type": "address[]"
        }
      ],
      "payable": false,
      "stateMutability": "nonpayable",
      "type": "function"
    },
    {
      "constant": false,
      "inputs": [],
      "name": "isBallotFinalized",
      "outputs": [
        {
          "name": "",
          "type": "bool"
        }
      ],
      "payable": false,
      "stateMutability": "nonpayable",
      "type": "function"
    },
    {
      "constant": false,
      "inputs": [
        {
          "name": "voterAddress",
          "type": "address"
        }
      ],
      "name": "getVotedForList",
      "outputs": [
        {
          "name": "",
          "type": "bytes32[]"
        }
      ],
      "payable": false,
      "stateMutability": "nonpayable",
      "type": "function"
    },
    {
      "constant": false,
      "inputs": [],
      "name": "getVoterAddressList",
      "outputs": [
        {
          "name": "",
          "type": "address[]"
        }
      ],
      "payable": false,
      "stateMutability": "nonpayable",
      "type": "function"
    }
  ],
  "bytecode": "0x608060405234801561001057600080fd5b50336000806101000a81548173ffffffffffffffffffffffffffffffffffffffff021916908373ffffffffffffffffffffffffffffffffffffffff160217905550611eeb806100606000396000f300608060405260043610610112576000357c0100000000000000000000000000000000000000000000000000000000900463ffffffff168063392e66781461011b57806339c79e0c146101585780633bdcb71e14610181578063431f96ac146101ac578063458b6474146101e95780635072b084146102275780635ef955dc1461023e57806365c93769146102675780636eab06c4146102a457806381c82233146102cd5780639098ed15146102f65780639e7b8d611461031f578063a3ec138d14610348578063c623f91014610387578063dbcb6d47146103b0578063e17b240a146103db578063eeaa17a514610404578063f7522a8314610441578063f767b1ca1461046c578063fdbc4006146104a0575b34600181905550005b34801561012757600080fd5b50610142600480360361013d91908101906119e5565b6104cb565b60405161014f9190611c45565b60405180910390f35b34801561016457600080fd5b5061017f600480360361017a91908101906119e5565b61052a565b005b34801561018d57600080fd5b506101966106aa565b6040516101a39190611c45565b60405180910390f35b3480156101b857600080fd5b506101d360048036036101ce91908101906119e5565b6106c1565b6040516101e09190611c45565b60405180910390f35b3480156101f557600080fd5b50610210600480360361020b91908101906119e5565b610956565b60405161021e929190611d6e565b60405180910390f35b34801561023357600080fd5b5061023c610a25565b005b34801561024a57600080fd5b50610265600480360361026091908101906119e5565b610bc2565b005b34801561027357600080fd5b5061028e6004803603610289919081019061197b565b610d1b565b60405161029b9190611c45565b60405180910390f35b3480156102b057600080fd5b506102cb60048036036102c691908101906119a4565b610ddd565b005b3480156102d957600080fd5b506102f460048036036102ef9190810190611aaf565b610eba565b005b34801561030257600080fd5b5061031d60048036036103189190810190611a0e565b610eca565b005b34801561032b57600080fd5b506103466004803603610341919081019061197b565b611006565b005b34801561035457600080fd5b5061036f600480360361036a919081019061197b565b61117c565b60405161037e93929190611c60565b60405180910390f35b34801561039357600080fd5b506103ae60048036036103a991908101906119e5565b6111cd565b005b3480156103bc57600080fd5b506103c56112ea565b6040516103d29190611c01565b60405180910390f35b3480156103e757600080fd5b5061040260048036036103fd91908101906119a4565b6113d3565b005b34801561041057600080fd5b5061042b6004803603610426919081019061197b565b61143b565b6040516104389190611c23565b60405180910390f35b34801561044d57600080fd5b506104566114d9565b6040516104639190611d53565b60405180910390f35b34801561047857600080fd5b506104816114e6565b6040516104979a99989796959493929190611c97565b60405180910390f35b3480156104ac57600080fd5b506104b5611540565b6040516104c29190611c23565b60405180910390f35b600080600090505b600c8054905081101561051f578260001916600c828154811015156104f457fe5b90600052602060002001546000191614156105125760019150610524565b80806001019150506104d3565b600091505b50919050565b6000809054906101000a900473ffffffffffffffffffffffffffffffffffffffff1673ffffffffffffffffffffffffffffffffffffffff163373ffffffffffffffffffffffffffffffffffffffff1614151561058557600080fd5b7f636c6f7365000000000000000000000000000000000000000000000000000000604051808260001916600019168152602001915050604051809103902060001916816040518082600019166000191681526020019150506040518091039020600019161415156105f557600080fd5b600060015411151561060657600080fd5b6000809054906101000a900473ffffffffffffffffffffffffffffffffffffffff1673ffffffffffffffffffffffffffffffffffffffff166108fc6001549081150290604051600060405180830381858888f1935050505015801561066f573d6000803e3d6000fd5b506000809054906101000a900473ffffffffffffffffffffffffffffffffffffffff1673ffffffffffffffffffffffffffffffffffffffff16ff5b6000600760009054906101000a900460ff16905090565b60008060009054906101000a900473ffffffffffffffffffffffffffffffffffffffff1673ffffffffffffffffffffffffffffffffffffffff163373ffffffffffffffffffffffffffffffffffffffff1614151561071e57600080fd5b7f73746172745265675068617365000000000000000000000000000000000000006040518082600019166000191681526020019150506040518091039020600019168260405180826000191660001916815260200191505060405180910390206000191614156107915760006003819055505b7f656e6452656750686173650000000000000000000000000000000000000000006040518082600019166000191681526020019150506040518091039020600019168260405180826000191660001916815260200191505060405180910390206000191614156108045760006004819055505b7f7374617274566f74696e675068617365000000000000000000000000000000006040518082600019166000191681526020019150506040518091039020600019168260405180826000191660001916815260200191505060405180910390206000191614156108775760006005819055505b7f656e64566f74696e6750686173650000000000000000000000000000000000006040518082600019166000191681526020019150506040518091039020600019168260405180826000191660001916815260200191505060405180910390206000191614156108ea5760006006819055505b7f737461727452656750686173650000000000000000000000000000000000000060405180826000191660001916815260200191505060405180910390206000191682604051808260001916600019168152602001915050604051809103902060001916149050919050565b60006060600d6000846000191660001916815260200190815260200160002080549050600d6000856000191660001916815260200190815260200160002080805480602002602001604051908101604052809291908181526020018280548015610a1557602002820191906000526020600020905b8160009054906101000a900473ffffffffffffffffffffffffffffffffffffffff1673ffffffffffffffffffffffffffffffffffffffff16815260200190600101908083116109cb575b5050505050905091509150915091565b6000339050600f60008273ffffffffffffffffffffffffffffffffffffffff1673ffffffffffffffffffffffffffffffffffffffff16815260200190815260200160002060000160009054906101000a900460ff161515610a8557600080fd5b6001543073ffffffffffffffffffffffffffffffffffffffff163110151515610aad57600080fd5b600f60008273ffffffffffffffffffffffffffffffffffffffff1673ffffffffffffffffffffffffffffffffffffffff16815260200190815260200160002060000160029054906101000a900460ff16151515610b0957600080fd5b6001600f60008373ffffffffffffffffffffffffffffffffffffffff1673ffffffffffffffffffffffffffffffffffffffff16815260200190815260200160002060000160026101000a81548160ff021916908315150217905550600b546001600082825403925050819055508073ffffffffffffffffffffffffffffffffffffffff166108fc600b549081150290604051600060405180830381858888f19350505050158015610bbe573d6000803e3d6000fd5b5050565b6000809054906101000a900473ffffffffffffffffffffffffffffffffffffffff1673ffffffffffffffffffffffffffffffffffffffff163373ffffffffffffffffffffffffffffffffffffffff16141515610c1d57600080fd5b60065442111515610c2d57600080fd5b6000600154111515610c3e57600080fd5b7f636c61696d00000000000000000000000000000000000000000000000000000060405180826000191660001916815260200191505060405180910390206000191681604051808260001916600019168152602001915050604051809103902060001916141515610cae57600080fd5b6000809054906101000a900473ffffffffffffffffffffffffffffffffffffffff1673ffffffffffffffffffffffffffffffffffffffff166108fc6001549081150290604051600060405180830381858888f19350505050158015610d17573d6000803e3d6000fd5b5050565b6000600f60008373ffffffffffffffffffffffffffffffffffffffff1673ffffffffffffffffffffffffffffffffffffffff16815260200190815260200160002060000160009054906101000a900460ff168015610dc55750600f60008373ffffffffffffffffffffffffffffffffffffffff1673ffffffffffffffffffffffffffffffffffffffff16815260200190815260200160002060000160019054906101000a900460ff165b15610dd35760019050610dd8565b600090505b919050565b6000809054906101000a900473ffffffffffffffffffffffffffffffffffffffff1673ffffffffffffffffffffffffffffffffffffffff163373ffffffffffffffffffffffffffffffffffffffff16141515610e3857600080fd5b60045442101515610e7e576040517f08c379a0000000000000000000000000000000000000000000000000000000008152600401610e7590611d33565b60405180910390fd5b60001515600760009054906101000a900460ff161515141515610ea057600080fd5b80600c9080519060200190610eb6929190611842565b5050565b633b9aca008102600b8190555050565b6000809054906101000a900473ffffffffffffffffffffffffffffffffffffffff1673ffffffffffffffffffffffffffffffffffffffff163373ffffffffffffffffffffffffffffffffffffffff16141515610f2557600080fd5b8142101515610f69576040517f08c379a0000000000000000000000000000000000000000000000000000000008152600401610f6090611d33565b60405180910390fd5b60001515600760009054906101000a900460ff161515141515610f8b57600080fd5b8560028160001916905550826003819055508160048190555084600581905550836006819055506000600760006101000a81548160ff021916908315150217905550600060088190555060006009819055506000600a8190555060006001819055506000600b81905550610ffe81610ddd565b505050505050565b6000809054906101000a900473ffffffffffffffffffffffffffffffffffffffff1673ffffffffffffffffffffffffffffffffffffffff163373ffffffffffffffffffffffffffffffffffffffff1614151561106157600080fd5b600454421015156110a7576040517f08c379a000000000000000000000000000000000000000000000000000000000815260040161109e90611d33565b60405180910390fd5b6001600f60008373ffffffffffffffffffffffffffffffffffffffff1673ffffffffffffffffffffffffffffffffffffffff16815260200190815260200160002060000160006101000a81548160ff0219169083151502179055506001600860008282540192505081905550600e8190806001815401808255809150509060018203906000526020600020016000909192909190916101000a81548173ffffffffffffffffffffffffffffffffffffffff021916908373ffffffffffffffffffffffffffffffffffffffff1602179055505050565b600f6020528060005260406000206000915090508060000160009054906101000a900460ff16908060000160019054906101000a900460ff16908060000160029054906101000a900460ff16905083565b6000809054906101000a900473ffffffffffffffffffffffffffffffffffffffff1673ffffffffffffffffffffffffffffffffffffffff163373ffffffffffffffffffffffffffffffffffffffff1614151561122857600080fd5b6002600c8054905011151561123c57600080fd5b7f66696e616c697a65000000000000000000000000000000000000000000000000604051808260001916600019168152602001915050604051809103902060001916816040518082600019166000191681526020019150506040518091039020600019161415156112ac57600080fd5b600554421015156112bc57600080fd5b600354421115156112cc57600080fd5b6001600760006101000a81548160ff02191690831515021790555050565b60606000809054906101000a900473ffffffffffffffffffffffffffffffffffffffff1673ffffffffffffffffffffffffffffffffffffffff163373ffffffffffffffffffffffffffffffffffffffff1614151561134757600080fd5b600e8054806020026020016040519081016040528092919081815260200182805480156113c957602002820191906000526020600020905b8160009054906101000a900473ffffffffffffffffffffffffffffffffffffffff1673ffffffffffffffffffffffffffffffffffffffff168152602001906001019080831161137f575b5050505050905090565b60006113dd61159c565b15156113e857600080fd5b6113f1336115c1565b15156113fc57600080fd5b600090505b81518110156114375761142a828281518110151561141b57fe5b906020019060200201516116bb565b8080600101915050611401565b5050565b6060600f60008373ffffffffffffffffffffffffffffffffffffffff1673ffffffffffffffffffffffffffffffffffffffff1681526020019081526020016000206001018054806020026020016040519081016040528092919081815260200182805480156114cd57602002820191906000526020600020905b815460001916815260200190600101908083116114b5575b50505050509050919050565b6000600c80549050905090565b600080600080600080600080600080600254600354600454600554600654600760009054906101000a900460ff16600854600954600154600a54995099509950995099509950995099509950995090919293949596979899565b6060600c80548060200260200160405190810160405280929190818152602001828054801561159257602002820191906000526020600020905b8154600019168152602001906001019080831161157a575b5050505050905090565b60006006544211806115af575060055442105b156115bd57600090506115be565b5b90565b6000801515600760009054906101000a900460ff16151514156115e757600090506116b6565b60001515600f60008473ffffffffffffffffffffffffffffffffffffffff1673ffffffffffffffffffffffffffffffffffffffff16815260200190815260200160002060000160009054906101000a900460ff161515141561164c57600090506116b6565b60011515600f60008473ffffffffffffffffffffffffffffffffffffffff1673ffffffffffffffffffffffffffffffffffffffff16815260200190815260200160002060000160019054906101000a900460ff16151514156116b157600090506116b6565b600190505b919050565b6116c361159c565b15156116ce57600080fd5b6116d7336115c1565b15156116e257600080fd5b6001600f60003373ffffffffffffffffffffffffffffffffffffffff1673ffffffffffffffffffffffffffffffffffffffff16815260200190815260200160002060000160016101000a81548160ff0219169083151502179055506001600960008282540192505081905550600f60003373ffffffffffffffffffffffffffffffffffffffff1673ffffffffffffffffffffffffffffffffffffffff168152602001908152602001600020600101819080600181540180825580915050906001820390600052602060002001600090919290919091509060001916905550600d600082600019166000191681526020019081526020016000203390806001815401808255809150509060018203906000526020600020016000909192909190916101000a81548173ffffffffffffffffffffffffffffffffffffffff021916908373ffffffffffffffffffffffffffffffffffffffff1602179055505050565b828054828255906000526020600020908101928215611884579160200282015b82811115611883578251829060001916905591602001919060010190611862565b5b5090506118919190611895565b5090565b6118b791905b808211156118b357600081600090555060010161189b565b5090565b90565b60006118c68235611e7d565b905092915050565b600082601f83011215156118e157600080fd5b81356118f46118ef82611dcb565b611d9e565b9150818183526020840193506020810190508385602084028201111561191957600080fd5b60005b83811015611949578161192f8882611953565b84526020840193506020830192505060018101905061191c565b5050505092915050565b600061195f8235611e9d565b905092915050565b60006119738235611ea7565b905092915050565b60006020828403121561198d57600080fd5b600061199b848285016118ba565b91505092915050565b6000602082840312156119b657600080fd5b600082013567ffffffffffffffff8111156119d057600080fd5b6119dc848285016118ce565b91505092915050565b6000602082840312156119f757600080fd5b6000611a0584828501611953565b91505092915050565b60008060008060008060c08789031215611a2757600080fd5b6000611a3589828a01611953565b9650506020611a4689828a01611967565b9550506040611a5789828a01611967565b9450506060611a6889828a01611967565b9350506080611a7989828a01611967565b92505060a087013567ffffffffffffffff811115611a9657600080fd5b611aa289828a016118ce565b9150509295509295509295565b600060208284031215611ac157600080fd5b6000611acf84828501611967565b91505092915050565b611ae181611e3d565b82525050565b6000611af282611e0d565b808452602084019350611b0483611df3565b60005b82811015611b3657611b1a868351611ad8565b611b2382611e23565b9150602086019550600181019050611b07565b50849250505092915050565b6000611b4d82611e18565b808452602084019350611b5f83611e00565b60005b82811015611b9157611b75868351611bac565b611b7e82611e30565b9150602086019550600181019050611b62565b50849250505092915050565b611ba681611e5d565b82525050565b611bb581611e69565b82525050565b6000601c82527f42616c6c6f742073657475702074696d652068617320656e64656421000000006020830152604082019050919050565b611bfb81611e73565b82525050565b60006020820190508181036000830152611c1b8184611ae7565b905092915050565b60006020820190508181036000830152611c3d8184611b42565b905092915050565b6000602082019050611c5a6000830184611b9d565b92915050565b6000606082019050611c756000830186611b9d565b611c826020830185611b9d565b611c8f6040830184611b9d565b949350505050565b600061014082019050611cad600083018d611bac565b611cba602083018c611bf2565b611cc7604083018b611bf2565b611cd4606083018a611bf2565b611ce16080830189611bf2565b611cee60a0830188611b9d565b611cfb60c0830187611bf2565b611d0860e0830186611bf2565b611d16610100830185611bf2565b611d24610120830184611bf2565b9b9a5050505050505050505050565b60006020820190508181036000830152611d4c81611bbb565b9050919050565b6000602082019050611d686000830184611bf2565b92915050565b6000604082019050611d836000830185611bf2565b8181036020830152611d958184611ae7565b90509392505050565b6000604051905081810181811067ffffffffffffffff82111715611dc157600080fd5b8060405250919050565b600067ffffffffffffffff821115611de257600080fd5b602082029050602081019050919050565b6000602082019050919050565b6000602082019050919050565b600081519050919050565b600081519050919050565b6000602082019050919050565b6000602082019050919050565b600073ffffffffffffffffffffffffffffffffffffffff82169050919050565b60008115159050919050565b6000819050919050565b6000819050919050565b600073ffffffffffffffffffffffffffffffffffffffff82169050919050565b6000819050919050565b60008190509190505600a265627a7a72305820e1e5adf13f8853e072ac162d88ac72799bd2f83ead67960d2df6492e2dfc2c016c6578706572696d656e74616cf50037",
  "source": "pragma solidity ^0.4.24;\r\npragma experimental ABIEncoderV2; // Allow passing struct as argument\r\n\r\n// We have to specify what version of compiler this code will compile with\r\n\r\ncontract BallotContract {\r\n\r\n\r\n    // ~~~~~~~~~~~~~~~~~~~~~~~~~~~~~~~~~~~~~~~~~~~~ Contract Constructor ~~~~~~~~~~~~~~~~~~~~~~~~~~~~~~~~~~~~~~~~~~~~~~ //\r\n\r\n    address owner;\r\n    uint256 storedAmount;\r\n\r\n    /*\r\n    * Modifier to only allow the owner to call a function.\r\n    */\r\n    modifier onlyOwner\r\n    {\r\n        require( msg.sender             == owner );\r\n        _;\r\n\r\n    }\r\n\r\n    /*\r\n    *  This function is called *once* at first initialization into the blockchain.\r\n    */\r\n    constructor ()\r\n    {\r\n        owner                   = msg.sender;       // Set the owner to the address creating the contract.\r\n    }\r\n\r\n    function close(bytes32 phrase) onlyOwner public {\r\n        require( keccak256(phrase) == keccak256(bytes32('close')));\r\n        //claimStoredAmount('claim');\r\n        require(storedAmount > 0);\r\n        owner.transfer(storedAmount);\r\n        selfdestruct(owner);\r\n    }\r\n\r\n    function () payable {\r\n        storedAmount = msg.value;\r\n    }\r\n\r\n    function claimStoredAmount(bytes32 phrase) onlyOwner {\r\n        require(now > endVotingPhase);\r\n        require(storedAmount > 0);\r\n        require(  keccak256(phrase) == keccak256(bytes32('claim')) );\r\n\r\n        owner.transfer(storedAmount); // Transfer back remaining amount\r\n    }\r\n\r\n\r\n    // ~~~~~~~~~~~~~~~~~~~~~~~~~~~~~~~~~~~~~~~~~~~~ Validator ~~~~~~~~~~~~~~~~~~~~~~~~~~~~~~~~~~~~~~~~~~~~~~ //\r\n\r\n    function validTime() private view returns (bool) {\r\n        if ( now > endVotingPhase || now < startVotingPhase)\r\n            return false;\r\n    }\r\n\r\n    function canVote(address voterAddress) private view returns (bool) {\r\n        if (isFinalized == false)       // If the options are not finalized, we cannot vote.\r\n            return false;\r\n\r\n        if (voters[voterAddress].eligibleToVote == false)\r\n            return false;\r\n\r\n        if (voters[voterAddress].isVoted == true) // If the voter has already voted, voter cannot vote anymore\r\n            return false;\r\n        return true;\r\n    }\r\n\r\n    // ~~~~~~~~~~~~~~~~~~~~~~~~~~~~~~~~~~~~~~~~~~~~~~ Ballot Options (Candidate) ~~~~~~~~~~~~~~~~~~~~~~~~~~~~~~~~~~~~~~~~~~~~~~~~~~ //\r\n\r\n\r\n    bytes32  ballotName; // The ballot candidateID.\r\n\r\n    // Time: seconds since 1970-01-01\r\n    uint    startRegPhase;\r\n    uint    endRegPhase;\r\n    uint    startVotingPhase;\r\n    uint    endVotingPhase;\r\n\r\n    // Ballot status\r\n    bool    isFinalized;       // Whether the owner can still add voting options.\r\n    uint    registeredVoterCount;   // Total number of voter addresses registered.\r\n    uint    votedVoterCount;\r\n    uint    fundedVoterCount;\r\n    uint    amount; // in GWei\r\n\r\n    //\r\n    bytes32[] candidateIDs;\r\n    mapping (bytes32 => address[]) voteReceived; //map candidateId to array of address of whom has voted for them\r\n\r\n    function setupBallot (bytes32 _ballotName, uint _startVotingPhase, uint _endVotingPhase,\r\n                          uint _startRegPhase, uint _endRegPhase, bytes32[] _candidateIDs) onlyOwner public {\r\n\r\n        require (now < _endRegPhase, 'Ballot setup time has ended!');\r\n        require (isFinalized == false);\r\n\r\n        ballotName = _ballotName;\r\n        startRegPhase = _startRegPhase;\r\n        endRegPhase = _endRegPhase;\r\n        startVotingPhase = _startVotingPhase;\r\n        endVotingPhase = _endVotingPhase;\r\n\r\n        isFinalized = false;\r\n        registeredVoterCount = 0;\r\n        votedVoterCount = 0;\r\n        fundedVoterCount = 0;\r\n        storedAmount = 0;\r\n        amount = 0;\r\n\r\n        addCandidates(_candidateIDs);\r\n    }\r\n\r\n    function setTransferAmount(uint _amount) {\r\n        amount = _amount*1000000000; //convert Gwei to wei\r\n    }\r\n\r\n\r\n    function addCandidates(bytes32[] _candidateIDs) onlyOwner public {\r\n        require (now < endRegPhase, 'Ballot setup time has ended!');\r\n        require (isFinalized == false);    // Check we are allowed to add options.\r\n\r\n        candidateIDs = _candidateIDs;\r\n    }\r\n\r\n    /*\r\n    *  Call this once all options have been added, this will stop further changes\r\n    *  and allow votes to be cast.\r\n    *  NOTE: this can only be called by the ballot owner.\r\n    */\r\n    function finalizeBallot(bytes32 phrase) onlyOwner public {\r\n        require(candidateIDs.length > 2);\r\n        require( keccak256(phrase) == keccak256(bytes32('finalize')));\r\n        require (now < startVotingPhase);\r\n        require (now > startRegPhase);\r\n\r\n        isFinalized = true;    // Stop the addition of any more change.\r\n    }\r\n\r\n    function resetTime(bytes32 phrase) onlyOwner public returns(bool) {\r\n        if (keccak256(phrase) == keccak256(bytes32('startRegPhase'))) {\r\n            startRegPhase = 0;\r\n        }\r\n        if (keccak256(phrase) == keccak256(bytes32('endRegPhase'))) {\r\n            endRegPhase = 0;\r\n        }\r\n        if (keccak256(phrase) == keccak256(bytes32('startVotingPhase'))) {\r\n            startVotingPhase = 0;\r\n        }\r\n        if (keccak256(phrase) == keccak256(bytes32('endVotingPhase'))) {\r\n            endVotingPhase = 0;\r\n        }\r\n        return keccak256(phrase) == keccak256(bytes32('startRegPhase'));\r\n    }\r\n\r\n    // ~~~~~~~~~~~~~~~~~~~~~~~~~~~~~~~~~~~~~~~~~~~~~~~~ Voting Options ~~~~~~~~~~~~~~~~~~~~~~~~~~~~~~~~~~~~~~~~~~~~~~~~ //\r\n\r\n    /*\r\n    *  Structure which represents a single voter.\r\n    */\r\n    struct Voter\r\n    {\r\n        bool eligibleToVote;    // Is this voter allowed to vote?\r\n        bool isVoted;             // State of whether this voter has voted.\r\n        bool isFunded;\r\n        bytes32[] votedFor;          // List candidates' ID this voter voted for.\r\n    }\r\n\r\n    address[] voterAddressList;\r\n    mapping(address => Voter) public voters; // State variable which maps any address to a 'Voter' struct.\r\n\r\n    /*\r\n    *  Allow an address (voter) to vote on this ballot.\r\n    *  NOTE: this can only be called by the ballot owner.\r\n    */\r\n    function giveRightToVote(address _voter) onlyOwner public {\r\n        require (now < endRegPhase, 'Ballot setup time has ended!');\r\n        voters[_voter].eligibleToVote = true;\r\n        registeredVoterCount += 1;      // Increment registered voters.\r\n        voterAddressList.push(_voter);\r\n    }\r\n\r\n    function claimFund() public {\r\n        address _voter = msg.sender;\r\n        require(voters[_voter].eligibleToVote); // User already had the right to vote\r\n        require(address(this).balance >= storedAmount);\r\n        require(!voters[_voter].isFunded);\r\n\r\n        voters[_voter].isFunded = true;\r\n        storedAmount -= amount;\r\n        _voter.transfer(amount);\r\n    }\r\n\r\n    /*\r\n    *  Allow an eligible voter to vote for their chosen votingOption.\r\n    *\r\n    *  NOTE: if anything fails during this call we will throw and automatically\r\n    *        revert all changes.\r\n    */\r\n    function voteForCandidate(bytes32 _candidateID) private {\r\n        require(validTime());\r\n        require(canVote(msg.sender));// Get the Voter struct for this sender.\r\n\r\n        voters[msg.sender].isVoted = true;\r\n        votedVoterCount += 1;\r\n        voters[msg.sender].votedFor.push(_candidateID); //Add candidateID to list whom voter voted\r\n        voteReceived[_candidateID].push(msg.sender);\r\n    }\r\n\r\n    /*\r\n    *  Allow an eligible voter to vote for a list of candidate\r\n    *  If they have already isVoted, then remove their vote from the previous\r\n    *  'votingOption' and assign it to the new one.\r\n    *\r\n    *  NOTE: if anything fails during this call we will throw and automatically\r\n    *        revert all changes.\r\n    */\r\n    function voteForCandidates(bytes32[] _candidateIDs) public {\r\n        require(validTime());\r\n        require(canVote(msg.sender));\r\n\r\n        for (uint i = 0; i < _candidateIDs.length; i++) {\r\n            voteForCandidate(_candidateIDs[i]);\r\n            //emit VoteFor(msg.sender, _candidateIDs);\r\n        }\r\n    }\r\n\r\n    function validCandidate(bytes32 _candidateID) public view returns (bool) {\r\n        for (uint i = 0; i < candidateIDs.length; i++) {\r\n            if (candidateIDs[i] == _candidateID) {\r\n                return true;\r\n            }\r\n        }\r\n        return false;\r\n    }\r\n\r\n    function hasRightToVote(address voterAddress) public view returns (bool) {\r\n        if (voters[voterAddress].eligibleToVote && voters[voterAddress].isVoted) {\r\n            return true;\r\n        } else {\r\n            return false;\r\n        }\r\n    }\r\n\r\n    // ~~~~~~~~~~~~~~~~~~~~~~~~~~~~~~~~~~~~~~~~~~~~~~ Getter Functions ~~~~~~~~~~~~~~~~~~~~~~~~~~~~~~~~~~~~~~~~~~~~~~~~ //\r\n\r\n    /*\r\n    * Returns the ballots bytes32.\r\n    */\r\n    function getBallotInfo() public returns (\r\n        bytes32, uint, uint, uint, uint, bool, uint, uint, uint, uint\r\n    ) {\r\n        return (\r\n        ballotName,\r\n        startRegPhase,\r\n        endRegPhase,\r\n        startVotingPhase,\r\n        endVotingPhase,\r\n        isFinalized,\r\n        registeredVoterCount,\r\n        votedVoterCount,\r\n        storedAmount,\r\n        fundedVoterCount\r\n        );\r\n    }\r\n\r\n    /*\r\n    * Returns the number of candidates.\r\n    */\r\n    function getCandidateLength() public returns (uint)  {\r\n        return candidateIDs.length;\r\n    }\r\n\r\n    function getCandidateList() public returns (bytes32[]) {\r\n        return candidateIDs;\r\n    }\r\n\r\n    /*    *//*\r\n    * Returns the candidateID of a candidate at a specific index.\r\n    * Throws if index out of bounds.\r\n    *//*\r\n    function getVotingOptionsName(uint _index) returns (bytes32)\r\n    {\r\n        return votingOptions[_index].candidateID;\r\n    }*/\r\n\r\n    /*\r\n    * Returns the number of votes for a candidate at the specified index.\r\n    * Throws if index out of bounds.\r\n    */\r\n    function getCandidateResult(bytes32 _candidateID) public returns (uint, address[])\r\n    {\r\n        return (voteReceived[_candidateID].length, voteReceived[_candidateID]);\r\n    }\r\n\r\n    // Return a list of people who have voted for candidate\r\n\r\n\r\n    /*\r\n    * Returns if the voting options have been finalized.\r\n    */\r\n    function isBallotFinalized() public returns (bool)\r\n    {\r\n        return isFinalized;\r\n    }\r\n\r\n    function getVotedForList(address voterAddress) public returns (bytes32[]) {\r\n        return voters[voterAddress].votedFor;\r\n    }\r\n\r\n    function getVoterAddressList() onlyOwner public  returns (address[]) {\r\n        return voterAddressList;\r\n    }\r\n\r\n\r\n}\r\n",
  "sourcePath": "E:\\Work\\ETH\\EtherVote\\OnlineBallotRegulator\\truffle\\contracts\\BallotContract.sol",
  "compiler": {
    "name": "solc",
    "version": "0.4.24+commit.e67f0147.Emscripten.clang"
  },
  "schemaVersion": "2.0.1",
  "updatedAt": "2018-09-14T03:13:46.214Z"
}