{
  "contractName": "BallotContract",
  "abi": [
    {
      "constant": true,
      "inputs": [
        {
          "name": "",
          "type": "address"
        }
      ],
      "name": "voters",
      "outputs": [
        {
          "name": "eligibleToVote",
          "type": "bool"
        },
        {
          "name": "isVoted",
          "type": "bool"
        },
        {
          "name": "isFunded",
          "type": "bool"
        }
      ],
      "payable": false,
      "stateMutability": "view",
      "type": "function"
    },
    {
      "inputs": [],
      "payable": false,
      "stateMutability": "nonpayable",
      "type": "constructor"
    },
    {
      "payable": true,
      "stateMutability": "payable",
      "type": "fallback"
    },
    {
      "constant": false,
      "inputs": [
        {
          "name": "phrase",
          "type": "bytes32"
        }
      ],
      "name": "close",
      "outputs": [],
      "payable": false,
      "stateMutability": "nonpayable",
      "type": "function"
    },
    {
      "constant": false,
      "inputs": [
        {
          "name": "phrase",
          "type": "bytes32"
        }
      ],
      "name": "claimStoredAmount",
      "outputs": [],
      "payable": false,
      "stateMutability": "nonpayable",
      "type": "function"
    },
    {
      "constant": false,
      "inputs": [
        {
          "name": "_ballotName",
          "type": "bytes32"
        },
        {
          "name": "_fundAmount",
          "type": "uint256"
        },
        {
          "name": "_maxCandidate",
          "type": "uint256"
        },
        {
          "name": "_startVotingPhase",
          "type": "uint256"
        },
        {
          "name": "_endVotingPhase",
          "type": "uint256"
        },
        {
          "name": "_startRegPhase",
          "type": "uint256"
        },
        {
          "name": "_endRegPhase",
          "type": "uint256"
        },
        {
          "name": "_candidateIDs",
          "type": "bytes32[]"
        }
      ],
      "name": "setupBallot",
      "outputs": [],
      "payable": false,
      "stateMutability": "nonpayable",
      "type": "function"
    },
    {
      "constant": false,
      "inputs": [
        {
          "name": "_amount",
          "type": "uint256"
        }
      ],
      "name": "setTransferAmount",
      "outputs": [],
      "payable": false,
      "stateMutability": "nonpayable",
      "type": "function"
    },
    {
      "constant": false,
      "inputs": [
        {
          "name": "_candidateIDs",
          "type": "bytes32[]"
        }
      ],
      "name": "addCandidates",
      "outputs": [],
      "payable": false,
      "stateMutability": "nonpayable",
      "type": "function"
    },
    {
      "constant": false,
      "inputs": [
        {
          "name": "phrase",
          "type": "bytes32"
        }
      ],
      "name": "finalizeBallot",
      "outputs": [],
      "payable": false,
      "stateMutability": "nonpayable",
      "type": "function"
    },
    {
      "constant": false,
      "inputs": [
        {
          "name": "phrase",
          "type": "bytes32"
        }
      ],
      "name": "resetTime",
      "outputs": [
        {
          "name": "",
          "type": "bool"
        }
      ],
      "payable": false,
      "stateMutability": "nonpayable",
      "type": "function"
    },
    {
      "constant": false,
      "inputs": [
        {
          "name": "_voter",
          "type": "address"
        }
      ],
      "name": "giveRightToVote",
      "outputs": [],
      "payable": false,
      "stateMutability": "nonpayable",
      "type": "function"
    },
    {
      "constant": false,
      "inputs": [],
      "name": "claimFund",
      "outputs": [],
      "payable": false,
      "stateMutability": "nonpayable",
      "type": "function"
    },
    {
      "constant": false,
      "inputs": [
        {
          "name": "_candidateIDs",
          "type": "bytes32[]"
        }
      ],
      "name": "voteForCandidates",
      "outputs": [],
      "payable": false,
      "stateMutability": "nonpayable",
      "type": "function"
    },
    {
      "constant": true,
      "inputs": [
        {
          "name": "_candidateID",
          "type": "bytes32"
        }
      ],
      "name": "validCandidate",
      "outputs": [
        {
          "name": "",
          "type": "bool"
        }
      ],
      "payable": false,
      "stateMutability": "view",
      "type": "function"
    },
    {
      "constant": true,
      "inputs": [
        {
          "name": "voterAddress",
          "type": "address"
        }
      ],
      "name": "hasRightToVote",
      "outputs": [
        {
          "name": "",
          "type": "bool"
        }
      ],
      "payable": false,
      "stateMutability": "view",
      "type": "function"
    },
    {
      "constant": false,
      "inputs": [],
      "name": "getBallotOverview",
      "outputs": [
        {
          "name": "",
          "type": "bytes32"
        },
        {
          "name": "",
          "type": "bool"
        },
        {
          "name": "",
          "type": "uint256"
        },
        {
          "name": "",
          "type": "uint256"
        },
        {
          "name": "",
          "type": "uint256"
        },
        {
          "name": "",
          "type": "uint256"
        },
        {
          "name": "",
          "type": "uint256"
        },
        {
          "name": "",
          "type": "uint256"
        },
        {
          "name": "",
          "type": "uint256"
        },
        {
          "name": "",
          "type": "uint256"
        },
        {
          "name": "",
          "type": "uint256"
        }
      ],
      "payable": false,
      "stateMutability": "nonpayable",
      "type": "function"
    },
    {
      "constant": false,
      "inputs": [],
      "name": "getCandidateLength",
      "outputs": [
        {
          "name": "",
          "type": "uint256"
        }
      ],
      "payable": false,
      "stateMutability": "nonpayable",
      "type": "function"
    },
    {
      "constant": false,
      "inputs": [],
      "name": "getCandidateList",
      "outputs": [
        {
          "name": "",
          "type": "bytes32[]"
        }
      ],
      "payable": false,
      "stateMutability": "nonpayable",
      "type": "function"
    },
    {
      "constant": false,
      "inputs": [
        {
          "name": "_candidateID",
          "type": "bytes32"
        }
      ],
      "name": "getCandidateResult",
      "outputs": [
        {
          "name": "",
          "type": "uint256"
        },
        {
          "name": "",
          "type": "address[]"
        }
      ],
      "payable": false,
      "stateMutability": "nonpayable",
      "type": "function"
    },
    {
      "constant": false,
      "inputs": [],
      "name": "isBallotFinalized",
      "outputs": [
        {
          "name": "",
          "type": "bool"
        }
      ],
      "payable": false,
      "stateMutability": "nonpayable",
      "type": "function"
    },
    {
      "constant": false,
      "inputs": [
        {
          "name": "voterAddress",
          "type": "address"
        }
      ],
      "name": "getVotedForList",
      "outputs": [
        {
          "name": "",
          "type": "bytes32[]"
        }
      ],
      "payable": false,
      "stateMutability": "nonpayable",
      "type": "function"
    },
    {
      "constant": false,
      "inputs": [],
      "name": "getVoterAddressList",
      "outputs": [
        {
          "name": "",
          "type": "address[]"
        }
      ],
      "payable": false,
      "stateMutability": "nonpayable",
      "type": "function"
    }
  ],
  "bytecode": "0x608060405234801561001057600080fd5b50336000806101000a81548173ffffffffffffffffffffffffffffffffffffffff021916908373ffffffffffffffffffffffffffffffffffffffff1602179055507f4e6f74207365740000000000000000000000000000000000000000000000000060028160001916905550600060038190555060006004819055506000600581905550600060068190555060006007819055506000600860006101000a81548160ff02191690831515021790555060006009819055506000600a819055506000600b8190555060006001819055506000600c81905550611ed4806100f66000396000f300608060405260043610610112576000357c0100000000000000000000000000000000000000000000000000000000900463ffffffff168063392e66781461011b57806339c79e0c146101585780633bdcb71e14610181578063431f96ac146101ac578063458b6474146101e95780635072b084146102275780635ef955dc1461023e57806365c93769146102675780636eab06c4146102a457806381c82233146102cd5780638b5e05e2146102f65780639e7b8d611461031f578063a3ec138d14610348578063bd8f7d2e14610387578063c623f910146103bc578063dbcb6d47146103e5578063e17b240a14610410578063eeaa17a514610439578063f7522a8314610476578063fdbc4006146104a1575b34600181905550005b34801561012757600080fd5b50610142600480360361013d9190810190611996565b6104cc565b60405161014f9190611c1f565b60405180910390f35b34801561016457600080fd5b5061017f600480360361017a9190810190611996565b61052b565b005b34801561018d57600080fd5b506101966106ab565b6040516101a39190611c1f565b60405180910390f35b3480156101b857600080fd5b506101d360048036036101ce9190810190611996565b6106c2565b6040516101e09190611c1f565b60405180910390f35b3480156101f557600080fd5b50610210600480360361020b9190810190611996565b610957565b60405161021e929190611d57565b60405180910390f35b34801561023357600080fd5b5061023c610a26565b005b34801561024a57600080fd5b5061026560048036036102609190810190611996565b610bc3565b005b34801561027357600080fd5b5061028e6004803603610289919081019061192c565b610d1c565b60405161029b9190611c1f565b60405180910390f35b3480156102b057600080fd5b506102cb60048036036102c69190810190611955565b610dde565b005b3480156102d957600080fd5b506102f460048036036102ef9190810190611a89565b610ebb565b005b34801561030257600080fd5b5061031d600480360361031891908101906119bf565b610ecb565b005b34801561032b57600080fd5b506103466004803603610341919081019061192c565b610faf565b005b34801561035457600080fd5b5061036f600480360361036a919081019061192c565b611125565b60405161037e93929190611c3a565b60405180910390f35b34801561039357600080fd5b5061039c611176565b6040516103b39b9a99989796959493929190611c71565b60405180910390f35b3480156103c857600080fd5b506103e360048036036103de9190810190611996565b6111d8565b005b3480156103f157600080fd5b506103fa6112f5565b6040516104079190611bdb565b60405180910390f35b34801561041c57600080fd5b5061043760048036036104329190810190611955565b6113de565b005b34801561044557600080fd5b50610460600480360361045b919081019061192c565b611446565b60405161046d9190611bfd565b60405180910390f35b34801561048257600080fd5b5061048b6114e4565b6040516104989190611d3c565b60405180910390f35b3480156104ad57600080fd5b506104b66114f1565b6040516104c39190611bfd565b60405180910390f35b600080600090505b600d80549050811015610520578260001916600d828154811015156104f557fe5b90600052602060002001546000191614156105135760019150610525565b80806001019150506104d4565b600091505b50919050565b6000809054906101000a900473ffffffffffffffffffffffffffffffffffffffff1673ffffffffffffffffffffffffffffffffffffffff163373ffffffffffffffffffffffffffffffffffffffff1614151561058657600080fd5b7f636c6f7365000000000000000000000000000000000000000000000000000000604051808260001916600019168152602001915050604051809103902060001916816040518082600019166000191681526020019150506040518091039020600019161415156105f657600080fd5b600060015411151561060757600080fd5b6000809054906101000a900473ffffffffffffffffffffffffffffffffffffffff1673ffffffffffffffffffffffffffffffffffffffff166108fc6001549081150290604051600060405180830381858888f19350505050158015610670573d6000803e3d6000fd5b506000809054906101000a900473ffffffffffffffffffffffffffffffffffffffff1673ffffffffffffffffffffffffffffffffffffffff16ff5b6000600860009054906101000a900460ff16905090565b60008060009054906101000a900473ffffffffffffffffffffffffffffffffffffffff1673ffffffffffffffffffffffffffffffffffffffff163373ffffffffffffffffffffffffffffffffffffffff1614151561071f57600080fd5b7f73746172745265675068617365000000000000000000000000000000000000006040518082600019166000191681526020019150506040518091039020600019168260405180826000191660001916815260200191505060405180910390206000191614156107925760006004819055505b7f656e6452656750686173650000000000000000000000000000000000000000006040518082600019166000191681526020019150506040518091039020600019168260405180826000191660001916815260200191505060405180910390206000191614156108055760006005819055505b7f7374617274566f74696e675068617365000000000000000000000000000000006040518082600019166000191681526020019150506040518091039020600019168260405180826000191660001916815260200191505060405180910390206000191614156108785760006006819055505b7f656e64566f74696e6750686173650000000000000000000000000000000000006040518082600019166000191681526020019150506040518091039020600019168260405180826000191660001916815260200191505060405180910390206000191614156108eb5760006007819055505b7f737461727452656750686173650000000000000000000000000000000000000060405180826000191660001916815260200191505060405180910390206000191682604051808260001916600019168152602001915050604051809103902060001916149050919050565b60006060600e6000846000191660001916815260200190815260200160002080549050600e6000856000191660001916815260200190815260200160002080805480602002602001604051908101604052809291908181526020018280548015610a1657602002820191906000526020600020905b8160009054906101000a900473ffffffffffffffffffffffffffffffffffffffff1673ffffffffffffffffffffffffffffffffffffffff16815260200190600101908083116109cc575b5050505050905091509150915091565b6000339050601060008273ffffffffffffffffffffffffffffffffffffffff1673ffffffffffffffffffffffffffffffffffffffff16815260200190815260200160002060000160009054906101000a900460ff161515610a8657600080fd5b6001543073ffffffffffffffffffffffffffffffffffffffff163110151515610aae57600080fd5b601060008273ffffffffffffffffffffffffffffffffffffffff1673ffffffffffffffffffffffffffffffffffffffff16815260200190815260200160002060000160029054906101000a900460ff16151515610b0a57600080fd5b6001601060008373ffffffffffffffffffffffffffffffffffffffff1673ffffffffffffffffffffffffffffffffffffffff16815260200190815260200160002060000160026101000a81548160ff021916908315150217905550600c546001600082825403925050819055508073ffffffffffffffffffffffffffffffffffffffff166108fc600c549081150290604051600060405180830381858888f19350505050158015610bbf573d6000803e3d6000fd5b5050565b6000809054906101000a900473ffffffffffffffffffffffffffffffffffffffff1673ffffffffffffffffffffffffffffffffffffffff163373ffffffffffffffffffffffffffffffffffffffff16141515610c1e57600080fd5b60075442111515610c2e57600080fd5b6000600154111515610c3f57600080fd5b7f636c61696d00000000000000000000000000000000000000000000000000000060405180826000191660001916815260200191505060405180910390206000191681604051808260001916600019168152602001915050604051809103902060001916141515610caf57600080fd5b6000809054906101000a900473ffffffffffffffffffffffffffffffffffffffff1673ffffffffffffffffffffffffffffffffffffffff166108fc6001549081150290604051600060405180830381858888f19350505050158015610d18573d6000803e3d6000fd5b5050565b6000601060008373ffffffffffffffffffffffffffffffffffffffff1673ffffffffffffffffffffffffffffffffffffffff16815260200190815260200160002060000160009054906101000a900460ff168015610dc65750601060008373ffffffffffffffffffffffffffffffffffffffff1673ffffffffffffffffffffffffffffffffffffffff16815260200190815260200160002060000160019054906101000a900460ff165b15610dd45760019050610dd9565b600090505b919050565b6000809054906101000a900473ffffffffffffffffffffffffffffffffffffffff1673ffffffffffffffffffffffffffffffffffffffff163373ffffffffffffffffffffffffffffffffffffffff16141515610e3957600080fd5b60055442101515610e7f576040517f08c379a0000000000000000000000000000000000000000000000000000000008152600401610e7690611d1c565b60405180910390fd5b60001515600860009054906101000a900460ff161515141515610ea157600080fd5b80600d9080519060200190610eb79291906117f3565b5050565b633b9aca008102600c8190555050565b6000809054906101000a900473ffffffffffffffffffffffffffffffffffffffff1673ffffffffffffffffffffffffffffffffffffffff163373ffffffffffffffffffffffffffffffffffffffff16141515610f2657600080fd5b8760028160001916905550633b9aca008702600c8190555085600381905550826004819055508160058190555084600681905550836007819055506000600860006101000a81548160ff02191690831515021790555060006009819055506000600a819055506000600b819055506000600181905550610fa581610dde565b5050505050505050565b6000809054906101000a900473ffffffffffffffffffffffffffffffffffffffff1673ffffffffffffffffffffffffffffffffffffffff163373ffffffffffffffffffffffffffffffffffffffff1614151561100a57600080fd5b60055442101515611050576040517f08c379a000000000000000000000000000000000000000000000000000000000815260040161104790611d1c565b60405180910390fd5b6001601060008373ffffffffffffffffffffffffffffffffffffffff1673ffffffffffffffffffffffffffffffffffffffff16815260200190815260200160002060000160006101000a81548160ff0219169083151502179055506001600960008282540192505081905550600f8190806001815401808255809150509060018203906000526020600020016000909192909190916101000a81548173ffffffffffffffffffffffffffffffffffffffff021916908373ffffffffffffffffffffffffffffffffffffffff1602179055505050565b60106020528060005260406000206000915090508060000160009054906101000a900460ff16908060000160019054906101000a900460ff16908060000160029054906101000a900460ff16905083565b6000806000806000806000806000806000600254600860009054906101000a900460ff16600c54600154600454600554600654600754600954600a54600b549a509a509a509a509a509a509a509a509a509a509a50909192939495969798999a565b6000809054906101000a900473ffffffffffffffffffffffffffffffffffffffff1673ffffffffffffffffffffffffffffffffffffffff163373ffffffffffffffffffffffffffffffffffffffff1614151561123357600080fd5b6002600d8054905011151561124757600080fd5b7f66696e616c697a65000000000000000000000000000000000000000000000000604051808260001916600019168152602001915050604051809103902060001916816040518082600019166000191681526020019150506040518091039020600019161415156112b757600080fd5b600654421015156112c757600080fd5b600454421115156112d757600080fd5b6001600860006101000a81548160ff02191690831515021790555050565b60606000809054906101000a900473ffffffffffffffffffffffffffffffffffffffff1673ffffffffffffffffffffffffffffffffffffffff163373ffffffffffffffffffffffffffffffffffffffff1614151561135257600080fd5b600f8054806020026020016040519081016040528092919081815260200182805480156113d457602002820191906000526020600020905b8160009054906101000a900473ffffffffffffffffffffffffffffffffffffffff1673ffffffffffffffffffffffffffffffffffffffff168152602001906001019080831161138a575b5050505050905090565b60006113e861154d565b15156113f357600080fd5b6113fc33611572565b151561140757600080fd5b600090505b815181101561144257611435828281518110151561142657fe5b9060200190602002015161166c565b808060010191505061140c565b5050565b6060601060008373ffffffffffffffffffffffffffffffffffffffff1673ffffffffffffffffffffffffffffffffffffffff1681526020019081526020016000206001018054806020026020016040519081016040528092919081815260200182805480156114d857602002820191906000526020600020905b815460001916815260200190600101908083116114c0575b50505050509050919050565b6000600d80549050905090565b6060600d80548060200260200160405190810160405280929190818152602001828054801561154357602002820191906000526020600020905b8154600019168152602001906001019080831161152b575b5050505050905090565b6000600754421180611560575060065442105b1561156e576000905061156f565b5b90565b6000801515600860009054906101000a900460ff16151514156115985760009050611667565b60001515601060008473ffffffffffffffffffffffffffffffffffffffff1673ffffffffffffffffffffffffffffffffffffffff16815260200190815260200160002060000160009054906101000a900460ff16151514156115fd5760009050611667565b60011515601060008473ffffffffffffffffffffffffffffffffffffffff1673ffffffffffffffffffffffffffffffffffffffff16815260200190815260200160002060000160019054906101000a900460ff16151514156116625760009050611667565b600190505b919050565b61167461154d565b151561167f57600080fd5b61168833611572565b151561169357600080fd5b6001601060003373ffffffffffffffffffffffffffffffffffffffff1673ffffffffffffffffffffffffffffffffffffffff16815260200190815260200160002060000160016101000a81548160ff0219169083151502179055506001600a60008282540192505081905550601060003373ffffffffffffffffffffffffffffffffffffffff1673ffffffffffffffffffffffffffffffffffffffff168152602001908152602001600020600101819080600181540180825580915050906001820390600052602060002001600090919290919091509060001916905550600e600082600019166000191681526020019081526020016000203390806001815401808255809150509060018203906000526020600020016000909192909190916101000a81548173ffffffffffffffffffffffffffffffffffffffff021916908373ffffffffffffffffffffffffffffffffffffffff1602179055505050565b828054828255906000526020600020908101928215611835579160200282015b82811115611834578251829060001916905591602001919060010190611813565b5b5090506118429190611846565b5090565b61186891905b8082111561186457600081600090555060010161184c565b5090565b90565b60006118778235611e66565b905092915050565b600082601f830112151561189257600080fd5b81356118a56118a082611db4565b611d87565b915081818352602084019350602081019050838560208402820111156118ca57600080fd5b60005b838110156118fa57816118e08882611904565b8452602084019350602083019250506001810190506118cd565b5050505092915050565b60006119108235611e86565b905092915050565b60006119248235611e90565b905092915050565b60006020828403121561193e57600080fd5b600061194c8482850161186b565b91505092915050565b60006020828403121561196757600080fd5b600082013567ffffffffffffffff81111561198157600080fd5b61198d8482850161187f565b91505092915050565b6000602082840312156119a857600080fd5b60006119b684828501611904565b91505092915050565b600080600080600080600080610100898b0312156119dc57600080fd5b60006119ea8b828c01611904565b98505060206119fb8b828c01611918565b9750506040611a0c8b828c01611918565b9650506060611a1d8b828c01611918565b9550506080611a2e8b828c01611918565b94505060a0611a3f8b828c01611918565b93505060c0611a508b828c01611918565b92505060e089013567ffffffffffffffff811115611a6d57600080fd5b611a798b828c0161187f565b9150509295985092959890939650565b600060208284031215611a9b57600080fd5b6000611aa984828501611918565b91505092915050565b611abb81611e26565b82525050565b6000611acc82611df6565b808452602084019350611ade83611ddc565b60005b82811015611b1057611af4868351611ab2565b611afd82611e0c565b9150602086019550600181019050611ae1565b50849250505092915050565b6000611b2782611e01565b808452602084019350611b3983611de9565b60005b82811015611b6b57611b4f868351611b86565b611b5882611e19565b9150602086019550600181019050611b3c565b50849250505092915050565b611b8081611e46565b82525050565b611b8f81611e52565b82525050565b6000601c82527f42616c6c6f742073657475702074696d652068617320656e64656421000000006020830152604082019050919050565b611bd581611e5c565b82525050565b60006020820190508181036000830152611bf58184611ac1565b905092915050565b60006020820190508181036000830152611c178184611b1c565b905092915050565b6000602082019050611c346000830184611b77565b92915050565b6000606082019050611c4f6000830186611b77565b611c5c6020830185611b77565b611c696040830184611b77565b949350505050565b600061016082019050611c87600083018e611b86565b611c94602083018d611b77565b611ca1604083018c611bcc565b611cae606083018b611bcc565b611cbb608083018a611bcc565b611cc860a0830189611bcc565b611cd560c0830188611bcc565b611ce260e0830187611bcc565b611cf0610100830186611bcc565b611cfe610120830185611bcc565b611d0c610140830184611bcc565b9c9b505050505050505050505050565b60006020820190508181036000830152611d3581611b95565b9050919050565b6000602082019050611d516000830184611bcc565b92915050565b6000604082019050611d6c6000830185611bcc565b8181036020830152611d7e8184611ac1565b90509392505050565b6000604051905081810181811067ffffffffffffffff82111715611daa57600080fd5b8060405250919050565b600067ffffffffffffffff821115611dcb57600080fd5b602082029050602081019050919050565b6000602082019050919050565b6000602082019050919050565b600081519050919050565b600081519050919050565b6000602082019050919050565b6000602082019050919050565b600073ffffffffffffffffffffffffffffffffffffffff82169050919050565b60008115159050919050565b6000819050919050565b6000819050919050565b600073ffffffffffffffffffffffffffffffffffffffff82169050919050565b6000819050919050565b60008190509190505600a265627a7a7230582057b8f190947c6e225b903d147f271a94651da9f23cba071197b02099fefe14d56c6578706572696d656e74616cf50037",
  "source": "pragma solidity ^0.4.24;\r\npragma experimental ABIEncoderV2; // Allow passing struct as argument\r\n\r\n// We have to specify what version of compiler this code will compile with\r\n\r\ncontract BallotContract {\r\n\r\n\r\n// ~~~~~~~~~~~~~~~~~~~~~~~~~~~~~~~~~~~~~~~~~~~~ Contract Constructor ~~~~~~~~~~~~~~~~~~~~~~~~~~~~~~~~~~~~~~~~~~~~~~ //\r\n\r\n    address owner;\r\n    uint256 storedAmount;\r\n\r\n    /*\r\n    * Modifier to only allow the owner to call a function.\r\n    */\r\n    modifier onlyOwner {\r\n        require(msg.sender == owner );\r\n        _;\r\n\r\n    }\r\n\r\n    /*\r\n    *  This function is called *once* at first initialization into the blockchain.\r\n    */\r\n    constructor ()\r\n    {\r\n        owner = msg.sender;       // Set the owner to the address creating the contract.\r\n        ballotName = 'Not set';\r\n        maxCandidate = 0;\r\n\r\n        startRegPhase = 0;\r\n        endRegPhase = 0;\r\n        startVotingPhase = 0;\r\n        endVotingPhase = 0;\r\n\r\n        isFinalized = false;\r\n        registeredVoterCount = 0;\r\n        votedVoterCount = 0;\r\n        fundedVoterCount = 0;\r\n        storedAmount = 0;\r\n        amount = 0;\r\n\r\n    }\r\n\r\n    function close(bytes32 phrase) onlyOwner public {\r\n        require( keccak256(phrase) == keccak256(bytes32('close')));\r\n        require(storedAmount > 0);\r\n        owner.transfer(storedAmount);\r\n        selfdestruct(owner);\r\n    }\r\n\r\n    function () payable {\r\n        storedAmount = msg.value;\r\n    }\r\n\r\n    function claimStoredAmount(bytes32 phrase) onlyOwner {\r\n        require(now > endVotingPhase);\r\n        require(storedAmount > 0);\r\n        require(  keccak256(phrase) == keccak256(bytes32('claim')) );\r\n\r\n        owner.transfer(storedAmount); // Transfer back remaining amount\r\n    }\r\n\r\n\r\n    // ~~~~~~~~~~~~~~~~~~~~~~~~~~~~~~~~~~~~~~~~~~~~ Validator ~~~~~~~~~~~~~~~~~~~~~~~~~~~~~~~~~~~~~~~~~~~~~~ //\r\n\r\n    function validTime() private view returns (bool) {\r\n        if ( now > endVotingPhase || now < startVotingPhase)\r\n            return false;\r\n    }\r\n\r\n    function canVote(address voterAddress) private view returns (bool) {\r\n        if (isFinalized == false)       // If the options are not finalized, we cannot vote.\r\n            return false;\r\n\r\n        if (voters[voterAddress].eligibleToVote == false)\r\n            return false;\r\n\r\n        if (voters[voterAddress].isVoted == true) // If the voter has already voted, voter cannot vote anymore\r\n            return false;\r\n        return true;\r\n    }\r\n\r\n    // ~~~~~~~~~~~~~~~~~~~~~~~~~~~~~~~~~~~~~~~~~~~~~~ Ballot Options (Candidate) ~~~~~~~~~~~~~~~~~~~~~~~~~~~~~~~~~~~~~~~~~~~~~~~~~~ //\r\n\r\n\r\n    bytes32 ballotName; // The ballot candidateID.\r\n    uint    maxCandidate;\r\n\r\n    // Time: seconds since 1970-01-01\r\n    uint    startRegPhase;\r\n    uint    endRegPhase;\r\n    uint    startVotingPhase;\r\n    uint    endVotingPhase;\r\n\r\n    // Ballot status\r\n    bool    isFinalized;       // Whether the owner can still add voting options.\r\n    uint    registeredVoterCount;   // Total number of voter addresses registered.\r\n    uint    votedVoterCount;\r\n    uint    fundedVoterCount;\r\n    uint    amount; // in GWei\r\n\r\n    //\r\n    bytes32[] candidateIDs;\r\n    mapping (bytes32 => address[]) voteReceived; //map candidateId to array of address of whom has voted for them\r\n\r\n    function setupBallot (bytes32 _ballotName, uint _fundAmount, uint _maxCandidate,\r\n        uint _startVotingPhase, uint _endVotingPhase,\r\n                          uint _startRegPhase, uint _endRegPhase, bytes32[] _candidateIDs) onlyOwner public {\r\n\r\n        ballotName = _ballotName;\r\n        amount = _fundAmount*1000000000; //convert to wei\r\n        maxCandidate = _maxCandidate;\r\n        startRegPhase = _startRegPhase;\r\n        endRegPhase = _endRegPhase;\r\n        startVotingPhase = _startVotingPhase;\r\n        endVotingPhase = _endVotingPhase;\r\n\r\n        isFinalized = false;\r\n        registeredVoterCount = 0;\r\n        votedVoterCount = 0;\r\n        fundedVoterCount = 0;\r\n        storedAmount = 0;\r\n\r\n        addCandidates(_candidateIDs);\r\n    }\r\n\r\n    function setTransferAmount(uint _amount) {\r\n        amount = _amount*1000000000; //convert Gwei to wei\r\n    }\r\n\r\n\r\n    function addCandidates(bytes32[] _candidateIDs) onlyOwner public {\r\n        require (now < endRegPhase, 'Ballot setup time has ended!');\r\n        require (isFinalized == false);    // Check we are allowed to add options.\r\n\r\n        candidateIDs = _candidateIDs;\r\n    }\r\n\r\n    /*\r\n    *  Call this once all options have been added, this will stop further changes\r\n    *  and allow votes to be cast.\r\n    *  NOTE: this can only be called by the ballot owner.\r\n    */\r\n    function finalizeBallot(bytes32 phrase) onlyOwner public {\r\n        require(candidateIDs.length > 2);\r\n        require( keccak256(phrase) == keccak256(bytes32('finalize')));\r\n        require (now < startVotingPhase);\r\n        require (now > startRegPhase);\r\n\r\n        isFinalized = true;    // Stop the addition of any more change.\r\n    }\r\n\r\n    function resetTime(bytes32 phrase) onlyOwner public returns(bool) {\r\n        if (keccak256(phrase) == keccak256(bytes32('startRegPhase'))) {\r\n            startRegPhase = 0;\r\n        }\r\n        if (keccak256(phrase) == keccak256(bytes32('endRegPhase'))) {\r\n            endRegPhase = 0;\r\n        }\r\n        if (keccak256(phrase) == keccak256(bytes32('startVotingPhase'))) {\r\n            startVotingPhase = 0;\r\n        }\r\n        if (keccak256(phrase) == keccak256(bytes32('endVotingPhase'))) {\r\n            endVotingPhase = 0;\r\n        }\r\n        return keccak256(phrase) == keccak256(bytes32('startRegPhase'));\r\n    }\r\n\r\n    // ~~~~~~~~~~~~~~~~~~~~~~~~~~~~~~~~~~~~~~~~~~~~~~~~ Voting Options ~~~~~~~~~~~~~~~~~~~~~~~~~~~~~~~~~~~~~~~~~~~~~~~~ //\r\n\r\n    /*\r\n    *  Structure which represents a single voter.\r\n    */\r\n    struct Voter\r\n    {\r\n        bool eligibleToVote;    // Is this voter allowed to vote?\r\n        bool isVoted;             // State of whether this voter has voted.\r\n        bool isFunded;\r\n        bytes32[] votedFor;          // List candidates' ID this voter voted for.\r\n    }\r\n\r\n    address[] voterAddressList;\r\n    mapping(address => Voter) public voters; // State variable which maps any address to a 'Voter' struct.\r\n\r\n    /*\r\n    *  Allow an address (voter) to vote on this ballot.\r\n    *  NOTE: this can only be called by the ballot owner.\r\n    */\r\n    function giveRightToVote(address _voter) onlyOwner public {\r\n        require (now < endRegPhase, 'Ballot setup time has ended!');\r\n        voters[_voter].eligibleToVote = true;\r\n        registeredVoterCount += 1;      // Increment registered voters.\r\n        voterAddressList.push(_voter);\r\n    }\r\n\r\n    function claimFund() public {\r\n        address _voter = msg.sender;\r\n        require(voters[_voter].eligibleToVote); // User already had the right to vote\r\n        require(address(this).balance >= storedAmount);\r\n        require(!voters[_voter].isFunded);\r\n\r\n        voters[_voter].isFunded = true;\r\n        storedAmount -= amount;\r\n        _voter.transfer(amount);\r\n    }\r\n\r\n    /*\r\n    *  Allow an eligible voter to vote for their chosen votingOption.\r\n    *\r\n    *  NOTE: if anything fails during this call we will throw and automatically\r\n    *        revert all changes.\r\n    */\r\n    function voteForCandidate(bytes32 _candidateID) private {\r\n        require(validTime());\r\n        require(canVote(msg.sender));// Get the Voter struct for this sender.\r\n\r\n        voters[msg.sender].isVoted = true;\r\n        votedVoterCount += 1;\r\n        voters[msg.sender].votedFor.push(_candidateID); //Add candidateID to list whom voter voted\r\n        voteReceived[_candidateID].push(msg.sender);\r\n    }\r\n\r\n    /*\r\n    *  Allow an eligible voter to vote for a list of candidate\r\n    *  If they have already isVoted, then remove their vote from the previous\r\n    *  'votingOption' and assign it to the new one.\r\n    *\r\n    *  NOTE: if anything fails during this call we will throw and automatically\r\n    *        revert all changes.\r\n    */\r\n    function voteForCandidates(bytes32[] _candidateIDs) public {\r\n        require(validTime());\r\n        require(canVote(msg.sender));\r\n\r\n        for (uint i = 0; i < _candidateIDs.length; i++) {\r\n            voteForCandidate(_candidateIDs[i]);\r\n            //emit VoteFor(msg.sender, _candidateIDs);\r\n        }\r\n    }\r\n\r\n    function validCandidate(bytes32 _candidateID) public view returns (bool) {\r\n        for (uint i = 0; i < candidateIDs.length; i++) {\r\n            if (candidateIDs[i] == _candidateID) {\r\n                return true;\r\n            }\r\n        }\r\n        return false;\r\n    }\r\n\r\n    function hasRightToVote(address voterAddress) public view returns (bool) {\r\n        if (voters[voterAddress].eligibleToVote && voters[voterAddress].isVoted) {\r\n            return true;\r\n        } else {\r\n            return false;\r\n        }\r\n    }\r\n\r\n    // ~~~~~~~~~~~~~~~~~~~~~~~~~~~~~~~~~~~~~~~~~~~~~~ Getter Functions ~~~~~~~~~~~~~~~~~~~~~~~~~~~~~~~~~~~~~~~~~~~~~~~~ //\r\n\r\n    /*\r\n    * Returns the ballots bytes32.\r\n    */\r\n    function getBallotOverview() public returns (\r\n        bytes32, bool, uint, uint, uint, uint, uint, uint, uint, uint, uint\r\n    ) {\r\n        return ( // Do not change the return order\r\n        /*Ballot Info*/\r\n        ballotName,\r\n        isFinalized,\r\n        amount,\r\n        storedAmount,\r\n\r\n        /*Phase Info*/\r\n        startRegPhase,\r\n        endRegPhase,\r\n        startVotingPhase,\r\n        endVotingPhase,\r\n\r\n        /*Voter Info*/\r\n        registeredVoterCount,\r\n        votedVoterCount,\r\n        fundedVoterCount\r\n        );\r\n    }\r\n\r\n    /*\r\n    * Returns the number of candidates.\r\n    */\r\n    function getCandidateLength() public returns (uint)  {\r\n        return candidateIDs.length;\r\n    }\r\n\r\n    function getCandidateList() public returns (bytes32[]) {\r\n        return candidateIDs;\r\n    }\r\n\r\n    /*    *//*\r\n    * Returns the candidateID of a candidate at a specific index.\r\n    * Throws if index out of bounds.\r\n    *//*\r\n    function getVotingOptionsName(uint _index) returns (bytes32)\r\n    {\r\n        return votingOptions[_index].candidateID;\r\n    }*/\r\n\r\n    /*\r\n    * Returns the number of votes for a candidate at the specified index.\r\n    * Throws if index out of bounds.\r\n    */\r\n    function getCandidateResult(bytes32 _candidateID) public returns (uint, address[])\r\n    {\r\n        return (voteReceived[_candidateID].length, voteReceived[_candidateID]);\r\n    }\r\n\r\n    // Return a list of people who have voted for candidate\r\n\r\n\r\n    /*\r\n    * Returns if the voting options have been finalized.\r\n    */\r\n    function isBallotFinalized() public returns (bool)\r\n    {\r\n        return isFinalized;\r\n    }\r\n\r\n    function getVotedForList(address voterAddress) public returns (bytes32[]) {\r\n        return voters[voterAddress].votedFor;\r\n    }\r\n\r\n    function getVoterAddressList() onlyOwner public  returns (address[]) {\r\n        return voterAddressList;\r\n    }\r\n\r\n\r\n}\r\n",
  "sourcePath": "E:\\Work\\ETH\\EtherVote\\OnlineBallotRegulator\\truffle\\contracts\\BallotContract.sol",
  "compiler": {
    "name": "solc",
    "version": "0.4.24+commit.e67f0147.Emscripten.clang"
  },
  "schemaVersion": "2.0.1",
  "updatedAt": "2018-09-27T07:06:56.833Z"
}