{
  "contractName": "BallotContract",
  "abi": [
    {
      "constant": true,
      "inputs": [
        {
          "name": "",
          "type": "address"
        }
      ],
      "name": "voters",
      "outputs": [
        {
          "name": "eligibleToVote",
          "type": "bool"
        },
        {
          "name": "isVoted",
          "type": "bool"
        }
      ],
      "payable": false,
      "stateMutability": "view",
      "type": "function"
    },
    {
      "inputs": [],
      "payable": false,
      "stateMutability": "nonpayable",
      "type": "constructor"
    },
    {
      "constant": false,
      "inputs": [
        {
          "name": "_ballotName",
          "type": "bytes32"
        },
        {
          "name": "_startVotingPhase",
          "type": "uint256"
        },
        {
          "name": "_endVotingPhase",
          "type": "uint256"
        },
        {
          "name": "_startRegPhase",
          "type": "uint256"
        },
        {
          "name": "_endRegPhase",
          "type": "uint256"
        },
        {
          "name": "_candidateIDs",
          "type": "bytes32[]"
        }
      ],
      "name": "setupBallot",
      "outputs": [],
      "payable": false,
      "stateMutability": "nonpayable",
      "type": "function"
    },
    {
      "constant": false,
      "inputs": [
        {
          "name": "_candidateIDs",
          "type": "bytes32[]"
        }
      ],
      "name": "addCandidates",
      "outputs": [],
      "payable": false,
      "stateMutability": "nonpayable",
      "type": "function"
    },
    {
      "constant": false,
      "inputs": [],
      "name": "finalizeBallot",
      "outputs": [],
      "payable": false,
      "stateMutability": "nonpayable",
      "type": "function"
    },
    {
      "constant": false,
      "inputs": [
        {
          "name": "_voter",
          "type": "address"
        }
      ],
      "name": "giveRightToVote",
      "outputs": [],
      "payable": false,
      "stateMutability": "nonpayable",
      "type": "function"
    },
    {
      "constant": false,
      "inputs": [
        {
          "name": "_candidateIDs",
          "type": "bytes32[]"
        }
      ],
      "name": "voteForCandidates",
      "outputs": [],
      "payable": false,
      "stateMutability": "nonpayable",
      "type": "function"
    },
    {
      "constant": true,
      "inputs": [
        {
          "name": "_candidateID",
          "type": "bytes32"
        }
      ],
      "name": "validCandidate",
      "outputs": [
        {
          "name": "",
          "type": "bool"
        }
      ],
      "payable": false,
      "stateMutability": "view",
      "type": "function"
    },
    {
      "constant": false,
      "inputs": [],
      "name": "getBallotInfo",
      "outputs": [
        {
          "name": "",
          "type": "bytes32"
        },
        {
          "name": "",
          "type": "uint256"
        },
        {
          "name": "",
          "type": "uint256"
        },
        {
          "name": "",
          "type": "uint256"
        },
        {
          "name": "",
          "type": "uint256"
        },
        {
          "name": "",
          "type": "bool"
        },
        {
          "name": "",
          "type": "uint256"
        },
        {
          "name": "",
          "type": "uint256"
        }
      ],
      "payable": false,
      "stateMutability": "nonpayable",
      "type": "function"
    },
    {
      "constant": false,
      "inputs": [],
      "name": "getCandidateLength",
      "outputs": [
        {
          "name": "",
          "type": "uint256"
        }
      ],
      "payable": false,
      "stateMutability": "nonpayable",
      "type": "function"
    },
    {
      "constant": false,
      "inputs": [],
      "name": "getCandidateList",
      "outputs": [
        {
          "name": "",
          "type": "bytes32[]"
        }
      ],
      "payable": false,
      "stateMutability": "nonpayable",
      "type": "function"
    },
    {
      "constant": false,
      "inputs": [
        {
          "name": "_candidateID",
          "type": "bytes32"
        }
      ],
      "name": "getCandidateVoteCount",
      "outputs": [
        {
          "name": "",
          "type": "uint256"
        }
      ],
      "payable": false,
      "stateMutability": "nonpayable",
      "type": "function"
    },
    {
      "constant": false,
      "inputs": [
        {
          "name": "_candidateID",
          "type": "bytes32"
        }
      ],
      "name": "getCandidateVoterList",
      "outputs": [
        {
          "name": "",
          "type": "address[]"
        }
      ],
      "payable": false,
      "stateMutability": "nonpayable",
      "type": "function"
    },
    {
      "constant": false,
      "inputs": [],
      "name": "isBallotFinalized",
      "outputs": [
        {
          "name": "",
          "type": "bool"
        }
      ],
      "payable": false,
      "stateMutability": "nonpayable",
      "type": "function"
    },
    {
      "constant": false,
      "inputs": [],
      "name": "getStartRegPhase",
      "outputs": [
        {
          "name": "",
          "type": "uint256"
        }
      ],
      "payable": false,
      "stateMutability": "nonpayable",
      "type": "function"
    },
    {
      "constant": false,
      "inputs": [],
      "name": "getEndRegPhase",
      "outputs": [
        {
          "name": "",
          "type": "uint256"
        }
      ],
      "payable": false,
      "stateMutability": "nonpayable",
      "type": "function"
    },
    {
      "constant": false,
      "inputs": [],
      "name": "getStartVotingPhase",
      "outputs": [
        {
          "name": "",
          "type": "uint256"
        }
      ],
      "payable": false,
      "stateMutability": "nonpayable",
      "type": "function"
    },
    {
      "constant": false,
      "inputs": [],
      "name": "getEndVotingPhase",
      "outputs": [
        {
          "name": "",
          "type": "uint256"
        }
      ],
      "payable": false,
      "stateMutability": "nonpayable",
      "type": "function"
    },
    {
      "constant": false,
      "inputs": [],
      "name": "close",
      "outputs": [],
      "payable": false,
      "stateMutability": "nonpayable",
      "type": "function"
    }
  ],
  "bytecode": "0x608060405234801561001057600080fd5b50336000806101000a81548173ffffffffffffffffffffffffffffffffffffffff021916908373ffffffffffffffffffffffffffffffffffffffff160217905550611355806100606000396000f3006080604052600436106100fc576000357c0100000000000000000000000000000000000000000000000000000000900463ffffffff168063392e6678146101015780633bdcb71e1461013e578063432aacf21461016957806343d726d6146101945780634dc0f777146101ab5780634e2ca7af146101d65780636eab06c4146102015780639098ed151461022a5780639e7b8d6114610253578063a3ec138d1461027c578063c58561b2146102ba578063d14bd961146102e5578063d4f8ecb814610322578063d7331b8414610339578063e17b240a14610376578063f7522a831461039f578063f767b1ca146103ca578063fdbc4006146103fc575b600080fd5b34801561010d57600080fd5b5061012860048036036101239190810190610ed4565b610427565b604051610135919061110b565b60405180910390f35b34801561014a57600080fd5b50610153610486565b604051610160919061110b565b60405180910390f35b34801561017557600080fd5b5061017e61049d565b60405161018b91906111ed565b60405180910390f35b3480156101a057600080fd5b506101a96104a7565b005b3480156101b757600080fd5b506101c061053c565b6040516101cd91906111ed565b60405180910390f35b3480156101e257600080fd5b506101eb610546565b6040516101f891906111ed565b60405180910390f35b34801561020d57600080fd5b5061022860048036036102239190810190610e93565b610550565b005b34801561023657600080fd5b50610251600480360361024c9190810190610efd565b61062d565b005b34801561025f57600080fd5b5061027a60048036036102759190810190610e6a565b610751565b005b34801561028857600080fd5b506102a3600480360361029e9190810190610e6a565b610861565b6040516102b1929190611126565b60405180910390f35b3480156102c657600080fd5b506102cf61089f565b6040516102dc91906111ed565b60405180910390f35b3480156102f157600080fd5b5061030c60048036036103079190810190610ed4565b6108a9565b60405161031991906111ed565b60405180910390f35b34801561032e57600080fd5b506103376108d1565b005b34801561034557600080fd5b50610360600480360361035b9190810190610ed4565b61095d565b60405161036d91906110c7565b60405180910390f35b34801561038257600080fd5b5061039d60048036036103989190810190610e93565b610a06565b005b3480156103ab57600080fd5b506103b4610b2f565b6040516103c191906111ed565b60405180910390f35b3480156103d657600080fd5b506103df610b3c565b6040516103f398979695949392919061114f565b60405180910390f35b34801561040857600080fd5b50610411610b87565b60405161041e91906110e9565b60405180910390f35b600080600090505b60098054905081101561047b57826000191660098281548110151561045057fe5b906000526020600020015460001916141561046e5760019150610480565b808060010191505061042f565b600091505b50919050565b6000600660009054906101000a900460ff16905090565b6000600254905090565b6000809054906101000a900473ffffffffffffffffffffffffffffffffffffffff1673ffffffffffffffffffffffffffffffffffffffff163373ffffffffffffffffffffffffffffffffffffffff1614151561050257600080fd5b6000809054906101000a900473ffffffffffffffffffffffffffffffffffffffff1673ffffffffffffffffffffffffffffffffffffffff16ff5b6000600554905090565b6000600454905090565b6000809054906101000a900473ffffffffffffffffffffffffffffffffffffffff1673ffffffffffffffffffffffffffffffffffffffff163373ffffffffffffffffffffffffffffffffffffffff161415156105ab57600080fd5b600354421015156105f1576040517f08c379a00000000000000000000000000000000000000000000000000000000081526004016105e8906111cd565b60405180910390fd5b60001515600660009054906101000a900460ff16151514151561061357600080fd5b8060099080519060200190610629929190610d0b565b5050565b6000809054906101000a900473ffffffffffffffffffffffffffffffffffffffff1673ffffffffffffffffffffffffffffffffffffffff163373ffffffffffffffffffffffffffffffffffffffff1614151561068857600080fd5b81421015156106cc576040517f08c379a00000000000000000000000000000000000000000000000000000000081526004016106c3906111cd565b60405180910390fd5b60001515600660009054906101000a900460ff1615151415156106ee57600080fd5b8560018160001916905550826002819055508160038190555084600481905550836005819055506000600660006101000a81548160ff0219169083151502179055506000600781905550600060088190555061074981610550565b505050505050565b6000809054906101000a900473ffffffffffffffffffffffffffffffffffffffff1673ffffffffffffffffffffffffffffffffffffffff163373ffffffffffffffffffffffffffffffffffffffff161415156107ac57600080fd5b600354421015156107f2576040517f08c379a00000000000000000000000000000000000000000000000000000000081526004016107e9906111cd565b60405180910390fd5b6001600b60008373ffffffffffffffffffffffffffffffffffffffff1673ffffffffffffffffffffffffffffffffffffffff16815260200190815260200160002060000160006101000a81548160ff021916908315150217905550600160076000828254019250508190555050565b600b6020528060005260406000206000915090508060000160009054906101000a900460ff16908060000160019054906101000a900460ff16905082565b6000600354905090565b6000600a60008360001916600019168152602001908152602001600020805490509050919050565b6000809054906101000a900473ffffffffffffffffffffffffffffffffffffffff1673ffffffffffffffffffffffffffffffffffffffff163373ffffffffffffffffffffffffffffffffffffffff1614151561092c57600080fd5b600260098054905011151561094057600080fd5b6001600660006101000a81548160ff021916908315150217905550565b6060600a600083600019166000191681526020019081526020016000208054806020026020016040519081016040528092919081815260200182805480156109fa57602002820191906000526020600020905b8160009054906101000a900473ffffffffffffffffffffffffffffffffffffffff1673ffffffffffffffffffffffffffffffffffffffff16815260200190600101908083116109b0575b50505050509050919050565b610a0e610d5e565b6000600b60003373ffffffffffffffffffffffffffffffffffffffff1673ffffffffffffffffffffffffffffffffffffffff168152602001908152602001600020606060405190810160405290816000820160009054906101000a900460ff161515151581526020016000820160019054906101000a900460ff1615151515815260200160018201805480602002602001604051908101604052809291908181526020018280548015610ae457602002820191906000526020600020905b81546000191681526020019060010190808311610acc575b5050505050815250509150600090505b8251811015610b2a57610b1d8382815181101515610b0e57fe5b90602001906020020151610be3565b8080600101915050610af4565b505050565b6000600980549050905090565b600080600080600080600080600154600254600354600454600554600660009054906101000a900460ff16600754600854975097509750975097509750975097509091929394959697565b60606009805480602002602001604051908101604052809291908181526020018280548015610bd957602002820191906000526020600020905b81546000191681526020019060010190808311610bc1575b5050505050905090565b6000600b60003373ffffffffffffffffffffffffffffffffffffffff1673ffffffffffffffffffffffffffffffffffffffff168152602001908152602001600020905060018160000160016101000a81548160ff021916908315150217905550600160086000828254019250508190555080600101829080600181540180825580915050906001820390600052602060002001600090919290919091509060001916905550600a600083600019166000191681526020019081526020016000203390806001815401808255809150509060018203906000526020600020016000909192909190916101000a81548173ffffffffffffffffffffffffffffffffffffffff021916908373ffffffffffffffffffffffffffffffffffffffff160217905550505050565b828054828255906000526020600020908101928215610d4d579160200282015b82811115610d4c578251829060001916905591602001919060010190610d2b565b5b509050610d5a9190610d84565b5090565b606060405190810160405280600015158152602001600015158152602001606081525090565b610da691905b80821115610da2576000816000905550600101610d8a565b5090565b90565b6000610db582356112e7565b905092915050565b600082601f8301121515610dd057600080fd5b8135610de3610dde82611235565b611208565b91508181835260208401935060208101905083856020840282011115610e0857600080fd5b60005b83811015610e385781610e1e8882610e42565b845260208401935060208301925050600181019050610e0b565b5050505092915050565b6000610e4e8235611307565b905092915050565b6000610e628235611311565b905092915050565b600060208284031215610e7c57600080fd5b6000610e8a84828501610da9565b91505092915050565b600060208284031215610ea557600080fd5b600082013567ffffffffffffffff811115610ebf57600080fd5b610ecb84828501610dbd565b91505092915050565b600060208284031215610ee657600080fd5b6000610ef484828501610e42565b91505092915050565b60008060008060008060c08789031215610f1657600080fd5b6000610f2489828a01610e42565b9650506020610f3589828a01610e56565b9550506040610f4689828a01610e56565b9450506060610f5789828a01610e56565b9350506080610f6889828a01610e56565b92505060a087013567ffffffffffffffff811115610f8557600080fd5b610f9189828a01610dbd565b9150509295509295509295565b610fa7816112a7565b82525050565b6000610fb882611277565b808452602084019350610fca8361125d565b60005b82811015610ffc57610fe0868351610f9e565b610fe98261128d565b9150602086019550600181019050610fcd565b50849250505092915050565b600061101382611282565b8084526020840193506110258361126a565b60005b828110156110575761103b868351611072565b6110448261129a565b9150602086019550600181019050611028565b50849250505092915050565b61106c816112c7565b82525050565b61107b816112d3565b82525050565b6000601c82527f42616c6c6f742073657475702074696d652068617320656e64656421000000006020830152604082019050919050565b6110c1816112dd565b82525050565b600060208201905081810360008301526110e18184610fad565b905092915050565b600060208201905081810360008301526111038184611008565b905092915050565b60006020820190506111206000830184611063565b92915050565b600060408201905061113b6000830185611063565b6111486020830184611063565b9392505050565b600061010082019050611165600083018b611072565b611172602083018a6110b8565b61117f60408301896110b8565b61118c60608301886110b8565b61119960808301876110b8565b6111a660a0830186611063565b6111b360c08301856110b8565b6111c060e08301846110b8565b9998505050505050505050565b600060208201905081810360008301526111e681611081565b9050919050565b600060208201905061120260008301846110b8565b92915050565b6000604051905081810181811067ffffffffffffffff8211171561122b57600080fd5b8060405250919050565b600067ffffffffffffffff82111561124c57600080fd5b602082029050602081019050919050565b6000602082019050919050565b6000602082019050919050565b600081519050919050565b600081519050919050565b6000602082019050919050565b6000602082019050919050565b600073ffffffffffffffffffffffffffffffffffffffff82169050919050565b60008115159050919050565b6000819050919050565b6000819050919050565b600073ffffffffffffffffffffffffffffffffffffffff82169050919050565b6000819050919050565b60008190509190505600a265627a7a72305820be24e53129b21f404248ccf8e5c40de8dcbede29037eeb7bf0180d294bda23cf6c6578706572696d656e74616cf50037",
  "source": "pragma solidity ^0.4.24;\r\npragma experimental ABIEncoderV2; // Allow passing struct as argument\r\n\r\n// We have to specify what version of compiler this code will compile with\r\n\r\ncontract BallotContract {\r\n\r\n\r\n    // ~~~~~~~~~~~~~~~~~~~~~~~~~~~~~~~~~~~~~~~~~~~~ Contract Constructor ~~~~~~~~~~~~~~~~~~~~~~~~~~~~~~~~~~~~~~~~~~~~~~ //\r\n\r\n    address owner;                  // The address of the owner. Set in 'Ballot()'\r\n\r\n\r\n\r\n    /*\r\n    * Modifier to only allow the owner to call a function.\r\n    */\r\n    modifier onlyOwner\r\n    {\r\n        require( msg.sender             == owner );\r\n        _;\r\n\r\n    }\r\n\r\n    /*\r\n    *  This function is called *once* at first initialization into the blockchain.\r\n    */\r\n    constructor ()\r\n    {\r\n        owner                   = msg.sender;       // Set the owner to the address creating the contract.\r\n    }\r\n\r\n    // ~~~~~~~~~~~~~~~~~~~~~~~~~~~~~~~~~~~~~~~~~~~~ Validator ~~~~~~~~~~~~~~~~~~~~~~~~~~~~~~~~~~~~~~~~~~~~~~ //\r\n\r\n    function validTime() private view returns (bool) {\r\n        if ( now > endVotingPhase || now < startVotingPhase)\r\n            return false;\r\n    }\r\n\r\n    function canVote(Voter _voter) private view returns (bool) {\r\n        if (isFinalized == false)       // If the options are not finalized, we cannot vote.\r\n            return false;\r\n\r\n        if (_voter.eligibleToVote == false)\r\n            return false;\r\n\r\n        if (_voter.isVoted == true) // If the voter has already voted, voter cannot vote anymore\r\n            return false;\r\n        return true;\r\n    }\r\n\r\n    // ~~~~~~~~~~~~~~~~~~~~~~~~~~~~~~~~~~~~~~~~~~~~~~ Ballot Options (Candidate) ~~~~~~~~~~~~~~~~~~~~~~~~~~~~~~~~~~~~~~~~~~~~~~~~~~ //\r\n\r\n\r\n    bytes32  ballotName; // The ballot candidateID.\r\n\r\n    // Time: seconds since 1970-01-01\r\n    uint    startRegPhase;\r\n    uint    endRegPhase;\r\n    uint    startVotingPhase;\r\n    uint    endVotingPhase;\r\n\r\n    // Ballot status\r\n    bool    isFinalized;       // Whether the owner can still add voting options.\r\n    uint    registeredVoterCount;   // Total number of voter addresses registered.\r\n    uint    votedVoterCount;\r\n\r\n    //\r\n    bytes32[] candidateIDs;\r\n    mapping (bytes32 => address[]) voteReceived; //map candidateId to array of address that voted for them\r\n\r\n    function setupBallot (bytes32 _ballotName, uint _startVotingPhase, uint _endVotingPhase,\r\n                          uint _startRegPhase, uint _endRegPhase, bytes32[] _candidateIDs) onlyOwner public {\r\n\r\n        require (now < _endRegPhase, 'Ballot setup time has ended!');\r\n        require (isFinalized == false);\r\n\r\n        ballotName = _ballotName;\r\n        startRegPhase = _startRegPhase;\r\n        endRegPhase = _endRegPhase;\r\n        startVotingPhase = _startVotingPhase;\r\n        endVotingPhase = _endVotingPhase;\r\n\r\n        isFinalized = false;\r\n        registeredVoterCount = 0;\r\n        votedVoterCount = 0;\r\n\r\n        addCandidates(_candidateIDs);\r\n    }\r\n\r\n\r\n    function addCandidates(bytes32[] _candidateIDs) onlyOwner public {\r\n        require (now < endRegPhase, 'Ballot setup time has ended!');\r\n        require (isFinalized == false);    // Check we are allowed to add options.\r\n\r\n        candidateIDs = _candidateIDs;\r\n    }\r\n\r\n    /*\r\n    *  Call this once all options have been added, this will stop further changes\r\n    *  and allow votes to be cast.\r\n    *  NOTE: this can only be called by the ballot owner.\r\n    */\r\n    function finalizeBallot() onlyOwner public\r\n    {\r\n        require(candidateIDs.length > 2);\r\n\r\n        isFinalized = true;    // Stop the addition of any more change.\r\n    }\r\n\r\n    // ~~~~~~~~~~~~~~~~~~~~~~~~~~~~~~~~~~~~~~~~~~~~~~~~ Voting Options ~~~~~~~~~~~~~~~~~~~~~~~~~~~~~~~~~~~~~~~~~~~~~~~~ //\r\n\r\n    /*\r\n    *  Structure which represents a single voter.\r\n    */\r\n    struct Voter\r\n    {\r\n        bool eligibleToVote;    // Is this voter allowed to vote?\r\n        bool isVoted;             // State of whether this voter has voted.\r\n        bytes32[] votedFor;          // List candidates' ID this voter voted for.\r\n    }\r\n    mapping(address => Voter) public voters; // State variable which maps any address to a 'Voter' struct.\r\n\r\n    /*\r\n    *  Allow an address (voter) to vote on this ballot.\r\n    *  NOTE: this can only be called by the ballot owner.\r\n    */\r\n    function giveRightToVote(address _voter) onlyOwner public\r\n    {\r\n        require (now < endRegPhase, 'Ballot setup time has ended!');\r\n        voters[_voter].eligibleToVote = true;\r\n        registeredVoterCount += 1;      // Increment registered voters.\r\n    }\r\n\r\n    /*\r\n    *  Allow an eligible voter to vote for their chosen votingOption.\r\n    *\r\n    *  NOTE: if anything fails during this call we will throw and automatically\r\n    *        revert all changes.\r\n    */\r\n    function voteForCandidate(bytes32 _candidateID) private\r\n    {\r\n        Voter storage voter = voters[msg.sender];    // Get the Voter struct for this sender.\r\n\r\n        voter.isVoted = true;\r\n        votedVoterCount += 1;\r\n        voter.votedFor.push(_candidateID); //Add candidateID to list whom voter voted\r\n        voteReceived[_candidateID].push(msg.sender);\r\n    }\r\n\r\n    /*\r\n    *  Allow an eligible voter to vote for a list of candidate\r\n    *  If they have already isVoted, then remove their vote from the previous\r\n    *  'votingOption' and assign it to the new one.\r\n    *\r\n    *  NOTE: if anything fails during this call we will throw and automatically\r\n    *        revert all changes.\r\n    */\r\n    function voteForCandidates(bytes32[] _candidateIDs) public {\r\n        Voter memory voter = voters[msg.sender];    // Get the Voter struct for this sender.\r\n\r\n\r\n\r\n        for (uint i = 0; i < _candidateIDs.length; i++) {\r\n            voteForCandidate(_candidateIDs[i]);\r\n            //emit VoteFor(msg.sender, _candidateIDs);\r\n        }\r\n    }\r\n\r\n    function validCandidate(bytes32 _candidateID) public view returns (bool) {\r\n        for (uint i = 0; i < candidateIDs.length; i++) {\r\n            if (candidateIDs[i] == _candidateID) {\r\n                return true;\r\n            }\r\n        }\r\n        return false;\r\n    }\r\n\r\n    // ~~~~~~~~~~~~~~~~~~~~~~~~~~~~~~~~~~~~~~~~~~~~~~ Getter Functions ~~~~~~~~~~~~~~~~~~~~~~~~~~~~~~~~~~~~~~~~~~~~~~~~ //\r\n\r\n    /*\r\n    * Returns the ballots bytes32.\r\n    */\r\n    function getBallotInfo() public returns (\r\n        bytes32, uint, uint, uint, uint, bool, uint, uint\r\n    ) {\r\n        return (\r\n        ballotName,\r\n        startRegPhase,\r\n        endRegPhase,\r\n        startVotingPhase,\r\n        endVotingPhase,\r\n        isFinalized,\r\n        registeredVoterCount,\r\n        votedVoterCount\r\n        );\r\n    }\r\n\r\n    /*\r\n    * Returns the number of candidates.\r\n    */\r\n    function getCandidateLength() public returns (uint)\r\n    {\r\n        return candidateIDs.length;\r\n    }\r\n\r\n    function getCandidateList() public returns (bytes32[]) {\r\n        return candidateIDs;\r\n    }\r\n\r\n    /*    *//*\r\n    * Returns the candidateID of a candidate at a specific index.\r\n    * Throws if index out of bounds.\r\n    *//*\r\n    function getVotingOptionsName(uint _index) returns (bytes32)\r\n    {\r\n        return votingOptions[_index].candidateID;\r\n    }*/\r\n\r\n    /*\r\n    * Returns the number of votes for a candidate at the specified index.\r\n    * Throws if index out of bounds.\r\n    */\r\n    function getCandidateVoteCount(bytes32 _candidateID) public returns (uint)\r\n    {\r\n        return voteReceived[_candidateID].length;\r\n    }\r\n    function getCandidateVoterList(bytes32 _candidateID) public returns (address[]) {\r\n        return voteReceived[_candidateID];\r\n    }\r\n\r\n\r\n    /*\r\n    * Returns if the voting options have been finalized.\r\n    */\r\n    function isBallotFinalized() public returns (bool)\r\n    {\r\n        return isFinalized;\r\n    }\r\n\r\n    /*\r\n    * Returns the end time of the ballot in seconds since epoch.\r\n    */\r\n    function getStartRegPhase() public returns (uint)\r\n    {\r\n        return startRegPhase;\r\n    }\r\n\r\n    function getEndRegPhase() public returns (uint)\r\n    {\r\n        return endRegPhase;\r\n    }\r\n\r\n    function getStartVotingPhase() public returns (uint)\r\n    {\r\n        return startVotingPhase;\r\n    }\r\n\r\n    function getEndVotingPhase() public returns (uint)\r\n    {\r\n        return endVotingPhase;\r\n    }\r\n\r\n    function close() onlyOwner public {\r\n        selfdestruct(owner);\r\n    }\r\n\r\n}\r\n",
  "sourcePath": "E:\\Work\\ETH\\EtherVote\\OnlineBallotRegulator\\truffle\\contracts\\BallotContract.sol",
  "compiler": {
    "name": "solc",
    "version": "0.4.24+commit.e67f0147.Emscripten.clang"
  },
  "schemaVersion": "2.0.1",
  "updatedAt": "2018-08-15T07:59:11.884Z"
}