{
  "contractName": "BallotContract",
  "abi": [
    {
      "constant": true,
      "inputs": [
        {
          "name": "",
          "type": "address"
        }
      ],
      "name": "voters",
      "outputs": [
        {
          "name": "eligibleToVote",
          "type": "bool"
        },
        {
          "name": "isVoted",
          "type": "bool"
        },
        {
          "name": "isFunded",
          "type": "bool"
        }
      ],
      "payable": false,
      "stateMutability": "view",
      "type": "function"
    },
    {
      "inputs": [],
      "payable": false,
      "stateMutability": "nonpayable",
      "type": "constructor"
    },
    {
      "payable": true,
      "stateMutability": "payable",
      "type": "fallback"
    },
    {
      "constant": false,
      "inputs": [
        {
          "name": "phrase",
          "type": "bytes32"
        }
      ],
      "name": "close",
      "outputs": [],
      "payable": false,
      "stateMutability": "nonpayable",
      "type": "function"
    },
    {
      "constant": false,
      "inputs": [
        {
          "name": "phrase",
          "type": "bytes32"
        }
      ],
      "name": "claimStoredAmount",
      "outputs": [],
      "payable": false,
      "stateMutability": "nonpayable",
      "type": "function"
    },
    {
      "constant": false,
      "inputs": [
        {
          "name": "_ballotName",
          "type": "bytes32"
        },
        {
          "name": "_fundAmount",
          "type": "uint256"
        },
        {
          "name": "_limitCandidate",
          "type": "uint256"
        },
        {
          "name": "_startVotingPhase",
          "type": "uint256"
        },
        {
          "name": "_endVotingPhase",
          "type": "uint256"
        },
        {
          "name": "_startRegPhase",
          "type": "uint256"
        },
        {
          "name": "_endRegPhase",
          "type": "uint256"
        },
        {
          "name": "_candidateIDs",
          "type": "bytes32[]"
        }
      ],
      "name": "setupBallot",
      "outputs": [],
      "payable": false,
      "stateMutability": "nonpayable",
      "type": "function"
    },
    {
      "constant": false,
      "inputs": [
        {
          "name": "_amount",
          "type": "uint256"
        }
      ],
      "name": "setTransferAmount",
      "outputs": [],
      "payable": false,
      "stateMutability": "nonpayable",
      "type": "function"
    },
    {
      "constant": false,
      "inputs": [
        {
          "name": "_candidateIDs",
          "type": "bytes32[]"
        }
      ],
      "name": "addCandidates",
      "outputs": [],
      "payable": false,
      "stateMutability": "nonpayable",
      "type": "function"
    },
    {
      "constant": false,
      "inputs": [
        {
          "name": "phrase",
          "type": "bytes32"
        }
      ],
      "name": "finalizeBallot",
      "outputs": [],
      "payable": false,
      "stateMutability": "nonpayable",
      "type": "function"
    },
    {
      "constant": false,
      "inputs": [],
      "name": "publishBallot",
      "outputs": [],
      "payable": false,
      "stateMutability": "nonpayable",
      "type": "function"
    },
    {
      "constant": false,
      "inputs": [
        {
          "name": "phrase",
          "type": "bytes32"
        }
      ],
      "name": "resetTime",
      "outputs": [],
      "payable": false,
      "stateMutability": "nonpayable",
      "type": "function"
    },
    {
      "constant": false,
      "inputs": [
        {
          "name": "_voter",
          "type": "address"
        }
      ],
      "name": "giveRightToVote",
      "outputs": [],
      "payable": false,
      "stateMutability": "nonpayable",
      "type": "function"
    },
    {
      "constant": false,
      "inputs": [
        {
          "name": "_candidateIDs",
          "type": "bytes32[]"
        }
      ],
      "name": "voteForCandidates",
      "outputs": [],
      "payable": false,
      "stateMutability": "nonpayable",
      "type": "function"
    },
    {
      "constant": true,
      "inputs": [
        {
          "name": "voterAddress",
          "type": "address"
        }
      ],
      "name": "hasRightToVote",
      "outputs": [
        {
          "name": "",
          "type": "bool"
        }
      ],
      "payable": false,
      "stateMutability": "view",
      "type": "function"
    },
    {
      "constant": false,
      "inputs": [],
      "name": "getBallotOverview",
      "outputs": [
        {
          "name": "",
          "type": "bytes32"
        },
        {
          "name": "",
          "type": "uint256"
        },
        {
          "name": "",
          "type": "bool"
        },
        {
          "name": "",
          "type": "uint256"
        },
        {
          "name": "",
          "type": "uint256"
        },
        {
          "name": "",
          "type": "uint256"
        },
        {
          "name": "",
          "type": "uint256"
        },
        {
          "name": "",
          "type": "uint256"
        },
        {
          "name": "",
          "type": "uint256"
        },
        {
          "name": "",
          "type": "uint256"
        },
        {
          "name": "",
          "type": "uint256"
        }
      ],
      "payable": false,
      "stateMutability": "nonpayable",
      "type": "function"
    },
    {
      "constant": false,
      "inputs": [],
      "name": "getBallotPhases",
      "outputs": [
        {
          "name": "",
          "type": "uint256"
        },
        {
          "name": "",
          "type": "uint256"
        },
        {
          "name": "",
          "type": "uint256"
        },
        {
          "name": "",
          "type": "uint256"
        }
      ],
      "payable": false,
      "stateMutability": "nonpayable",
      "type": "function"
    },
    {
      "constant": false,
      "inputs": [],
      "name": "getCandidateLength",
      "outputs": [
        {
          "name": "",
          "type": "uint256"
        }
      ],
      "payable": false,
      "stateMutability": "nonpayable",
      "type": "function"
    },
    {
      "constant": false,
      "inputs": [],
      "name": "getCandidateList",
      "outputs": [
        {
          "name": "",
          "type": "bytes32[]"
        }
      ],
      "payable": false,
      "stateMutability": "nonpayable",
      "type": "function"
    },
    {
      "constant": false,
      "inputs": [
        {
          "name": "_candidateID",
          "type": "bytes32"
        }
      ],
      "name": "getCandidateResult",
      "outputs": [
        {
          "name": "",
          "type": "uint256"
        },
        {
          "name": "",
          "type": "address[]"
        }
      ],
      "payable": false,
      "stateMutability": "nonpayable",
      "type": "function"
    },
    {
      "constant": false,
      "inputs": [],
      "name": "isBallotFinalized",
      "outputs": [
        {
          "name": "",
          "type": "bool"
        }
      ],
      "payable": false,
      "stateMutability": "nonpayable",
      "type": "function"
    },
    {
      "constant": false,
      "inputs": [
        {
          "name": "voterAddress",
          "type": "address"
        }
      ],
      "name": "getVotedForList",
      "outputs": [
        {
          "name": "",
          "type": "bytes32[]"
        }
      ],
      "payable": false,
      "stateMutability": "nonpayable",
      "type": "function"
    },
    {
      "constant": false,
      "inputs": [
        {
          "name": "candidateID",
          "type": "bytes32"
        }
      ],
      "name": "getAddressForCandidate",
      "outputs": [
        {
          "name": "",
          "type": "address[]"
        }
      ],
      "payable": false,
      "stateMutability": "nonpayable",
      "type": "function"
    },
    {
      "constant": false,
      "inputs": [],
      "name": "getEligibleVoterList",
      "outputs": [
        {
          "name": "",
          "type": "address[]"
        }
      ],
      "payable": false,
      "stateMutability": "nonpayable",
      "type": "function"
    }
  ],
  "bytecode": "0x608060405234801561001057600080fd5b50336000806101000a81548173ffffffffffffffffffffffffffffffffffffffff021916908373ffffffffffffffffffffffffffffffffffffffff1602179055507f4e6f74207365740000000000000000000000000000000000000000000000000060018160001916905550600060028190555060006003819055506000600481905550600060058190555060006006819055506000600760016101000a81548160ff021916908315150217905550600060088190555060006009819055503073ffffffffffffffffffffffffffffffffffffffff1631600b819055506000600a81905550612120806101046000396000f30060806040526004361061011d576000357c0100000000000000000000000000000000000000000000000000000000900463ffffffff16806302f6faa91461012f57806313fc1e0b1461014657806339c79e0c146101835780633bdcb71e146101ac578063431f96ac146101d7578063458b6474146102005780635ef955dc1461023e57806365c93769146102675780636eab06c4146102a457806371f9a5dd146102cd57806378221c7d146102fb57806381c82233146103265780638b5e05e21461034f5780639e7b8d6114610378578063a3ec138d146103a1578063bd8f7d2e146103e0578063c623f91014610415578063e17b240a1461043e578063eeaa17a514610467578063f7522a83146104a4578063fdbc4006146104cf575b34600b60008282540192505081905550005b34801561013b57600080fd5b506101446104fa565b005b34801561015257600080fd5b5061016d60048036036101689190810190611b9d565b610582565b60405161017a9190611de2565b60405180910390f35b34801561018f57600080fd5b506101aa60048036036101a59190810190611b9d565b610646565b005b3480156101b857600080fd5b506101c16107c6565b6040516101ce9190611e26565b60405180910390f35b3480156101e357600080fd5b506101fe60048036036101f99190810190611b9d565b6107dd565b005b34801561020c57600080fd5b5061022760048036036102229190810190611b9d565b610a07565b604051610235929190611f5e565b60405180910390f35b34801561024a57600080fd5b5061026560048036036102609190810190611b9d565b610ad6565b005b34801561027357600080fd5b5061028e60048036036102899190810190611b33565b610c2f565b60405161029b9190611e26565b60405180910390f35b3480156102b057600080fd5b506102cb60048036036102c69190810190611b5c565b610cf2565b005b3480156102d957600080fd5b506102e2610dcf565b6040516102f29493929190611f8e565b60405180910390f35b34801561030757600080fd5b50610310610def565b60405161031d9190611de2565b60405180910390f35b34801561033257600080fd5b5061034d60048036036103489190810190611c90565b610ef3565b005b34801561035b57600080fd5b5061037660048036036103719190810190611bc6565b610f5e565b005b34801561038457600080fd5b5061039f600480360361039a9190810190611b33565b61106b565b005b3480156103ad57600080fd5b506103c860048036036103c39190810190611b33565b611224565b6040516103d793929190611e41565b60405180910390f35b3480156103ec57600080fd5b506103f5611275565b60405161040c9b9a99989796959493929190611e78565b60405180910390f35b34801561042157600080fd5b5061043c60048036036104379190810190611b9d565b611349565b005b34801561044a57600080fd5b5061046560048036036104609190810190611b5c565b611466565b005b34801561047357600080fd5b5061048e60048036036104899190810190611b33565b611555565b60405161049b9190611e04565b60405180910390f35b3480156104b057600080fd5b506104b961160e565b6040516104c69190611f43565b60405180910390f35b3480156104db57600080fd5b506104e461161b565b6040516104f19190611e04565b60405180910390f35b6000809054906101000a900473ffffffffffffffffffffffffffffffffffffffff1673ffffffffffffffffffffffffffffffffffffffff163373ffffffffffffffffffffffffffffffffffffffff1614151561055557600080fd5b6004544211151561056557600080fd5b6001600760006101000a81548160ff021916908315150217905550565b6060600760009054906101000a900460ff16151561059f57600080fd5b600d6000836000191660001916815260200190815260200160002080548060200260200160405190810160405280929190818152602001828054801561063a57602002820191906000526020600020905b8160009054906101000a900473ffffffffffffffffffffffffffffffffffffffff1673ffffffffffffffffffffffffffffffffffffffff16815260200190600101908083116105f0575b50505050509050919050565b6000809054906101000a900473ffffffffffffffffffffffffffffffffffffffff1673ffffffffffffffffffffffffffffffffffffffff163373ffffffffffffffffffffffffffffffffffffffff161415156106a157600080fd5b7f636c6f73650000000000000000000000000000000000000000000000000000006040518082600019166000191681526020019150506040518091039020600019168160405180826000191660001916815260200191505060405180910390206000191614151561071157600080fd5b6000600b5411151561072257600080fd5b6000809054906101000a900473ffffffffffffffffffffffffffffffffffffffff1673ffffffffffffffffffffffffffffffffffffffff166108fc600b549081150290604051600060405180830381858888f1935050505015801561078b573d6000803e3d6000fd5b506000809054906101000a900473ffffffffffffffffffffffffffffffffffffffff1673ffffffffffffffffffffffffffffffffffffffff16ff5b6000600760019054906101000a900460ff16905090565b6000809054906101000a900473ffffffffffffffffffffffffffffffffffffffff1673ffffffffffffffffffffffffffffffffffffffff163373ffffffffffffffffffffffffffffffffffffffff1614151561083857600080fd5b7f73746172745265675068617365000000000000000000000000000000000000006040518082600019166000191681526020019150506040518091039020600019168160405180826000191660001916815260200191505060405180910390206000191614156108ab5760006003819055505b7f656e64526567506861736500000000000000000000000000000000000000000060405180826000191660001916815260200191505060405180910390206000191681604051808260001916600019168152602001915050604051809103902060001916141561091e5760006004819055505b7f7374617274566f74696e675068617365000000000000000000000000000000006040518082600019166000191681526020019150506040518091039020600019168160405180826000191660001916815260200191505060405180910390206000191614156109915760006005819055505b7f656e64566f74696e675068617365000000000000000000000000000000000000604051808260001916600019168152602001915050604051809103902060001916816040518082600019166000191681526020019150506040518091039020600019161415610a045760006006819055505b50565b60006060600d6000846000191660001916815260200190815260200160002080549050600d6000856000191660001916815260200190815260200160002080805480602002602001604051908101604052809291908181526020018280548015610ac657602002820191906000526020600020905b8160009054906101000a900473ffffffffffffffffffffffffffffffffffffffff1673ffffffffffffffffffffffffffffffffffffffff1681526020019060010190808311610a7c575b5050505050905091509150915091565b6000809054906101000a900473ffffffffffffffffffffffffffffffffffffffff1673ffffffffffffffffffffffffffffffffffffffff163373ffffffffffffffffffffffffffffffffffffffff16141515610b3157600080fd5b60065442111515610b4157600080fd5b6000600b54111515610b5257600080fd5b7f636c61696d00000000000000000000000000000000000000000000000000000060405180826000191660001916815260200191505060405180910390206000191681604051808260001916600019168152602001915050604051809103902060001916141515610bc257600080fd5b6000809054906101000a900473ffffffffffffffffffffffffffffffffffffffff1673ffffffffffffffffffffffffffffffffffffffff166108fc600b549081150290604051600060405180830381858888f19350505050158015610c2b573d6000803e3d6000fd5b5050565b6000600f60008373ffffffffffffffffffffffffffffffffffffffff1673ffffffffffffffffffffffffffffffffffffffff16815260200190815260200160002060000160009054906101000a900460ff168015610cda5750600f60008373ffffffffffffffffffffffffffffffffffffffff1673ffffffffffffffffffffffffffffffffffffffff16815260200190815260200160002060000160019054906101000a900460ff16155b15610ce85760019050610ced565b600090505b919050565b6000809054906101000a900473ffffffffffffffffffffffffffffffffffffffff1673ffffffffffffffffffffffffffffffffffffffff163373ffffffffffffffffffffffffffffffffffffffff16141515610d4d57600080fd5b60045442101515610d93576040517f08c379a0000000000000000000000000000000000000000000000000000000008152600401610d8a90611f23565b60405180910390fd5b60001515600760019054906101000a900460ff161515141515610db557600080fd5b80600c9080519060200190610dcb9291906119fa565b5050565b600080600080600354600454600554600654935093509350935090919293565b60606000809054906101000a900473ffffffffffffffffffffffffffffffffffffffff1673ffffffffffffffffffffffffffffffffffffffff163373ffffffffffffffffffffffffffffffffffffffff16141515610e4c57600080fd5b600760009054906101000a900460ff161515610e6757600080fd5b600e805480602002602001604051908101604052809291908181526020018280548015610ee957602002820191906000526020600020905b8160009054906101000a900473ffffffffffffffffffffffffffffffffffffffff1673ffffffffffffffffffffffffffffffffffffffff1681526020019060010190808311610e9f575b5050505050905090565b6000809054906101000a900473ffffffffffffffffffffffffffffffffffffffff1673ffffffffffffffffffffffffffffffffffffffff163373ffffffffffffffffffffffffffffffffffffffff16141515610f4e57600080fd5b633b9aca008102600a8190555050565b6000809054906101000a900473ffffffffffffffffffffffffffffffffffffffff1673ffffffffffffffffffffffffffffffffffffffff163373ffffffffffffffffffffffffffffffffffffffff16141515610fb957600080fd5b8760018160001916905550633b9aca008702600a8190555085600281905550826003819055508160048190555084600581905550836006819055506000600760006101000a81548160ff0219169083151502179055506000600760016101000a81548160ff021916908315150217905550600060088190555060006009819055503073ffffffffffffffffffffffffffffffffffffffff1631600b8190555061106181610cf2565b5050505050505050565b6000809054906101000a900473ffffffffffffffffffffffffffffffffffffffff1673ffffffffffffffffffffffffffffffffffffffff163373ffffffffffffffffffffffffffffffffffffffff161415156110c657600080fd5b6004544210151561110c576040517f08c379a000000000000000000000000000000000000000000000000000000000815260040161110390611f23565b60405180910390fd5b600b543073ffffffffffffffffffffffffffffffffffffffff16311015151561113457600080fd5b600a54600b5411151561114657600080fd5b6001600f60008373ffffffffffffffffffffffffffffffffffffffff1673ffffffffffffffffffffffffffffffffffffffff16815260200190815260200160002060000160006101000a81548160ff0219169083151502179055506001600860008282540192505081905550600e8190806001815401808255809150509060018203906000526020600020016000909192909190916101000a81548173ffffffffffffffffffffffffffffffffffffffff021916908373ffffffffffffffffffffffffffffffffffffffff1602179055505061122181611677565b50565b600f6020528060005260406000206000915090508060000160009054906101000a900460ff16908060000160019054906101000a900460ff16908060000160029054906101000a900460ff16905083565b60008060008060008060008060008060008060009054906101000a900473ffffffffffffffffffffffffffffffffffffffff1673ffffffffffffffffffffffffffffffffffffffff163373ffffffffffffffffffffffffffffffffffffffff1614806112ed5750600760009054906101000a900460ff165b15156112f857600080fd5b600154600254600760019054906101000a900460ff16600a54600b546003546004546005546006546008546009549a509a509a509a509a509a509a509a509a509a509a50909192939495969798999a565b6000809054906101000a900473ffffffffffffffffffffffffffffffffffffffff1673ffffffffffffffffffffffffffffffffffffffff163373ffffffffffffffffffffffffffffffffffffffff161415156113a457600080fd5b6002600c805490501115156113b857600080fd5b7f66696e616c697a650000000000000000000000000000000000000000000000006040518082600019166000191681526020019150506040518091039020600019168160405180826000191660001916815260200191505060405180910390206000191614151561142857600080fd5b6005544210151561143857600080fd5b6003544211151561144857600080fd5b6001600760016101000a81548160ff02191690831515021790555050565b600061147061186a565b151561147b57600080fd5b600760019054906101000a900460ff16151561149657600080fd5b61149f33610c2f565b15156114aa57600080fd5b600090505b81518110156114e5576114d882828151811015156114c957fe5b90602001906020020151611893565b80806001019150506114af565b6001600f60003373ffffffffffffffffffffffffffffffffffffffff1673ffffffffffffffffffffffffffffffffffffffff16815260200190815260200160002060000160016101000a81548160ff02191690831515021790555060016009600082825401925050819055505050565b6060600760009054906101000a900460ff16151561157257600080fd5b600f60008373ffffffffffffffffffffffffffffffffffffffff1673ffffffffffffffffffffffffffffffffffffffff16815260200190815260200160002060010180548060200260200160405190810160405280929190818152602001828054801561160257602002820191906000526020600020905b815460001916815260200190600101908083116115ea575b50505050509050919050565b6000600c80549050905090565b6060600c80548060200260200160405190810160405280929190818152602001828054801561166d57602002820191906000526020600020905b81546000191681526020019060010190808311611655575b5050505050905090565b6000809054906101000a900473ffffffffffffffffffffffffffffffffffffffff1673ffffffffffffffffffffffffffffffffffffffff163373ffffffffffffffffffffffffffffffffffffffff161415156116d257600080fd5b600f60008273ffffffffffffffffffffffffffffffffffffffff1673ffffffffffffffffffffffffffffffffffffffff16815260200190815260200160002060000160009054906101000a900460ff16151561172d57600080fd5b600b543073ffffffffffffffffffffffffffffffffffffffff16311015151561175557600080fd5b600f60008273ffffffffffffffffffffffffffffffffffffffff1673ffffffffffffffffffffffffffffffffffffffff16815260200190815260200160002060000160029054906101000a900460ff161515156117b157600080fd5b6001600f60008373ffffffffffffffffffffffffffffffffffffffff1673ffffffffffffffffffffffffffffffffffffffff16815260200190815260200160002060000160026101000a81548160ff021916908315150217905550600a54600b600082825403925050819055508073ffffffffffffffffffffffffffffffffffffffff166108fc600a549081150290604051600060405180830381858888f19350505050158015611866573d6000803e3d6000fd5b5050565b600060065442108061187d575060055442115b1561188b5760019050611890565b600090505b90565b61189c8161199b565b15156118a757600080fd5b600f60003373ffffffffffffffffffffffffffffffffffffffff1673ffffffffffffffffffffffffffffffffffffffff168152602001908152602001600020600101819080600181540180825580915050906001820390600052602060002001600090919290919091509060001916905550600d600082600019166000191681526020019081526020016000203390806001815401808255809150509060018203906000526020600020016000909192909190916101000a81548173ffffffffffffffffffffffffffffffffffffffff021916908373ffffffffffffffffffffffffffffffffffffffff1602179055505050565b600080600090505b600c805490508110156119ef578260001916600c828154811015156119c457fe5b90600052602060002001546000191614156119e257600191506119f4565b80806001019150506119a3565b600091505b50919050565b828054828255906000526020600020908101928215611a3c579160200282015b82811115611a3b578251829060001916905591602001919060010190611a1a565b5b509050611a499190611a4d565b5090565b611a6f91905b80821115611a6b576000816000905550600101611a53565b5090565b90565b6000611a7e82356120b2565b905092915050565b600082601f8301121515611a9957600080fd5b8135611aac611aa782612000565b611fd3565b91508181835260208401935060208101905083856020840282011115611ad157600080fd5b60005b83811015611b015781611ae78882611b0b565b845260208401935060208301925050600181019050611ad4565b5050505092915050565b6000611b1782356120d2565b905092915050565b6000611b2b82356120dc565b905092915050565b600060208284031215611b4557600080fd5b6000611b5384828501611a72565b91505092915050565b600060208284031215611b6e57600080fd5b600082013567ffffffffffffffff811115611b8857600080fd5b611b9484828501611a86565b91505092915050565b600060208284031215611baf57600080fd5b6000611bbd84828501611b0b565b91505092915050565b600080600080600080600080610100898b031215611be357600080fd5b6000611bf18b828c01611b0b565b9850506020611c028b828c01611b1f565b9750506040611c138b828c01611b1f565b9650506060611c248b828c01611b1f565b9550506080611c358b828c01611b1f565b94505060a0611c468b828c01611b1f565b93505060c0611c578b828c01611b1f565b92505060e089013567ffffffffffffffff811115611c7457600080fd5b611c808b828c01611a86565b9150509295985092959890939650565b600060208284031215611ca257600080fd5b6000611cb084828501611b1f565b91505092915050565b611cc281612072565b82525050565b6000611cd382612042565b808452602084019350611ce583612028565b60005b82811015611d1757611cfb868351611cb9565b611d0482612058565b9150602086019550600181019050611ce8565b50849250505092915050565b6000611d2e8261204d565b808452602084019350611d4083612035565b60005b82811015611d7257611d56868351611d8d565b611d5f82612065565b9150602086019550600181019050611d43565b50849250505092915050565b611d8781612092565b82525050565b611d968161209e565b82525050565b6000601c82527f42616c6c6f742073657475702074696d652068617320656e64656421000000006020830152604082019050919050565b611ddc816120a8565b82525050565b60006020820190508181036000830152611dfc8184611cc8565b905092915050565b60006020820190508181036000830152611e1e8184611d23565b905092915050565b6000602082019050611e3b6000830184611d7e565b92915050565b6000606082019050611e566000830186611d7e565b611e636020830185611d7e565b611e706040830184611d7e565b949350505050565b600061016082019050611e8e600083018e611d8d565b611e9b602083018d611dd3565b611ea8604083018c611d7e565b611eb5606083018b611dd3565b611ec2608083018a611dd3565b611ecf60a0830189611dd3565b611edc60c0830188611dd3565b611ee960e0830187611dd3565b611ef7610100830186611dd3565b611f05610120830185611dd3565b611f13610140830184611dd3565b9c9b505050505050505050505050565b60006020820190508181036000830152611f3c81611d9c565b9050919050565b6000602082019050611f586000830184611dd3565b92915050565b6000604082019050611f736000830185611dd3565b8181036020830152611f858184611cc8565b90509392505050565b6000608082019050611fa36000830187611dd3565b611fb06020830186611dd3565b611fbd6040830185611dd3565b611fca6060830184611dd3565b95945050505050565b6000604051905081810181811067ffffffffffffffff82111715611ff657600080fd5b8060405250919050565b600067ffffffffffffffff82111561201757600080fd5b602082029050602081019050919050565b6000602082019050919050565b6000602082019050919050565b600081519050919050565b600081519050919050565b6000602082019050919050565b6000602082019050919050565b600073ffffffffffffffffffffffffffffffffffffffff82169050919050565b60008115159050919050565b6000819050919050565b6000819050919050565b600073ffffffffffffffffffffffffffffffffffffffff82169050919050565b6000819050919050565b60008190509190505600a265627a7a72305820243c1edca3808dfd4b9529da5d21d012ecf1b7946720f6961bd5e276672dd33b6c6578706572696d656e74616cf50037",
  "source": "pragma solidity ^0.4.24;\r\npragma experimental ABIEncoderV2; // Allow passing struct as argument\r\n\r\n// We have to specify what version of compiler this code will compile with\r\n\r\ncontract BallotContract {\r\n\r\n\r\n// ~~~~~~~~~~~~~~~~~~~~~~~~~~~~~~~~~~~~~~~~~~~~Ballot Management~~~~~~~~~~~~~~~~~~~~~~~~~~~~~~~~~~~~~~~~~~~~~~ //\r\n\r\n    address private owner;\r\n\r\n    bytes32 private ballotName;\r\n    uint    private limitCandidate;\r\n\r\n    // Time: seconds since 1970-01-01\r\n    uint private    startRegPhase;\r\n    uint private    endRegPhase;\r\n    uint private    startVotingPhase;\r\n    uint private    endVotingPhase;\r\n\r\n    // Ballot status\r\n    bool private    canPublish;\r\n    bool private    isFinalized;            // Whether the owner can still add voting options.\r\n    uint private    registeredVoterCount;   // Total number of voter addresses registered.\r\n    uint private    votedVoterCount;\r\n    //uint private    fundedVoterCount;\r\n    uint private    amount; // in GWei\r\n    uint256 private storedAmount;\r\n\r\n    // Candidate list\r\n    bytes32[] private candidateIDs;\r\n    mapping (bytes32 => address[]) voteReceived; //map candidateId to array of address of whom has voted for them\r\n\r\n\r\n    constructor ()\r\n    {\r\n        owner = msg.sender;       // Set the owner to the address creating the contract.\r\n        ballotName = 'Not set';\r\n        limitCandidate = 0;\r\n\r\n        startRegPhase = 0;\r\n        endRegPhase = 0;\r\n        startVotingPhase = 0;\r\n        endVotingPhase = 0;\r\n\r\n        isFinalized = false;\r\n        registeredVoterCount = 0;\r\n        votedVoterCount = 0;\r\n        //fundedVoterCount = 0;\r\n        storedAmount = address(this).balance;\r\n        amount = 0;\r\n\r\n    }\r\n\r\n    function close(bytes32 phrase) onlyOwner public {\r\n        require( keccak256(phrase) == keccak256(bytes32('close')));\r\n        require(storedAmount > 0);\r\n        owner.transfer(storedAmount);\r\n        selfdestruct(owner);\r\n    }\r\n\r\n    function () payable {\r\n        storedAmount += msg.value;\r\n    }\r\n\r\n    function claimStoredAmount(bytes32 phrase) onlyOwner {\r\n        require(now > endVotingPhase);\r\n        require(storedAmount > 0);\r\n        require(  keccak256(phrase) == keccak256(bytes32('claim')) );\r\n\r\n        owner.transfer(storedAmount); // Transfer back remaining amount\r\n    }\r\n\r\n    function setupBallot (\r\n        bytes32 _ballotName,\r\n        uint _fundAmount,\r\n        uint _limitCandidate,\r\n        uint _startVotingPhase,\r\n        uint _endVotingPhase,\r\n        uint _startRegPhase,\r\n        uint _endRegPhase,\r\n        bytes32[] _candidateIDs\r\n    ) onlyOwner public {\r\n\r\n        ballotName = _ballotName;\r\n        amount = _fundAmount*1000000000; //convert to wei\r\n        limitCandidate = _limitCandidate;\r\n        startRegPhase = _startRegPhase;\r\n        endRegPhase = _endRegPhase;\r\n        startVotingPhase = _startVotingPhase;\r\n        endVotingPhase = _endVotingPhase;\r\n\r\n        canPublish = false;\r\n        isFinalized = false;\r\n        registeredVoterCount = 0;\r\n        votedVoterCount = 0;\r\n        //fundedVoterCount = 0;\r\n        storedAmount = address(this).balance;\r\n\r\n        addCandidates(_candidateIDs);\r\n    }\r\n\r\n    function setTransferAmount(uint _amount) onlyOwner public {\r\n        amount = _amount*1000000000; //convert Gwei to wei\r\n    }\r\n\r\n    function addCandidates(bytes32[] _candidateIDs) onlyOwner public {\r\n        require (now < endRegPhase, 'Ballot setup time has ended!');\r\n        require (isFinalized == false);    // Check we are allowed to add options.\r\n\r\n        candidateIDs = _candidateIDs;\r\n    }\r\n\r\n    function finalizeBallot(bytes32 phrase) onlyOwner public {\r\n        require(candidateIDs.length > 2);\r\n        require( keccak256(phrase) == keccak256(bytes32('finalize')));\r\n        require (now < startVotingPhase);\r\n        require (now > startRegPhase);\r\n\r\n        isFinalized = true;    // Stop the addition of any more change.\r\n    }\r\n\r\n    function publishBallot() onlyOwner public {\r\n        require (now > endRegPhase);\r\n        canPublish = true;\r\n    }\r\n\r\n    function resetTime(bytes32 phrase) onlyOwner public {\r\n        if (keccak256(phrase) == keccak256(bytes32('startRegPhase'))) {\r\n            startRegPhase = 0;\r\n        }\r\n        if (keccak256(phrase) == keccak256(bytes32('endRegPhase'))) {\r\n            endRegPhase = 0;\r\n        }\r\n        if (keccak256(phrase) == keccak256(bytes32('startVotingPhase'))) {\r\n            startVotingPhase = 0;\r\n        }\r\n        if (keccak256(phrase) == keccak256(bytes32('endVotingPhase'))) {\r\n            endVotingPhase = 0;\r\n        }\r\n    }\r\n\r\n\r\n    // ~~~~~~~~~~~~~~~~~~~~~~~~~~~~~~~~~~~~~~~~~~~~~~~~ Voting Management ~~~~~~~~~~~~~~~~~~~~~~~~~~~~~~~~~~~~~~~~~~~~~~~~ //\r\n\r\n    /*\r\n    *  Structure which represents a single voter.\r\n    */\r\n    struct Voter\r\n    {\r\n        bool eligibleToVote;    // Is this voter allowed to vote?\r\n        bool isVoted;           // State of whether this voter has voted.\r\n        bool isFunded;\r\n        bytes32[] votedFor;     // List candidates' IDs this voter voted for.\r\n    }\r\n\r\n    address[] private voterAddressList;\r\n    mapping(address => Voter) public voters; // State variable which maps any address to a 'Voter' struct.\r\n\r\n    function giveRightToVote(address _voter) onlyOwner public {\r\n        require (now < endRegPhase, 'Ballot setup time has ended!');\r\n        require(address(this).balance >= storedAmount);\r\n        require(storedAmount > amount);\r\n\r\n        voters[_voter].eligibleToVote = true;\r\n        registeredVoterCount += 1;      // Increment registered voters.\r\n        voterAddressList.push(_voter);\r\n\r\n        // Fund user with money\r\n        giveFund(_voter);\r\n\r\n    }\r\n\r\n    function giveFund(address _voter) onlyOwner private {\r\n        require(voters[_voter].eligibleToVote); // User already had the right to vote\r\n        require(address(this).balance >= storedAmount);\r\n        require(!voters[_voter].isFunded);\r\n\r\n        voters[_voter].isFunded = true;\r\n        storedAmount -= amount;\r\n        _voter.transfer(amount);\r\n        //fundedVoterCount += 1;\r\n    }\r\n\r\n    function voteForCandidate(bytes32 _candidateID) private {\r\n        require(validCandidate(_candidateID));\r\n        voters[msg.sender].votedFor.push(_candidateID); //Add candidateID to list whom voter voted\r\n        voteReceived[_candidateID].push(msg.sender);\r\n    }\r\n\r\n    function voteForCandidates(bytes32[] _candidateIDs) public {\r\n        require(validTime());\r\n        require(isFinalized);\r\n        require(hasRightToVote(msg.sender));\r\n\r\n        for (uint i = 0; i < _candidateIDs.length; i++) {\r\n            voteForCandidate(_candidateIDs[i]);\r\n        }\r\n        voters[msg.sender].isVoted = true;\r\n        votedVoterCount += 1;\r\n    }\r\n\r\n    function validCandidate(bytes32 _candidateID) private view returns (bool) {\r\n        for (uint i = 0; i < candidateIDs.length; i++) {\r\n            if (candidateIDs[i] == _candidateID) {\r\n                return true;\r\n            }\r\n        }\r\n        return false;\r\n    }\r\n\r\n    function hasRightToVote(address voterAddress) public view returns (bool) {\r\n        if (voters[voterAddress].eligibleToVote && !voters[voterAddress].isVoted) {\r\n            return true;\r\n        } else {\r\n            return false;\r\n        }\r\n    }\r\n\r\n    // ~~~~~~~~~~~~~~~~~~~~~~~~~~~~~~~~~~~~~~~~~~~~~~ Getters & Validators Functions ~~~~~~~~~~~~~~~~~~~~~~~~~~~~~~~~~~~~~~~~~~~~~~~~ //\r\n\r\n    /*------Validators-------*/\r\n    function validTime() private returns (bool) {\r\n        if ( now < endVotingPhase || now > startVotingPhase) {\r\n            return true;\r\n        } else { return false; }\r\n    }\r\n\r\n    modifier onlyOwner {\r\n        require(msg.sender == owner );\r\n        _;\r\n    }\r\n\r\n    /*------Getters-------*/\r\n\r\n    //Get ballot info\r\n    function getBallotOverview() public returns (\r\n        bytes32, uint, bool, uint, uint, uint, uint, uint, uint, uint, uint\r\n    ) {\r\n        require (msg.sender == owner || canPublish);\r\n        return ( // Do not change the return order\r\n        /*Ballot Info*/\r\n        ballotName,\r\n        limitCandidate,\r\n        isFinalized,\r\n        amount,\r\n        storedAmount,\r\n\r\n        /*Phase Info*/\r\n        startRegPhase,\r\n        endRegPhase,\r\n        startVotingPhase,\r\n        endVotingPhase,\r\n\r\n        /*Voter Info*/\r\n        registeredVoterCount,\r\n        votedVoterCount\r\n        );\r\n    }\r\n\r\n    //Get ballot timeline info\r\n    function getBallotPhases() public returns (uint, uint, uint, uint) {\r\n        return (\r\n        /*Phase Info*/\r\n        startRegPhase,\r\n        endRegPhase,\r\n        startVotingPhase,\r\n        endVotingPhase\r\n        );\r\n    }\r\n\r\n    //Get total number of candidates\r\n    function getCandidateLength() public returns (uint)  {\r\n        return candidateIDs.length;\r\n    }\r\n\r\n    //Get list of candidate for that ballot\r\n    function getCandidateList() public returns (bytes32[]) {\r\n        return candidateIDs;\r\n    }\r\n\r\n    //Get total vote count for that candidate\r\n    function getCandidateResult(bytes32 _candidateID) public returns (uint, address[])\r\n    {\r\n        return (voteReceived[_candidateID].length, voteReceived[_candidateID]);\r\n    }\r\n\r\n    //Whether ballot is finalized\r\n    function isBallotFinalized() public returns (bool)\r\n    {\r\n        return isFinalized;\r\n    }\r\n\r\n    //Get list of candidate that a voter has voted for\r\n    function getVotedForList(address voterAddress) public returns (bytes32[]) {\r\n        require(canPublish);\r\n        return voters[voterAddress].votedFor;\r\n    }\r\n\r\n    //Get list of voterAddress that has voted for a candidate\r\n    function getAddressForCandidate(bytes32 candidateID) public returns (address[]) {\r\n        require(canPublish);\r\n        return voteReceived[candidateID];\r\n    }\r\n\r\n    //Get list of eligible candidate for that ballot\r\n    function getEligibleVoterList() onlyOwner public  returns (address[]) {\r\n        require(canPublish);\r\n        return voterAddressList;\r\n    }\r\n\r\n\r\n}\r\n",
  "sourcePath": "C:\\Users\\linhkhoi\\Desktop\\Votereum\\OBR\\truffle\\contracts\\BallotContract.sol",
  "compiler": {
    "name": "solc",
    "version": "0.4.24+commit.e67f0147.Emscripten.clang"
  },
  "schemaVersion": "2.0.1",
  "updatedAt": "2018-12-28T14:17:20.250Z"
}