{
  "contractName": "BallotContract",
  "abi": [
    {
      "constant": true,
      "inputs": [
        {
          "name": "",
          "type": "address"
        }
      ],
      "name": "voters",
      "outputs": [
        {
          "name": "eligibleToVote",
          "type": "bool"
        },
        {
          "name": "isVoted",
          "type": "bool"
        }
      ],
      "payable": false,
      "stateMutability": "view",
      "type": "function"
    },
    {
      "inputs": [],
      "payable": false,
      "stateMutability": "nonpayable",
      "type": "constructor"
    },
    {
      "payable": true,
      "stateMutability": "payable",
      "type": "fallback"
    },
    {
      "constant": false,
      "inputs": [
        {
          "name": "phrase",
          "type": "bytes32"
        }
      ],
      "name": "close",
      "outputs": [],
      "payable": false,
      "stateMutability": "nonpayable",
      "type": "function"
    },
    {
      "constant": false,
      "inputs": [
        {
          "name": "amount",
          "type": "uint256"
        }
      ],
      "name": "claimFund",
      "outputs": [
        {
          "name": "",
          "type": "uint256"
        }
      ],
      "payable": false,
      "stateMutability": "nonpayable",
      "type": "function"
    },
    {
      "constant": false,
      "inputs": [
        {
          "name": "_ballotName",
          "type": "bytes32"
        },
        {
          "name": "_startVotingPhase",
          "type": "uint256"
        },
        {
          "name": "_endVotingPhase",
          "type": "uint256"
        },
        {
          "name": "_startRegPhase",
          "type": "uint256"
        },
        {
          "name": "_endRegPhase",
          "type": "uint256"
        },
        {
          "name": "_candidateIDs",
          "type": "bytes32[]"
        }
      ],
      "name": "setupBallot",
      "outputs": [],
      "payable": false,
      "stateMutability": "nonpayable",
      "type": "function"
    },
    {
      "constant": false,
      "inputs": [
        {
          "name": "_candidateIDs",
          "type": "bytes32[]"
        }
      ],
      "name": "addCandidates",
      "outputs": [],
      "payable": false,
      "stateMutability": "nonpayable",
      "type": "function"
    },
    {
      "constant": false,
      "inputs": [
        {
          "name": "phrase",
          "type": "bytes32"
        }
      ],
      "name": "finalizeBallot",
      "outputs": [],
      "payable": false,
      "stateMutability": "nonpayable",
      "type": "function"
    },
    {
      "constant": false,
      "inputs": [
        {
          "name": "phrase",
          "type": "bytes32"
        }
      ],
      "name": "resetTime",
      "outputs": [
        {
          "name": "",
          "type": "bool"
        }
      ],
      "payable": false,
      "stateMutability": "nonpayable",
      "type": "function"
    },
    {
      "constant": false,
      "inputs": [
        {
          "name": "_voter",
          "type": "address"
        }
      ],
      "name": "giveRightToVote",
      "outputs": [],
      "payable": false,
      "stateMutability": "nonpayable",
      "type": "function"
    },
    {
      "constant": false,
      "inputs": [
        {
          "name": "_candidateIDs",
          "type": "bytes32[]"
        }
      ],
      "name": "voteForCandidates",
      "outputs": [],
      "payable": false,
      "stateMutability": "nonpayable",
      "type": "function"
    },
    {
      "constant": true,
      "inputs": [
        {
          "name": "_candidateID",
          "type": "bytes32"
        }
      ],
      "name": "validCandidate",
      "outputs": [
        {
          "name": "",
          "type": "bool"
        }
      ],
      "payable": false,
      "stateMutability": "view",
      "type": "function"
    },
    {
      "constant": true,
      "inputs": [
        {
          "name": "voterAddress",
          "type": "address"
        }
      ],
      "name": "hasRightToVote",
      "outputs": [
        {
          "name": "",
          "type": "bool"
        }
      ],
      "payable": false,
      "stateMutability": "view",
      "type": "function"
    },
    {
      "constant": false,
      "inputs": [],
      "name": "getBallotInfo",
      "outputs": [
        {
          "name": "",
          "type": "bytes32"
        },
        {
          "name": "",
          "type": "uint256"
        },
        {
          "name": "",
          "type": "uint256"
        },
        {
          "name": "",
          "type": "uint256"
        },
        {
          "name": "",
          "type": "uint256"
        },
        {
          "name": "",
          "type": "bool"
        },
        {
          "name": "",
          "type": "uint256"
        },
        {
          "name": "",
          "type": "uint256"
        }
      ],
      "payable": false,
      "stateMutability": "nonpayable",
      "type": "function"
    },
    {
      "constant": false,
      "inputs": [],
      "name": "getCandidateLength",
      "outputs": [
        {
          "name": "",
          "type": "uint256"
        }
      ],
      "payable": false,
      "stateMutability": "nonpayable",
      "type": "function"
    },
    {
      "constant": false,
      "inputs": [],
      "name": "getCandidateList",
      "outputs": [
        {
          "name": "",
          "type": "bytes32[]"
        }
      ],
      "payable": false,
      "stateMutability": "nonpayable",
      "type": "function"
    },
    {
      "constant": false,
      "inputs": [
        {
          "name": "_candidateID",
          "type": "bytes32"
        }
      ],
      "name": "getCandidateResult",
      "outputs": [
        {
          "name": "",
          "type": "uint256"
        },
        {
          "name": "",
          "type": "address[]"
        }
      ],
      "payable": false,
      "stateMutability": "nonpayable",
      "type": "function"
    },
    {
      "constant": false,
      "inputs": [],
      "name": "isBallotFinalized",
      "outputs": [
        {
          "name": "",
          "type": "bool"
        }
      ],
      "payable": false,
      "stateMutability": "nonpayable",
      "type": "function"
    },
    {
      "constant": false,
      "inputs": [
        {
          "name": "voterAddress",
          "type": "address"
        }
      ],
      "name": "getVotedForList",
      "outputs": [
        {
          "name": "",
          "type": "bytes32[]"
        }
      ],
      "payable": false,
      "stateMutability": "nonpayable",
      "type": "function"
    },
    {
      "constant": false,
      "inputs": [],
      "name": "getVoterAddressList",
      "outputs": [
        {
          "name": "",
          "type": "address[]"
        }
      ],
      "payable": false,
      "stateMutability": "nonpayable",
      "type": "function"
    }
  ],
  "bytecode": "0x608060405234801561001057600080fd5b50336000806101000a81548173ffffffffffffffffffffffffffffffffffffffff021916908373ffffffffffffffffffffffffffffffffffffffff160217905550611b17806100606000396000f3006080604052600436106100fc576000357c0100000000000000000000000000000000000000000000000000000000900463ffffffff16806331c7364f14610105578063392e66781461014257806339c79e0c1461017f5780633bdcb71e146101a8578063431f96ac146101d3578063458b64741461021057806365c937691461024e5780636eab06c41461028b5780639098ed15146102b45780639e7b8d61146102dd578063a3ec138d14610306578063c623f91014610344578063dbcb6d471461036d578063e17b240a14610398578063eeaa17a5146103c1578063f7522a83146103fe578063f767b1ca14610429578063fdbc40061461045b575b34600181905550005b34801561011157600080fd5b5061012c60048036036101279190810190611707565b610486565b604051610139919061197f565b60405180910390f35b34801561014e57600080fd5b506101696004803603610164919081019061163d565b6104de565b604051610176919061189d565b60405180910390f35b34801561018b57600080fd5b506101a660048036036101a1919081019061163d565b61053d565b005b3480156101b457600080fd5b506101bd610642565b6040516101ca919061189d565b60405180910390f35b3480156101df57600080fd5b506101fa60048036036101f5919081019061163d565b610659565b604051610207919061189d565b60405180910390f35b34801561021c57600080fd5b506102376004803603610232919081019061163d565b6108ee565b60405161024592919061199a565b60405180910390f35b34801561025a57600080fd5b50610275600480360361027091908101906115d3565b6109bd565b604051610282919061189d565b60405180910390f35b34801561029757600080fd5b506102b260048036036102ad91908101906115fc565b610a7f565b005b3480156102c057600080fd5b506102db60048036036102d69190810190611666565b610b5c565b005b3480156102e957600080fd5b5061030460048036036102ff91908101906115d3565b610c80565b005b34801561031257600080fd5b5061032d600480360361032891908101906115d3565b610df6565b60405161033b9291906118b8565b60405180910390f35b34801561035057600080fd5b5061036b6004803603610366919081019061163d565b610e34565b005b34801561037957600080fd5b50610382610f51565b60405161038f9190611859565b60405180910390f35b3480156103a457600080fd5b506103bf60048036036103ba91908101906115fc565b61103a565b005b3480156103cd57600080fd5b506103e860048036036103e391908101906115d3565b6110a2565b6040516103f5919061187b565b60405180910390f35b34801561040a57600080fd5b50610413611140565b604051610420919061197f565b60405180910390f35b34801561043557600080fd5b5061043e61114d565b6040516104529897969594939291906118e1565b60405180910390f35b34801561046757600080fd5b50610470611198565b60405161047d919061187b565b60405180910390f35b6000803390508073ffffffffffffffffffffffffffffffffffffffff166108fc849081150290604051600060405180830381858888f193505050501580156104d2573d6000803e3d6000fd5b50600154915050919050565b600080600090505b600b80549050811015610532578260001916600b8281548110151561050757fe5b90600052602060002001546000191614156105255760019150610537565b80806001019150506104e6565b600091505b50919050565b6000809054906101000a900473ffffffffffffffffffffffffffffffffffffffff1673ffffffffffffffffffffffffffffffffffffffff163373ffffffffffffffffffffffffffffffffffffffff1614151561059857600080fd5b7f636c6f73650000000000000000000000000000000000000000000000000000006040518082600019166000191681526020019150506040518091039020600019168160405180826000191660001916815260200191505060405180910390206000191614151561060857600080fd5b6000809054906101000a900473ffffffffffffffffffffffffffffffffffffffff1673ffffffffffffffffffffffffffffffffffffffff16ff5b6000600760009054906101000a900460ff16905090565b60008060009054906101000a900473ffffffffffffffffffffffffffffffffffffffff1673ffffffffffffffffffffffffffffffffffffffff163373ffffffffffffffffffffffffffffffffffffffff161415156106b657600080fd5b7f73746172745265675068617365000000000000000000000000000000000000006040518082600019166000191681526020019150506040518091039020600019168260405180826000191660001916815260200191505060405180910390206000191614156107295760006003819055505b7f656e64526567506861736500000000000000000000000000000000000000000060405180826000191660001916815260200191505060405180910390206000191682604051808260001916600019168152602001915050604051809103902060001916141561079c5760006004819055505b7f7374617274566f74696e6750686173650000000000000000000000000000000060405180826000191660001916815260200191505060405180910390206000191682604051808260001916600019168152602001915050604051809103902060001916141561080f5760006005819055505b7f656e64566f74696e6750686173650000000000000000000000000000000000006040518082600019166000191681526020019150506040518091039020600019168260405180826000191660001916815260200191505060405180910390206000191614156108825760006006819055505b7f737461727452656750686173650000000000000000000000000000000000000060405180826000191660001916815260200191505060405180910390206000191682604051808260001916600019168152602001915050604051809103902060001916149050919050565b60006060600c6000846000191660001916815260200190815260200160002080549050600c60008560001916600019168152602001908152602001600020808054806020026020016040519081016040528092919081815260200182805480156109ad57602002820191906000526020600020905b8160009054906101000a900473ffffffffffffffffffffffffffffffffffffffff1673ffffffffffffffffffffffffffffffffffffffff1681526020019060010190808311610963575b5050505050905091509150915091565b6000600e60008373ffffffffffffffffffffffffffffffffffffffff1673ffffffffffffffffffffffffffffffffffffffff16815260200190815260200160002060000160009054906101000a900460ff168015610a675750600e60008373ffffffffffffffffffffffffffffffffffffffff1673ffffffffffffffffffffffffffffffffffffffff16815260200190815260200160002060000160019054906101000a900460ff165b15610a755760019050610a7a565b600090505b919050565b6000809054906101000a900473ffffffffffffffffffffffffffffffffffffffff1673ffffffffffffffffffffffffffffffffffffffff163373ffffffffffffffffffffffffffffffffffffffff16141515610ada57600080fd5b60045442101515610b20576040517f08c379a0000000000000000000000000000000000000000000000000000000008152600401610b179061195f565b60405180910390fd5b60001515600760009054906101000a900460ff161515141515610b4257600080fd5b80600b9080519060200190610b5892919061149a565b5050565b6000809054906101000a900473ffffffffffffffffffffffffffffffffffffffff1673ffffffffffffffffffffffffffffffffffffffff163373ffffffffffffffffffffffffffffffffffffffff16141515610bb757600080fd5b8142101515610bfb576040517f08c379a0000000000000000000000000000000000000000000000000000000008152600401610bf29061195f565b60405180910390fd5b60001515600760009054906101000a900460ff161515141515610c1d57600080fd5b8560028160001916905550826003819055508160048190555084600581905550836006819055506000600760006101000a81548160ff02191690831515021790555060006008819055506000600981905550610c7881610a7f565b505050505050565b6000809054906101000a900473ffffffffffffffffffffffffffffffffffffffff1673ffffffffffffffffffffffffffffffffffffffff163373ffffffffffffffffffffffffffffffffffffffff16141515610cdb57600080fd5b60045442101515610d21576040517f08c379a0000000000000000000000000000000000000000000000000000000008152600401610d189061195f565b60405180910390fd5b6001600e60008373ffffffffffffffffffffffffffffffffffffffff1673ffffffffffffffffffffffffffffffffffffffff16815260200190815260200160002060000160006101000a81548160ff0219169083151502179055506001600860008282540192505081905550600d8190806001815401808255809150509060018203906000526020600020016000909192909190916101000a81548173ffffffffffffffffffffffffffffffffffffffff021916908373ffffffffffffffffffffffffffffffffffffffff1602179055505050565b600e6020528060005260406000206000915090508060000160009054906101000a900460ff16908060000160019054906101000a900460ff16905082565b6000809054906101000a900473ffffffffffffffffffffffffffffffffffffffff1673ffffffffffffffffffffffffffffffffffffffff163373ffffffffffffffffffffffffffffffffffffffff16141515610e8f57600080fd5b6002600b80549050111515610ea357600080fd5b7f66696e616c697a6500000000000000000000000000000000000000000000000060405180826000191660001916815260200191505060405180910390206000191681604051808260001916600019168152602001915050604051809103902060001916141515610f1357600080fd5b60055442101515610f2357600080fd5b60035442111515610f3357600080fd5b6001600760006101000a81548160ff02191690831515021790555050565b60606000809054906101000a900473ffffffffffffffffffffffffffffffffffffffff1673ffffffffffffffffffffffffffffffffffffffff163373ffffffffffffffffffffffffffffffffffffffff16141515610fae57600080fd5b600d80548060200260200160405190810160405280929190818152602001828054801561103057602002820191906000526020600020905b8160009054906101000a900473ffffffffffffffffffffffffffffffffffffffff1673ffffffffffffffffffffffffffffffffffffffff1681526020019060010190808311610fe6575b5050505050905090565b60006110446111f4565b151561104f57600080fd5b61105833611219565b151561106357600080fd5b600090505b815181101561109e57611091828281518110151561108257fe5b90602001906020020151611313565b8080600101915050611068565b5050565b6060600e60008373ffffffffffffffffffffffffffffffffffffffff1673ffffffffffffffffffffffffffffffffffffffff16815260200190815260200160002060010180548060200260200160405190810160405280929190818152602001828054801561113457602002820191906000526020600020905b8154600019168152602001906001019080831161111c575b50505050509050919050565b6000600b80549050905090565b600080600080600080600080600254600354600454600554600654600760009054906101000a900460ff16600854600954975097509750975097509750975097509091929394959697565b6060600b8054806020026020016040519081016040528092919081815260200182805480156111ea57602002820191906000526020600020905b815460001916815260200190600101908083116111d2575b5050505050905090565b6000600654421180611207575060055442105b156112155760009050611216565b5b90565b6000801515600760009054906101000a900460ff161515141561123f576000905061130e565b60001515600e60008473ffffffffffffffffffffffffffffffffffffffff1673ffffffffffffffffffffffffffffffffffffffff16815260200190815260200160002060000160009054906101000a900460ff16151514156112a4576000905061130e565b60011515600e60008473ffffffffffffffffffffffffffffffffffffffff1673ffffffffffffffffffffffffffffffffffffffff16815260200190815260200160002060000160019054906101000a900460ff1615151415611309576000905061130e565b600190505b919050565b61131b6111f4565b151561132657600080fd5b61132f33611219565b151561133a57600080fd5b6001600e60003373ffffffffffffffffffffffffffffffffffffffff1673ffffffffffffffffffffffffffffffffffffffff16815260200190815260200160002060000160016101000a81548160ff0219169083151502179055506001600960008282540192505081905550600e60003373ffffffffffffffffffffffffffffffffffffffff1673ffffffffffffffffffffffffffffffffffffffff168152602001908152602001600020600101819080600181540180825580915050906001820390600052602060002001600090919290919091509060001916905550600c600082600019166000191681526020019081526020016000203390806001815401808255809150509060018203906000526020600020016000909192909190916101000a81548173ffffffffffffffffffffffffffffffffffffffff021916908373ffffffffffffffffffffffffffffffffffffffff1602179055505050565b8280548282559060005260206000209081019282156114dc579160200282015b828111156114db5782518290600019169055916020019190600101906114ba565b5b5090506114e991906114ed565b5090565b61150f91905b8082111561150b5760008160009055506001016114f3565b5090565b90565b600061151e8235611aa9565b905092915050565b600082601f830112151561153957600080fd5b813561154c611547826119f7565b6119ca565b9150818183526020840193506020810190508385602084028201111561157157600080fd5b60005b838110156115a1578161158788826115ab565b845260208401935060208301925050600181019050611574565b5050505092915050565b60006115b78235611ac9565b905092915050565b60006115cb8235611ad3565b905092915050565b6000602082840312156115e557600080fd5b60006115f384828501611512565b91505092915050565b60006020828403121561160e57600080fd5b600082013567ffffffffffffffff81111561162857600080fd5b61163484828501611526565b91505092915050565b60006020828403121561164f57600080fd5b600061165d848285016115ab565b91505092915050565b60008060008060008060c0878903121561167f57600080fd5b600061168d89828a016115ab565b965050602061169e89828a016115bf565b95505060406116af89828a016115bf565b94505060606116c089828a016115bf565b93505060806116d189828a016115bf565b92505060a087013567ffffffffffffffff8111156116ee57600080fd5b6116fa89828a01611526565b9150509295509295509295565b60006020828403121561171957600080fd5b6000611727848285016115bf565b91505092915050565b61173981611a69565b82525050565b600061174a82611a39565b80845260208401935061175c83611a1f565b60005b8281101561178e57611772868351611730565b61177b82611a4f565b915060208601955060018101905061175f565b50849250505092915050565b60006117a582611a44565b8084526020840193506117b783611a2c565b60005b828110156117e9576117cd868351611804565b6117d682611a5c565b91506020860195506001810190506117ba565b50849250505092915050565b6117fe81611a89565b82525050565b61180d81611a95565b82525050565b6000601c82527f42616c6c6f742073657475702074696d652068617320656e64656421000000006020830152604082019050919050565b61185381611a9f565b82525050565b60006020820190508181036000830152611873818461173f565b905092915050565b60006020820190508181036000830152611895818461179a565b905092915050565b60006020820190506118b260008301846117f5565b92915050565b60006040820190506118cd60008301856117f5565b6118da60208301846117f5565b9392505050565b6000610100820190506118f7600083018b611804565b611904602083018a61184a565b611911604083018961184a565b61191e606083018861184a565b61192b608083018761184a565b61193860a08301866117f5565b61194560c083018561184a565b61195260e083018461184a565b9998505050505050505050565b6000602082019050818103600083015261197881611813565b9050919050565b6000602082019050611994600083018461184a565b92915050565b60006040820190506119af600083018561184a565b81810360208301526119c1818461173f565b90509392505050565b6000604051905081810181811067ffffffffffffffff821117156119ed57600080fd5b8060405250919050565b600067ffffffffffffffff821115611a0e57600080fd5b602082029050602081019050919050565b6000602082019050919050565b6000602082019050919050565b600081519050919050565b600081519050919050565b6000602082019050919050565b6000602082019050919050565b600073ffffffffffffffffffffffffffffffffffffffff82169050919050565b60008115159050919050565b6000819050919050565b6000819050919050565b600073ffffffffffffffffffffffffffffffffffffffff82169050919050565b6000819050919050565b60008190509190505600a265627a7a7230582036016b9a0158145955d4adad99a724b31eea384cc76b2ab28c4ef2aa87e3302b6c6578706572696d656e74616cf50037",
  "source": "pragma solidity ^0.4.24;\r\npragma experimental ABIEncoderV2; // Allow passing struct as argument\r\n\r\n// We have to specify what version of compiler this code will compile with\r\n\r\ncontract BallotContract {\r\n\r\n\r\n    // ~~~~~~~~~~~~~~~~~~~~~~~~~~~~~~~~~~~~~~~~~~~~ Contract Constructor ~~~~~~~~~~~~~~~~~~~~~~~~~~~~~~~~~~~~~~~~~~~~~~ //\r\n\r\n    address owner;\r\n    uint256 fundAmount;\r\n\r\n    /*\r\n    * Modifier to only allow the owner to call a function.\r\n    */\r\n    modifier onlyOwner\r\n    {\r\n        require( msg.sender             == owner );\r\n        _;\r\n\r\n    }\r\n\r\n    /*\r\n    *  This function is called *once* at first initialization into the blockchain.\r\n    */\r\n    constructor ()\r\n    {\r\n        owner                   = msg.sender;       // Set the owner to the address creating the contract.\r\n    }\r\n\r\n    function close(bytes32 phrase) onlyOwner public {\r\n        require( keccak256(phrase) == keccak256(bytes32('close')));\r\n        selfdestruct(owner);\r\n    }\r\n\r\n    function () payable {\r\n        fundAmount = msg.value;\r\n    }\r\n\r\n    function claimFund(uint amount) returns (uint) {\r\n        address addr = msg.sender;\r\n        addr.transfer(amount);\r\n        return fundAmount;\r\n    }\r\n\r\n\r\n\r\n\r\n\r\n\r\n\r\n    // ~~~~~~~~~~~~~~~~~~~~~~~~~~~~~~~~~~~~~~~~~~~~ Validator ~~~~~~~~~~~~~~~~~~~~~~~~~~~~~~~~~~~~~~~~~~~~~~ //\r\n\r\n    function validTime() private view returns (bool) {\r\n        if ( now > endVotingPhase || now < startVotingPhase)\r\n            return false;\r\n    }\r\n\r\n    function canVote(address voterAddress) private view returns (bool) {\r\n        if (isFinalized == false)       // If the options are not finalized, we cannot vote.\r\n            return false;\r\n\r\n        if (voters[voterAddress].eligibleToVote == false)\r\n            return false;\r\n\r\n        if (voters[voterAddress].isVoted == true) // If the voter has already voted, voter cannot vote anymore\r\n            return false;\r\n        return true;\r\n    }\r\n\r\n    // ~~~~~~~~~~~~~~~~~~~~~~~~~~~~~~~~~~~~~~~~~~~~~~ Ballot Options (Candidate) ~~~~~~~~~~~~~~~~~~~~~~~~~~~~~~~~~~~~~~~~~~~~~~~~~~ //\r\n\r\n\r\n    bytes32  ballotName; // The ballot candidateID.\r\n\r\n    // Time: seconds since 1970-01-01\r\n    uint    startRegPhase;\r\n    uint    endRegPhase;\r\n    uint    startVotingPhase;\r\n    uint    endVotingPhase;\r\n\r\n    // Ballot status\r\n    bool    isFinalized;       // Whether the owner can still add voting options.\r\n    uint    registeredVoterCount;   // Total number of voter addresses registered.\r\n    uint    votedVoterCount;\r\n    uint    fundedVoterCount;\r\n\r\n    //\r\n    bytes32[] candidateIDs;\r\n    mapping (bytes32 => address[]) voteReceived; //map candidateId to array of address of whom has voted for them\r\n\r\n    function setupBallot (bytes32 _ballotName, uint _startVotingPhase, uint _endVotingPhase,\r\n                          uint _startRegPhase, uint _endRegPhase, bytes32[] _candidateIDs) onlyOwner public {\r\n\r\n        require (now < _endRegPhase, 'Ballot setup time has ended!');\r\n        require (isFinalized == false);\r\n\r\n        ballotName = _ballotName;\r\n        startRegPhase = _startRegPhase;\r\n        endRegPhase = _endRegPhase;\r\n        startVotingPhase = _startVotingPhase;\r\n        endVotingPhase = _endVotingPhase;\r\n\r\n        isFinalized = false;\r\n        registeredVoterCount = 0;\r\n        votedVoterCount = 0;\r\n\r\n        addCandidates(_candidateIDs);\r\n    }\r\n\r\n\r\n    function addCandidates(bytes32[] _candidateIDs) onlyOwner public {\r\n        require (now < endRegPhase, 'Ballot setup time has ended!');\r\n        require (isFinalized == false);    // Check we are allowed to add options.\r\n\r\n        candidateIDs = _candidateIDs;\r\n    }\r\n\r\n    /*\r\n    *  Call this once all options have been added, this will stop further changes\r\n    *  and allow votes to be cast.\r\n    *  NOTE: this can only be called by the ballot owner.\r\n    */\r\n    function finalizeBallot(bytes32 phrase) onlyOwner public {\r\n        require(candidateIDs.length > 2);\r\n        require( keccak256(phrase) == keccak256(bytes32('finalize')));\r\n        require (now < startVotingPhase);\r\n        require (now > startRegPhase);\r\n\r\n        isFinalized = true;    // Stop the addition of any more change.\r\n    }\r\n\r\n    function resetTime(bytes32 phrase) onlyOwner public returns(bool) {\r\n        if (keccak256(phrase) == keccak256(bytes32('startRegPhase'))) {\r\n            startRegPhase = 0;\r\n        }\r\n        if (keccak256(phrase) == keccak256(bytes32('endRegPhase'))) {\r\n            endRegPhase = 0;\r\n        }\r\n        if (keccak256(phrase) == keccak256(bytes32('startVotingPhase'))) {\r\n            startVotingPhase = 0;\r\n        }\r\n        if (keccak256(phrase) == keccak256(bytes32('endVotingPhase'))) {\r\n            endVotingPhase = 0;\r\n        }\r\n        return keccak256(phrase) == keccak256(bytes32('startRegPhase'));\r\n    }\r\n\r\n    // ~~~~~~~~~~~~~~~~~~~~~~~~~~~~~~~~~~~~~~~~~~~~~~~~ Voting Options ~~~~~~~~~~~~~~~~~~~~~~~~~~~~~~~~~~~~~~~~~~~~~~~~ //\r\n\r\n    /*\r\n    *  Structure which represents a single voter.\r\n    */\r\n    struct Voter\r\n    {\r\n        bool eligibleToVote;    // Is this voter allowed to vote?\r\n        bool isVoted;             // State of whether this voter has voted.\r\n        bytes32[] votedFor;          // List candidates' ID this voter voted for.\r\n    }\r\n\r\n    address[] voterAddressList;\r\n    mapping(address => Voter) public voters; // State variable which maps any address to a 'Voter' struct.\r\n\r\n    /*\r\n    *  Allow an address (voter) to vote on this ballot.\r\n    *  NOTE: this can only be called by the ballot owner.\r\n    */\r\n    function giveRightToVote(address _voter) onlyOwner public\r\n    {\r\n        require (now < endRegPhase, 'Ballot setup time has ended!');\r\n        voters[_voter].eligibleToVote = true;\r\n        registeredVoterCount += 1;      // Increment registered voters.\r\n        voterAddressList.push(_voter);\r\n    }\r\n\r\n    /*\r\n    *  Allow an eligible voter to vote for their chosen votingOption.\r\n    *\r\n    *  NOTE: if anything fails during this call we will throw and automatically\r\n    *        revert all changes.\r\n    */\r\n    function voteForCandidate(bytes32 _candidateID) private\r\n    {\r\n        require(validTime());\r\n        require(canVote(msg.sender));// Get the Voter struct for this sender.\r\n\r\n        voters[msg.sender].isVoted = true;\r\n        votedVoterCount += 1;\r\n        voters[msg.sender].votedFor.push(_candidateID); //Add candidateID to list whom voter voted\r\n        voteReceived[_candidateID].push(msg.sender);\r\n    }\r\n\r\n    /*\r\n    *  Allow an eligible voter to vote for a list of candidate\r\n    *  If they have already isVoted, then remove their vote from the previous\r\n    *  'votingOption' and assign it to the new one.\r\n    *\r\n    *  NOTE: if anything fails during this call we will throw and automatically\r\n    *        revert all changes.\r\n    */\r\n    function voteForCandidates(bytes32[] _candidateIDs) public {\r\n        require(validTime());\r\n        require(canVote(msg.sender));\r\n\r\n        for (uint i = 0; i < _candidateIDs.length; i++) {\r\n            voteForCandidate(_candidateIDs[i]);\r\n            //emit VoteFor(msg.sender, _candidateIDs);\r\n        }\r\n    }\r\n\r\n    function validCandidate(bytes32 _candidateID) public view returns (bool) {\r\n        for (uint i = 0; i < candidateIDs.length; i++) {\r\n            if (candidateIDs[i] == _candidateID) {\r\n                return true;\r\n            }\r\n        }\r\n        return false;\r\n    }\r\n\r\n    function hasRightToVote(address voterAddress) public view returns (bool) {\r\n        if (voters[voterAddress].eligibleToVote && voters[voterAddress].isVoted) {\r\n            return true;\r\n        } else {\r\n            return false;\r\n        }\r\n    }\r\n\r\n    // ~~~~~~~~~~~~~~~~~~~~~~~~~~~~~~~~~~~~~~~~~~~~~~ Getter Functions ~~~~~~~~~~~~~~~~~~~~~~~~~~~~~~~~~~~~~~~~~~~~~~~~ //\r\n\r\n    /*\r\n    * Returns the ballots bytes32.\r\n    */\r\n    function getBallotInfo() public returns (\r\n        bytes32, uint, uint, uint, uint, bool, uint, uint\r\n    ) {\r\n        return (\r\n        ballotName,\r\n        startRegPhase,\r\n        endRegPhase,\r\n        startVotingPhase,\r\n        endVotingPhase,\r\n        isFinalized,\r\n        registeredVoterCount,\r\n        votedVoterCount\r\n        );\r\n    }\r\n\r\n    /*\r\n    * Returns the number of candidates.\r\n    */\r\n    function getCandidateLength() public returns (uint)\r\n    {\r\n        return candidateIDs.length;\r\n    }\r\n\r\n    function getCandidateList() public returns (bytes32[]) {\r\n        return candidateIDs;\r\n    }\r\n\r\n    /*    *//*\r\n    * Returns the candidateID of a candidate at a specific index.\r\n    * Throws if index out of bounds.\r\n    *//*\r\n    function getVotingOptionsName(uint _index) returns (bytes32)\r\n    {\r\n        return votingOptions[_index].candidateID;\r\n    }*/\r\n\r\n    /*\r\n    * Returns the number of votes for a candidate at the specified index.\r\n    * Throws if index out of bounds.\r\n    */\r\n    function getCandidateResult(bytes32 _candidateID) public returns (uint, address[])\r\n    {\r\n        return (voteReceived[_candidateID].length, voteReceived[_candidateID]);\r\n    }\r\n\r\n    // Return a list of people who have voted for candidate\r\n\r\n\r\n    /*\r\n    * Returns if the voting options have been finalized.\r\n    */\r\n    function isBallotFinalized() public returns (bool)\r\n    {\r\n        return isFinalized;\r\n    }\r\n\r\n    function getVotedForList(address voterAddress) public returns (bytes32[]) {\r\n        return voters[voterAddress].votedFor;\r\n    }\r\n\r\n    function getVoterAddressList() onlyOwner public  returns (address[]) {\r\n        return voterAddressList;\r\n    }\r\n\r\n\r\n}\r\n",
  "sourcePath": "E:\\Work\\ETH\\EtherVote\\OnlineBallotRegulator\\truffle\\contracts\\BallotContract.sol",
  "compiler": {
    "name": "solc",
    "version": "0.4.24+commit.e67f0147.Emscripten.clang"
  },
  "schemaVersion": "2.0.1",
  "updatedAt": "2018-09-13T06:59:31.930Z"
}