{
  "contractName": "BallotContract",
  "abi": [
    {
      "constant": true,
      "inputs": [
        {
          "name": "",
          "type": "address"
        }
      ],
      "name": "voters",
      "outputs": [
        {
          "name": "eligibleToVote",
          "type": "bool"
        },
        {
          "name": "isVoted",
          "type": "bool"
        },
        {
          "name": "isFunded",
          "type": "bool"
        }
      ],
      "payable": false,
      "stateMutability": "view",
      "type": "function"
    },
    {
      "inputs": [],
      "payable": false,
      "stateMutability": "nonpayable",
      "type": "constructor"
    },
    {
      "payable": true,
      "stateMutability": "payable",
      "type": "fallback"
    },
    {
      "constant": false,
      "inputs": [
        {
          "name": "phrase",
          "type": "bytes32"
        }
      ],
      "name": "close",
      "outputs": [],
      "payable": false,
      "stateMutability": "nonpayable",
      "type": "function"
    },
    {
      "constant": false,
      "inputs": [
        {
          "name": "phrase",
          "type": "bytes32"
        }
      ],
      "name": "claimStoredAmount",
      "outputs": [],
      "payable": false,
      "stateMutability": "nonpayable",
      "type": "function"
    },
    {
      "constant": false,
      "inputs": [
        {
          "name": "_ballotName",
          "type": "bytes32"
        },
        {
          "name": "_fundAmount",
          "type": "uint256"
        },
        {
          "name": "_limitCandidate",
          "type": "uint256"
        },
        {
          "name": "_startVotingPhase",
          "type": "uint256"
        },
        {
          "name": "_endVotingPhase",
          "type": "uint256"
        },
        {
          "name": "_startRegPhase",
          "type": "uint256"
        },
        {
          "name": "_endRegPhase",
          "type": "uint256"
        },
        {
          "name": "_candidateIDs",
          "type": "bytes32[]"
        }
      ],
      "name": "setupBallot",
      "outputs": [],
      "payable": false,
      "stateMutability": "nonpayable",
      "type": "function"
    },
    {
      "constant": false,
      "inputs": [
        {
          "name": "_amount",
          "type": "uint256"
        }
      ],
      "name": "setTransferAmount",
      "outputs": [],
      "payable": false,
      "stateMutability": "nonpayable",
      "type": "function"
    },
    {
      "constant": false,
      "inputs": [
        {
          "name": "_candidateIDs",
          "type": "bytes32[]"
        }
      ],
      "name": "addCandidates",
      "outputs": [],
      "payable": false,
      "stateMutability": "nonpayable",
      "type": "function"
    },
    {
      "constant": false,
      "inputs": [
        {
          "name": "phrase",
          "type": "bytes32"
        }
      ],
      "name": "finalizeBallot",
      "outputs": [],
      "payable": false,
      "stateMutability": "nonpayable",
      "type": "function"
    },
    {
      "constant": false,
      "inputs": [
        {
          "name": "phrase",
          "type": "bytes32"
        }
      ],
      "name": "resetTime",
      "outputs": [
        {
          "name": "",
          "type": "bool"
        }
      ],
      "payable": false,
      "stateMutability": "nonpayable",
      "type": "function"
    },
    {
      "constant": false,
      "inputs": [
        {
          "name": "_voter",
          "type": "address"
        }
      ],
      "name": "giveRightToVote",
      "outputs": [],
      "payable": false,
      "stateMutability": "nonpayable",
      "type": "function"
    },
    {
      "constant": false,
      "inputs": [
        {
          "name": "_candidateIDs",
          "type": "bytes32[]"
        }
      ],
      "name": "voteForCandidates",
      "outputs": [],
      "payable": false,
      "stateMutability": "nonpayable",
      "type": "function"
    },
    {
      "constant": true,
      "inputs": [
        {
          "name": "_candidateID",
          "type": "bytes32"
        }
      ],
      "name": "validCandidate",
      "outputs": [
        {
          "name": "",
          "type": "bool"
        }
      ],
      "payable": false,
      "stateMutability": "view",
      "type": "function"
    },
    {
      "constant": true,
      "inputs": [
        {
          "name": "voterAddress",
          "type": "address"
        }
      ],
      "name": "hasRightToVote",
      "outputs": [
        {
          "name": "",
          "type": "bool"
        }
      ],
      "payable": false,
      "stateMutability": "view",
      "type": "function"
    },
    {
      "constant": false,
      "inputs": [],
      "name": "getBallotOverview",
      "outputs": [
        {
          "name": "",
          "type": "bytes32"
        },
        {
          "name": "",
          "type": "uint256"
        },
        {
          "name": "",
          "type": "bool"
        },
        {
          "name": "",
          "type": "uint256"
        },
        {
          "name": "",
          "type": "uint256"
        },
        {
          "name": "",
          "type": "uint256"
        },
        {
          "name": "",
          "type": "uint256"
        },
        {
          "name": "",
          "type": "uint256"
        },
        {
          "name": "",
          "type": "uint256"
        },
        {
          "name": "",
          "type": "uint256"
        },
        {
          "name": "",
          "type": "uint256"
        },
        {
          "name": "",
          "type": "uint256"
        }
      ],
      "payable": false,
      "stateMutability": "nonpayable",
      "type": "function"
    },
    {
      "constant": false,
      "inputs": [],
      "name": "getBallotPhases",
      "outputs": [
        {
          "name": "",
          "type": "uint256"
        },
        {
          "name": "",
          "type": "uint256"
        },
        {
          "name": "",
          "type": "uint256"
        },
        {
          "name": "",
          "type": "uint256"
        }
      ],
      "payable": false,
      "stateMutability": "nonpayable",
      "type": "function"
    },
    {
      "constant": false,
      "inputs": [],
      "name": "getCandidateLength",
      "outputs": [
        {
          "name": "",
          "type": "uint256"
        }
      ],
      "payable": false,
      "stateMutability": "nonpayable",
      "type": "function"
    },
    {
      "constant": false,
      "inputs": [],
      "name": "getCandidateList",
      "outputs": [
        {
          "name": "",
          "type": "bytes32[]"
        }
      ],
      "payable": false,
      "stateMutability": "nonpayable",
      "type": "function"
    },
    {
      "constant": false,
      "inputs": [
        {
          "name": "_candidateID",
          "type": "bytes32"
        }
      ],
      "name": "getCandidateResult",
      "outputs": [
        {
          "name": "",
          "type": "uint256"
        },
        {
          "name": "",
          "type": "address[]"
        }
      ],
      "payable": false,
      "stateMutability": "nonpayable",
      "type": "function"
    },
    {
      "constant": false,
      "inputs": [],
      "name": "isBallotFinalized",
      "outputs": [
        {
          "name": "",
          "type": "bool"
        }
      ],
      "payable": false,
      "stateMutability": "nonpayable",
      "type": "function"
    },
    {
      "constant": false,
      "inputs": [
        {
          "name": "voterAddress",
          "type": "address"
        }
      ],
      "name": "getVotedForList",
      "outputs": [
        {
          "name": "",
          "type": "bytes32[]"
        }
      ],
      "payable": false,
      "stateMutability": "nonpayable",
      "type": "function"
    },
    {
      "constant": false,
      "inputs": [],
      "name": "getVoterAddressList",
      "outputs": [
        {
          "name": "",
          "type": "address[]"
        }
      ],
      "payable": false,
      "stateMutability": "nonpayable",
      "type": "function"
    }
  ],
  "bytecode": "0x608060405234801561001057600080fd5b50336000806101000a81548173ffffffffffffffffffffffffffffffffffffffff021916908373ffffffffffffffffffffffffffffffffffffffff1602179055507f4e6f74207365740000000000000000000000000000000000000000000000000060028160001916905550600060038190555060006004819055506000600581905550600060068190555060006007819055506000600860006101000a81548160ff02191690831515021790555060006009819055506000600a819055506000600b819055503073ffffffffffffffffffffffffffffffffffffffff16316001819055506000600c81905550611ece8061010c6000396000f300608060405260043610610112576000357c0100000000000000000000000000000000000000000000000000000000900463ffffffff168063392e66781461011b57806339c79e0c146101585780633bdcb71e14610181578063431f96ac146101ac578063458b6474146101e95780635ef955dc1461022757806365c93769146102505780636eab06c41461028d57806371f9a5dd146102b657806381c82233146102e45780638b5e05e21461030d5780639e7b8d6114610336578063a3ec138d1461035f578063bd8f7d2e1461039e578063c623f910146103d4578063dbcb6d47146103fd578063e17b240a14610428578063eeaa17a514610451578063f7522a831461048e578063fdbc4006146104b9575b34600181905550005b34801561012757600080fd5b50610142600480360361013d919081019061193c565b6104e4565b60405161014f9190611bc5565b60405180910390f35b34801561016457600080fd5b5061017f600480360361017a919081019061193c565b610543565b005b34801561018d57600080fd5b506101966106c3565b6040516101a39190611bc5565b60405180910390f35b3480156101b857600080fd5b506101d360048036036101ce919081019061193c565b6106da565b6040516101e09190611bc5565b60405180910390f35b3480156101f557600080fd5b50610210600480360361020b919081019061193c565b61096f565b60405161021e929190611d0c565b60405180910390f35b34801561023357600080fd5b5061024e6004803603610249919081019061193c565b610a3e565b005b34801561025c57600080fd5b50610277600480360361027291908101906118d2565b610b97565b6040516102849190611bc5565b60405180910390f35b34801561029957600080fd5b506102b460048036036102af91908101906118fb565b610c5a565b005b3480156102c257600080fd5b506102cb610d37565b6040516102db9493929190611d3c565b60405180910390f35b3480156102f057600080fd5b5061030b60048036036103069190810190611a2f565b610d57565b005b34801561031957600080fd5b50610334600480360361032f9190810190611965565b610d67565b005b34801561034257600080fd5b5061035d600480360361035891908101906118d2565b610e61565b005b34801561036b57600080fd5b50610386600480360361038191908101906118d2565b61101a565b60405161039593929190611be0565b60405180910390f35b3480156103aa57600080fd5b506103b361106b565b6040516103cb9c9b9a99989796959493929190611c17565b60405180910390f35b3480156103e057600080fd5b506103fb60048036036103f6919081019061193c565b6110d4565b005b34801561040957600080fd5b506104126111f1565b60405161041f9190611b81565b60405180910390f35b34801561043457600080fd5b5061044f600480360361044a91908101906118fb565b6112da565b005b34801561045d57600080fd5b50610478600480360361047391908101906118d2565b611375565b6040516104859190611ba3565b60405180910390f35b34801561049a57600080fd5b506104a3611413565b6040516104b09190611cf1565b60405180910390f35b3480156104c557600080fd5b506104ce611420565b6040516104db9190611ba3565b60405180910390f35b600080600090505b600d80549050811015610538578260001916600d8281548110151561050d57fe5b906000526020600020015460001916141561052b576001915061053d565b80806001019150506104ec565b600091505b50919050565b6000809054906101000a900473ffffffffffffffffffffffffffffffffffffffff1673ffffffffffffffffffffffffffffffffffffffff163373ffffffffffffffffffffffffffffffffffffffff1614151561059e57600080fd5b7f636c6f73650000000000000000000000000000000000000000000000000000006040518082600019166000191681526020019150506040518091039020600019168160405180826000191660001916815260200191505060405180910390206000191614151561060e57600080fd5b600060015411151561061f57600080fd5b6000809054906101000a900473ffffffffffffffffffffffffffffffffffffffff1673ffffffffffffffffffffffffffffffffffffffff166108fc6001549081150290604051600060405180830381858888f19350505050158015610688573d6000803e3d6000fd5b506000809054906101000a900473ffffffffffffffffffffffffffffffffffffffff1673ffffffffffffffffffffffffffffffffffffffff16ff5b6000600860009054906101000a900460ff16905090565b60008060009054906101000a900473ffffffffffffffffffffffffffffffffffffffff1673ffffffffffffffffffffffffffffffffffffffff163373ffffffffffffffffffffffffffffffffffffffff1614151561073757600080fd5b7f73746172745265675068617365000000000000000000000000000000000000006040518082600019166000191681526020019150506040518091039020600019168260405180826000191660001916815260200191505060405180910390206000191614156107aa5760006004819055505b7f656e64526567506861736500000000000000000000000000000000000000000060405180826000191660001916815260200191505060405180910390206000191682604051808260001916600019168152602001915050604051809103902060001916141561081d5760006005819055505b7f7374617274566f74696e675068617365000000000000000000000000000000006040518082600019166000191681526020019150506040518091039020600019168260405180826000191660001916815260200191505060405180910390206000191614156108905760006006819055505b7f656e64566f74696e6750686173650000000000000000000000000000000000006040518082600019166000191681526020019150506040518091039020600019168260405180826000191660001916815260200191505060405180910390206000191614156109035760006007819055505b7f737461727452656750686173650000000000000000000000000000000000000060405180826000191660001916815260200191505060405180910390206000191682604051808260001916600019168152602001915050604051809103902060001916149050919050565b60006060600e6000846000191660001916815260200190815260200160002080549050600e6000856000191660001916815260200190815260200160002080805480602002602001604051908101604052809291908181526020018280548015610a2e57602002820191906000526020600020905b8160009054906101000a900473ffffffffffffffffffffffffffffffffffffffff1673ffffffffffffffffffffffffffffffffffffffff16815260200190600101908083116109e4575b5050505050905091509150915091565b6000809054906101000a900473ffffffffffffffffffffffffffffffffffffffff1673ffffffffffffffffffffffffffffffffffffffff163373ffffffffffffffffffffffffffffffffffffffff16141515610a9957600080fd5b60075442111515610aa957600080fd5b6000600154111515610aba57600080fd5b7f636c61696d00000000000000000000000000000000000000000000000000000060405180826000191660001916815260200191505060405180910390206000191681604051808260001916600019168152602001915050604051809103902060001916141515610b2a57600080fd5b6000809054906101000a900473ffffffffffffffffffffffffffffffffffffffff1673ffffffffffffffffffffffffffffffffffffffff166108fc6001549081150290604051600060405180830381858888f19350505050158015610b93573d6000803e3d6000fd5b5050565b6000601060008373ffffffffffffffffffffffffffffffffffffffff1673ffffffffffffffffffffffffffffffffffffffff16815260200190815260200160002060000160009054906101000a900460ff168015610c425750601060008373ffffffffffffffffffffffffffffffffffffffff1673ffffffffffffffffffffffffffffffffffffffff16815260200190815260200160002060000160019054906101000a900460ff16155b15610c505760019050610c55565b600090505b919050565b6000809054906101000a900473ffffffffffffffffffffffffffffffffffffffff1673ffffffffffffffffffffffffffffffffffffffff163373ffffffffffffffffffffffffffffffffffffffff16141515610cb557600080fd5b60055442101515610cfb576040517f08c379a0000000000000000000000000000000000000000000000000000000008152600401610cf290611cd1565b60405180910390fd5b60001515600860009054906101000a900460ff161515141515610d1d57600080fd5b80600d9080519060200190610d33929190611799565b5050565b600080600080600454600554600654600754935093509350935090919293565b633b9aca008102600c8190555050565b6000809054906101000a900473ffffffffffffffffffffffffffffffffffffffff1673ffffffffffffffffffffffffffffffffffffffff163373ffffffffffffffffffffffffffffffffffffffff16141515610dc257600080fd5b8760028160001916905550633b9aca008702600c8190555085600381905550826004819055508160058190555084600681905550836007819055506000600860006101000a81548160ff02191690831515021790555060006009819055506000600a819055506000600b819055503073ffffffffffffffffffffffffffffffffffffffff1631600181905550610e5781610c5a565b5050505050505050565b6000809054906101000a900473ffffffffffffffffffffffffffffffffffffffff1673ffffffffffffffffffffffffffffffffffffffff163373ffffffffffffffffffffffffffffffffffffffff16141515610ebc57600080fd5b60055442101515610f02576040517f08c379a0000000000000000000000000000000000000000000000000000000008152600401610ef990611cd1565b60405180910390fd5b6001543073ffffffffffffffffffffffffffffffffffffffff163110151515610f2a57600080fd5b600c54600154111515610f3c57600080fd5b6001601060008373ffffffffffffffffffffffffffffffffffffffff1673ffffffffffffffffffffffffffffffffffffffff16815260200190815260200160002060000160006101000a81548160ff0219169083151502179055506001600960008282540192505081905550600f8190806001815401808255809150509060018203906000526020600020016000909192909190916101000a81548173ffffffffffffffffffffffffffffffffffffffff021916908373ffffffffffffffffffffffffffffffffffffffff160217905550506110178161147c565b50565b60106020528060005260406000206000915090508060000160009054906101000a900460ff16908060000160019054906101000a900460ff16908060000160029054906101000a900460ff16905083565b600080600080600080600080600080600080600254600354600860009054906101000a900460ff16600c54600154600454600554600654600754600954600a54600b549b509b509b509b509b509b509b509b509b509b509b509b50909192939495969798999a9b565b6000809054906101000a900473ffffffffffffffffffffffffffffffffffffffff1673ffffffffffffffffffffffffffffffffffffffff163373ffffffffffffffffffffffffffffffffffffffff1614151561112f57600080fd5b6002600d8054905011151561114357600080fd5b7f66696e616c697a65000000000000000000000000000000000000000000000000604051808260001916600019168152602001915050604051809103902060001916816040518082600019166000191681526020019150506040518091039020600019161415156111b357600080fd5b600654421015156111c357600080fd5b600454421115156111d357600080fd5b6001600860006101000a81548160ff02191690831515021790555050565b60606000809054906101000a900473ffffffffffffffffffffffffffffffffffffffff1673ffffffffffffffffffffffffffffffffffffffff163373ffffffffffffffffffffffffffffffffffffffff1614151561124e57600080fd5b600f8054806020026020016040519081016040528092919081815260200182805480156112d057602002820191906000526020600020905b8160009054906101000a900473ffffffffffffffffffffffffffffffffffffffff1673ffffffffffffffffffffffffffffffffffffffff1681526020019060010190808311611286575b5050505050905090565b60008090505b81518110156113165761130982828151811015156112fa57fe5b90602001906020020151611680565b80806001019150506112e0565b6001601060003373ffffffffffffffffffffffffffffffffffffffff1673ffffffffffffffffffffffffffffffffffffffff16815260200190815260200160002060000160016101000a81548160ff0219169083151502179055505050565b6060601060008373ffffffffffffffffffffffffffffffffffffffff1673ffffffffffffffffffffffffffffffffffffffff16815260200190815260200160002060010180548060200260200160405190810160405280929190818152602001828054801561140757602002820191906000526020600020905b815460001916815260200190600101908083116113ef575b50505050509050919050565b6000600d80549050905090565b6060600d80548060200260200160405190810160405280929190818152602001828054801561147257602002820191906000526020600020905b8154600019168152602001906001019080831161145a575b5050505050905090565b6000809054906101000a900473ffffffffffffffffffffffffffffffffffffffff1673ffffffffffffffffffffffffffffffffffffffff163373ffffffffffffffffffffffffffffffffffffffff161415156114d757600080fd5b601060008273ffffffffffffffffffffffffffffffffffffffff1673ffffffffffffffffffffffffffffffffffffffff16815260200190815260200160002060000160009054906101000a900460ff16151561153257600080fd5b6001543073ffffffffffffffffffffffffffffffffffffffff16311015151561155a57600080fd5b601060008273ffffffffffffffffffffffffffffffffffffffff1673ffffffffffffffffffffffffffffffffffffffff16815260200190815260200160002060000160029054906101000a900460ff161515156115b657600080fd5b6001601060008373ffffffffffffffffffffffffffffffffffffffff1673ffffffffffffffffffffffffffffffffffffffff16815260200190815260200160002060000160026101000a81548160ff021916908315150217905550600c546001600082825403925050819055508073ffffffffffffffffffffffffffffffffffffffff166108fc600c549081150290604051600060405180830381858888f1935050505015801561166b573d6000803e3d6000fd5b506001600b6000828254019250508190555050565b611689816104e4565b151561169457600080fd5b6001600a60008282540192505081905550601060003373ffffffffffffffffffffffffffffffffffffffff1673ffffffffffffffffffffffffffffffffffffffff168152602001908152602001600020600101819080600181540180825580915050906001820390600052602060002001600090919290919091509060001916905550600e600082600019166000191681526020019081526020016000203390806001815401808255809150509060018203906000526020600020016000909192909190916101000a81548173ffffffffffffffffffffffffffffffffffffffff021916908373ffffffffffffffffffffffffffffffffffffffff1602179055505050565b8280548282559060005260206000209081019282156117db579160200282015b828111156117da5782518290600019169055916020019190600101906117b9565b5b5090506117e891906117ec565b5090565b61180e91905b8082111561180a5760008160009055506001016117f2565b5090565b90565b600061181d8235611e60565b905092915050565b600082601f830112151561183857600080fd5b813561184b61184682611dae565b611d81565b9150818183526020840193506020810190508385602084028201111561187057600080fd5b60005b838110156118a0578161188688826118aa565b845260208401935060208301925050600181019050611873565b5050505092915050565b60006118b68235611e80565b905092915050565b60006118ca8235611e8a565b905092915050565b6000602082840312156118e457600080fd5b60006118f284828501611811565b91505092915050565b60006020828403121561190d57600080fd5b600082013567ffffffffffffffff81111561192757600080fd5b61193384828501611825565b91505092915050565b60006020828403121561194e57600080fd5b600061195c848285016118aa565b91505092915050565b600080600080600080600080610100898b03121561198257600080fd5b60006119908b828c016118aa565b98505060206119a18b828c016118be565b97505060406119b28b828c016118be565b96505060606119c38b828c016118be565b95505060806119d48b828c016118be565b94505060a06119e58b828c016118be565b93505060c06119f68b828c016118be565b92505060e089013567ffffffffffffffff811115611a1357600080fd5b611a1f8b828c01611825565b9150509295985092959890939650565b600060208284031215611a4157600080fd5b6000611a4f848285016118be565b91505092915050565b611a6181611e20565b82525050565b6000611a7282611df0565b808452602084019350611a8483611dd6565b60005b82811015611ab657611a9a868351611a58565b611aa382611e06565b9150602086019550600181019050611a87565b50849250505092915050565b6000611acd82611dfb565b808452602084019350611adf83611de3565b60005b82811015611b1157611af5868351611b2c565b611afe82611e13565b9150602086019550600181019050611ae2565b50849250505092915050565b611b2681611e40565b82525050565b611b3581611e4c565b82525050565b6000601c82527f42616c6c6f742073657475702074696d652068617320656e64656421000000006020830152604082019050919050565b611b7b81611e56565b82525050565b60006020820190508181036000830152611b9b8184611a67565b905092915050565b60006020820190508181036000830152611bbd8184611ac2565b905092915050565b6000602082019050611bda6000830184611b1d565b92915050565b6000606082019050611bf56000830186611b1d565b611c026020830185611b1d565b611c0f6040830184611b1d565b949350505050565b600061018082019050611c2d600083018f611b2c565b611c3a602083018e611b72565b611c47604083018d611b1d565b611c54606083018c611b72565b611c61608083018b611b72565b611c6e60a083018a611b72565b611c7b60c0830189611b72565b611c8860e0830188611b72565b611c96610100830187611b72565b611ca4610120830186611b72565b611cb2610140830185611b72565b611cc0610160830184611b72565b9d9c50505050505050505050505050565b60006020820190508181036000830152611cea81611b3b565b9050919050565b6000602082019050611d066000830184611b72565b92915050565b6000604082019050611d216000830185611b72565b8181036020830152611d338184611a67565b90509392505050565b6000608082019050611d516000830187611b72565b611d5e6020830186611b72565b611d6b6040830185611b72565b611d786060830184611b72565b95945050505050565b6000604051905081810181811067ffffffffffffffff82111715611da457600080fd5b8060405250919050565b600067ffffffffffffffff821115611dc557600080fd5b602082029050602081019050919050565b6000602082019050919050565b6000602082019050919050565b600081519050919050565b600081519050919050565b6000602082019050919050565b6000602082019050919050565b600073ffffffffffffffffffffffffffffffffffffffff82169050919050565b60008115159050919050565b6000819050919050565b6000819050919050565b600073ffffffffffffffffffffffffffffffffffffffff82169050919050565b6000819050919050565b60008190509190505600a265627a7a723058208dc9a1adb9cb0d78776c216da45a32d0e198376fc63098e57eba247ceed417c26c6578706572696d656e74616cf50037",
  "source": "pragma solidity ^0.4.24;\r\npragma experimental ABIEncoderV2; // Allow passing struct as argument\r\n\r\n// We have to specify what version of compiler this code will compile with\r\n\r\ncontract BallotContract {\r\n\r\n\r\n// ~~~~~~~~~~~~~~~~~~~~~~~~~~~~~~~~~~~~~~~~~~~~ Contract Constructor ~~~~~~~~~~~~~~~~~~~~~~~~~~~~~~~~~~~~~~~~~~~~~~ //\r\n\r\n    address owner;\r\n    uint256 storedAmount;\r\n\r\n    /*\r\n    * Modifier to only allow the owner to call a function.\r\n    */\r\n    modifier onlyOwner {\r\n        require(msg.sender == owner );\r\n        _;\r\n\r\n    }\r\n\r\n    /*\r\n    *  This function is called *once* at first initialization into the blockchain.\r\n    */\r\n    constructor ()\r\n    {\r\n        owner = msg.sender;       // Set the owner to the address creating the contract.\r\n        ballotName = 'Not set';\r\n        limitCandidate = 0;\r\n\r\n        startRegPhase = 0;\r\n        endRegPhase = 0;\r\n        startVotingPhase = 0;\r\n        endVotingPhase = 0;\r\n\r\n        isFinalized = false;\r\n        registeredVoterCount = 0;\r\n        votedVoterCount = 0;\r\n        fundedVoterCount = 0;\r\n        storedAmount = address(this).balance;\r\n        amount = 0;\r\n\r\n    }\r\n\r\n    function close(bytes32 phrase) onlyOwner public {\r\n        require( keccak256(phrase) == keccak256(bytes32('close')));\r\n        require(storedAmount > 0);\r\n        owner.transfer(storedAmount);\r\n        selfdestruct(owner);\r\n    }\r\n\r\n    function () payable {\r\n        storedAmount = msg.value;\r\n    }\r\n\r\n    function claimStoredAmount(bytes32 phrase) onlyOwner {\r\n        require(now > endVotingPhase);\r\n        require(storedAmount > 0);\r\n        require(  keccak256(phrase) == keccak256(bytes32('claim')) );\r\n\r\n        owner.transfer(storedAmount); // Transfer back remaining amount\r\n    }\r\n\r\n\r\n    // ~~~~~~~~~~~~~~~~~~~~~~~~~~~~~~~~~~~~~~~~~~~~ Validator ~~~~~~~~~~~~~~~~~~~~~~~~~~~~~~~~~~~~~~~~~~~~~~ //\r\n\r\n    function validTime() private view returns (bool) {\r\n        if ( now > endVotingPhase || now < startVotingPhase)\r\n            return false;\r\n        return true;\r\n    }\r\n\r\n    function canVote(address voterAddress) private view returns (bool) {\r\n        if (isFinalized == false)       // If the options are not finalized, we cannot vote.\r\n            return false;\r\n\r\n        if (voters[voterAddress].eligibleToVote == false)\r\n            return false;\r\n\r\n        if (voters[voterAddress].isVoted == true) // If the voter has already voted, voter cannot vote anymore\r\n            return false;\r\n        return true;\r\n    }\r\n\r\n    // ~~~~~~~~~~~~~~~~~~~~~~~~~~~~~~~~~~~~~~~~~~~~~~ Ballot Options (Candidate) ~~~~~~~~~~~~~~~~~~~~~~~~~~~~~~~~~~~~~~~~~~~~~~~~~~ //\r\n\r\n\r\n    bytes32 ballotName; // The ballot candidateID.\r\n    uint    limitCandidate;\r\n\r\n    // Time: seconds since 1970-01-01\r\n    uint    startRegPhase;\r\n    uint    endRegPhase;\r\n    uint    startVotingPhase;\r\n    uint    endVotingPhase;\r\n\r\n    // Ballot status\r\n    bool    isFinalized;       // Whether the owner can still add voting options.\r\n    uint    registeredVoterCount;   // Total number of voter addresses registered.\r\n    uint    votedVoterCount;\r\n    uint    fundedVoterCount;\r\n    uint    amount; // in GWei\r\n\r\n    //\r\n    bytes32[] candidateIDs;\r\n    mapping (bytes32 => address[]) voteReceived; //map candidateId to array of address of whom has voted for them\r\n\r\n    function setupBallot (bytes32 _ballotName, uint _fundAmount, uint _limitCandidate,\r\n        uint _startVotingPhase, uint _endVotingPhase,\r\n                          uint _startRegPhase, uint _endRegPhase, bytes32[] _candidateIDs) onlyOwner public {\r\n\r\n        ballotName = _ballotName;\r\n        amount = _fundAmount*1000000000; //convert to wei\r\n        limitCandidate = _limitCandidate;\r\n        startRegPhase = _startRegPhase;\r\n        endRegPhase = _endRegPhase;\r\n        startVotingPhase = _startVotingPhase;\r\n        endVotingPhase = _endVotingPhase;\r\n\r\n        isFinalized = false;\r\n        registeredVoterCount = 0;\r\n        votedVoterCount = 0;\r\n        fundedVoterCount = 0;\r\n        storedAmount = address(this).balance;\r\n\r\n        addCandidates(_candidateIDs);\r\n    }\r\n\r\n    function setTransferAmount(uint _amount) {\r\n        amount = _amount*1000000000; //convert Gwei to wei\r\n    }\r\n\r\n\r\n    function addCandidates(bytes32[] _candidateIDs) onlyOwner public {\r\n        require (now < endRegPhase, 'Ballot setup time has ended!');\r\n        require (isFinalized == false);    // Check we are allowed to add options.\r\n\r\n        candidateIDs = _candidateIDs;\r\n    }\r\n\r\n    /*\r\n    *  Call this once all options have been added, this will stop further changes\r\n    *  and allow votes to be cast.\r\n    *  NOTE: this can only be called by the ballot owner.\r\n    */\r\n    function finalizeBallot(bytes32 phrase) onlyOwner public {\r\n        require(candidateIDs.length > 2);\r\n        require( keccak256(phrase) == keccak256(bytes32('finalize')));\r\n        require (now < startVotingPhase);\r\n        require (now > startRegPhase);\r\n\r\n        isFinalized = true;    // Stop the addition of any more change.\r\n    }\r\n\r\n    function resetTime(bytes32 phrase) onlyOwner public returns(bool) {\r\n        if (keccak256(phrase) == keccak256(bytes32('startRegPhase'))) {\r\n            startRegPhase = 0;\r\n        }\r\n        if (keccak256(phrase) == keccak256(bytes32('endRegPhase'))) {\r\n            endRegPhase = 0;\r\n        }\r\n        if (keccak256(phrase) == keccak256(bytes32('startVotingPhase'))) {\r\n            startVotingPhase = 0;\r\n        }\r\n        if (keccak256(phrase) == keccak256(bytes32('endVotingPhase'))) {\r\n            endVotingPhase = 0;\r\n        }\r\n        return keccak256(phrase) == keccak256(bytes32('startRegPhase'));\r\n    }\r\n\r\n    // ~~~~~~~~~~~~~~~~~~~~~~~~~~~~~~~~~~~~~~~~~~~~~~~~ Voting Options ~~~~~~~~~~~~~~~~~~~~~~~~~~~~~~~~~~~~~~~~~~~~~~~~ //\r\n\r\n    /*\r\n    *  Structure which represents a single voter.\r\n    */\r\n    struct Voter\r\n    {\r\n        bool eligibleToVote;    // Is this voter allowed to vote?\r\n        bool isVoted;             // State of whether this voter has voted.\r\n        bool isFunded;\r\n        bytes32[] votedFor;          // List candidates' ID this voter voted for.\r\n    }\r\n\r\n    address[] voterAddressList;\r\n    mapping(address => Voter) public voters; // State variable which maps any address to a 'Voter' struct.\r\n\r\n    /*\r\n    *  Allow an address (voter) to vote on this ballot.\r\n    *  NOTE: this can only be called by the ballot owner.\r\n    */\r\n    function giveRightToVote(address _voter) onlyOwner public {\r\n        require (now < endRegPhase, 'Ballot setup time has ended!');\r\n        require(address(this).balance >= storedAmount);\r\n        require(storedAmount > amount);\r\n\r\n        voters[_voter].eligibleToVote = true;\r\n        registeredVoterCount += 1;      // Increment registered voters.\r\n        voterAddressList.push(_voter);\r\n\r\n        // Fund user with money\r\n        giveFund(_voter);\r\n\r\n    }\r\n\r\n    function giveFund(address _voter) onlyOwner private {\r\n        require(voters[_voter].eligibleToVote); // User already had the right to vote\r\n        require(address(this).balance >= storedAmount);\r\n        require(!voters[_voter].isFunded);\r\n\r\n        voters[_voter].isFunded = true;\r\n        storedAmount -= amount;\r\n        _voter.transfer(amount);\r\n        fundedVoterCount += 1;\r\n    }\r\n\r\n    /*\r\n    *  Allow an eligible voter to vote for their chosen votingOption.\r\n    *\r\n    *  NOTE: if anything fails during this call we will throw and automatically\r\n    *        revert all changes.\r\n    */\r\n    function voteForCandidate(bytes32 _candidateID) private {\r\n        require(validCandidate(_candidateID));\r\n        votedVoterCount += 1;\r\n        voters[msg.sender].votedFor.push(_candidateID); //Add candidateID to list whom voter voted\r\n        voteReceived[_candidateID].push(msg.sender);\r\n    }\r\n\r\n    /*\r\n    *  Allow an eligible voter to vote for a list of candidate\r\n    *  If they have already isVoted, then remove their vote from the previous\r\n    *  'votingOption' and assign it to the new one.\r\n    *\r\n    *  NOTE: if anything fails during this call we will throw and automatically\r\n    *        revert all changes.\r\n    */\r\n    function voteForCandidates(bytes32[] _candidateIDs) public {\r\n        // comment for function debug\r\n        //require(validTime());\r\n        //require(canVote(msg.sender));\r\n\r\n        for (uint i = 0; i < _candidateIDs.length; i++) {\r\n            voteForCandidate(_candidateIDs[i]);\r\n            //emit VoteFor(msg.sender, _candidateIDs);\r\n        }\r\n        voters[msg.sender].isVoted = true;\r\n    }\r\n\r\n    function validCandidate(bytes32 _candidateID) public view returns (bool) {\r\n        for (uint i = 0; i < candidateIDs.length; i++) {\r\n            if (candidateIDs[i] == _candidateID) {\r\n                return true;\r\n            }\r\n        }\r\n        return false;\r\n    }\r\n\r\n    function hasRightToVote(address voterAddress) public view returns (bool) {\r\n        if (voters[voterAddress].eligibleToVote && !voters[voterAddress].isVoted) {\r\n            return true;\r\n        } else {\r\n            return false;\r\n        }\r\n    }\r\n\r\n    // ~~~~~~~~~~~~~~~~~~~~~~~~~~~~~~~~~~~~~~~~~~~~~~ Getter Functions ~~~~~~~~~~~~~~~~~~~~~~~~~~~~~~~~~~~~~~~~~~~~~~~~ //\r\n\r\n    /*\r\n    * Returns the ballots bytes32.\r\n    */\r\n    function getBallotOverview() public returns (\r\n        bytes32, uint, bool, uint, uint, uint, uint, uint, uint, uint, uint, uint\r\n    ) {\r\n        return ( // Do not change the return order\r\n        /*Ballot Info*/\r\n        ballotName,\r\n        limitCandidate,\r\n        isFinalized,\r\n        amount,\r\n        storedAmount,\r\n\r\n        /*Phase Info*/\r\n        startRegPhase,\r\n        endRegPhase,\r\n        startVotingPhase,\r\n        endVotingPhase,\r\n\r\n        /*Voter Info*/\r\n        registeredVoterCount,\r\n        votedVoterCount,\r\n        fundedVoterCount\r\n        );\r\n    }\r\n\r\n    /** Returns the ballot phases */\r\n    function getBallotPhases() public returns (uint, uint, uint, uint) {\r\n        return (\r\n        /*Phase Info*/\r\n        startRegPhase,\r\n        endRegPhase,\r\n        startVotingPhase,\r\n        endVotingPhase\r\n        );\r\n    }\r\n\r\n    /*\r\n    * Returns the number of candidates.\r\n    */\r\n    function getCandidateLength() public returns (uint)  {\r\n        return candidateIDs.length;\r\n    }\r\n\r\n    function getCandidateList() public returns (bytes32[]) {\r\n        return candidateIDs;\r\n    }\r\n\r\n    /*    *//*\r\n    * Returns the candidateID of a candidate at a specific index.\r\n    * Throws if index out of bounds.\r\n    *//*\r\n    function getVotingOptionsName(uint _index) returns (bytes32)\r\n    {\r\n        return votingOptions[_index].candidateID;\r\n    }*/\r\n\r\n    /*\r\n    * Returns the number of votes for a candidate at the specified index.\r\n    * Throws if index out of bounds.\r\n    */\r\n    function getCandidateResult(bytes32 _candidateID) public returns (uint, address[])\r\n    {\r\n        return (voteReceived[_candidateID].length, voteReceived[_candidateID]);\r\n    }\r\n\r\n    // Return a list of people who have voted for candidate\r\n\r\n\r\n    /*\r\n    * Returns if the voting options have been finalized.\r\n    */\r\n    function isBallotFinalized() public returns (bool)\r\n    {\r\n        return isFinalized;\r\n    }\r\n\r\n    function getVotedForList(address voterAddress) public returns (bytes32[]) {\r\n        return voters[voterAddress].votedFor;\r\n    }\r\n\r\n    function getVoterAddressList() onlyOwner public  returns (address[]) {\r\n        return voterAddressList;\r\n    }\r\n\r\n\r\n}\r\n",
  "sourcePath": "C:\\Users\\khoic\\Desktop\\Thesis\\Ether-Vote-OBR\\truffle\\contracts\\BallotContract.sol",
  "compiler": {
    "name": "solc",
    "version": "0.4.24+commit.e67f0147.Emscripten.clang"
  },
  "schemaVersion": "2.0.1",
  "updatedAt": "2018-11-06T03:16:07.920Z"
}