{
  "contractName": "Voting",
  "abi": [
    {
      "constant": true,
      "inputs": [
        {
          "name": "",
          "type": "address"
        }
      ],
      "name": "voters",
      "outputs": [
        {
          "name": "eligableToVote",
          "type": "bool"
        },
        {
          "name": "voted",
          "type": "bool"
        },
        {
          "name": "votedFor",
          "type": "uint256"
        }
      ],
      "payable": false,
      "stateMutability": "view",
      "type": "function"
    },
    {
      "constant": true,
      "inputs": [
        {
          "name": "",
          "type": "uint256"
        }
      ],
      "name": "votingOptions",
      "outputs": [
        {
          "name": "name",
          "type": "string"
        },
        {
          "name": "voteCount",
          "type": "uint256"
        }
      ],
      "payable": false,
      "stateMutability": "view",
      "type": "function"
    },
    {
      "constant": false,
      "inputs": [
        {
          "name": "_ballotName",
          "type": "string"
        },
        {
          "name": "_ballotEndTime",
          "type": "uint256"
        }
      ],
      "name": "ETHVoteBallot",
      "outputs": [],
      "payable": false,
      "stateMutability": "nonpayable",
      "type": "function"
    },
    {
      "constant": false,
      "inputs": [
        {
          "name": "_votingOptionName",
          "type": "string"
        }
      ],
      "name": "addVotingOption",
      "outputs": [],
      "payable": false,
      "stateMutability": "nonpayable",
      "type": "function"
    },
    {
      "constant": false,
      "inputs": [],
      "name": "finalizeVotingOptions",
      "outputs": [],
      "payable": false,
      "stateMutability": "nonpayable",
      "type": "function"
    },
    {
      "constant": false,
      "inputs": [
        {
          "name": "_voter",
          "type": "address"
        }
      ],
      "name": "giveRightToVote",
      "outputs": [],
      "payable": false,
      "stateMutability": "nonpayable",
      "type": "function"
    },
    {
      "constant": false,
      "inputs": [
        {
          "name": "_votingOptionIndex",
          "type": "uint256"
        }
      ],
      "name": "vote",
      "outputs": [],
      "payable": false,
      "stateMutability": "nonpayable",
      "type": "function"
    },
    {
      "constant": false,
      "inputs": [],
      "name": "getBallotName",
      "outputs": [
        {
          "name": "",
          "type": "string"
        }
      ],
      "payable": false,
      "stateMutability": "nonpayable",
      "type": "function"
    },
    {
      "constant": false,
      "inputs": [],
      "name": "getVotingOptionsLength",
      "outputs": [
        {
          "name": "",
          "type": "uint256"
        }
      ],
      "payable": false,
      "stateMutability": "nonpayable",
      "type": "function"
    },
    {
      "constant": false,
      "inputs": [],
      "name": "getRegisteredVoterCount",
      "outputs": [
        {
          "name": "",
          "type": "uint256"
        }
      ],
      "payable": false,
      "stateMutability": "nonpayable",
      "type": "function"
    },
    {
      "constant": false,
      "inputs": [
        {
          "name": "_index",
          "type": "uint256"
        }
      ],
      "name": "getVotingOptionsName",
      "outputs": [
        {
          "name": "",
          "type": "string"
        }
      ],
      "payable": false,
      "stateMutability": "nonpayable",
      "type": "function"
    },
    {
      "constant": false,
      "inputs": [
        {
          "name": "_index",
          "type": "uint256"
        }
      ],
      "name": "getVotingOptionsVoteCount",
      "outputs": [
        {
          "name": "",
          "type": "uint256"
        }
      ],
      "payable": false,
      "stateMutability": "nonpayable",
      "type": "function"
    },
    {
      "constant": false,
      "inputs": [],
      "name": "getOptionsFinalized",
      "outputs": [
        {
          "name": "",
          "type": "bool"
        }
      ],
      "payable": false,
      "stateMutability": "nonpayable",
      "type": "function"
    },
    {
      "constant": false,
      "inputs": [],
      "name": "getBallotEndTime",
      "outputs": [
        {
          "name": "",
          "type": "uint256"
        }
      ],
      "payable": false,
      "stateMutability": "nonpayable",
      "type": "function"
    }
  ],
  "bytecode": "0x608060405234801561001057600080fd5b50610dde806100206000396000f3006080604052600436106100d0576000357c0100000000000000000000000000000000000000000000000000000000900463ffffffff1680630121b93f146100d55780631cfe7e5a1461010257806326c170581461016b5780632b8c2504146101de57806339f1f2541461020957806346916102146102385780636bb37f721461024f57806372a51f81146102df5780639e7b8d611461030a578063a3ec138d1461034d578063c795e788146103ba578063d11d30a3146103fb578063dcf7b628146104a1578063dff67f6b146104cc575b600080fd5b3480156100e157600080fd5b5061010060048036038101908080359060200190929190505050610579565b005b34801561010e57600080fd5b50610169600480360381019080803590602001908201803590602001908080601f01602080910402602001604051908101604052809392919081815260200183838082843782019150505050505091929192905050506106ba565b005b34801561017757600080fd5b506101dc600480360381019080803590602001908201803590602001908080601f0160208091040260200160405190810160405280939291908181526020018383808284378201915050505050509192919290803590602001909291905050506107b5565b005b3480156101ea57600080fd5b506101f3610846565b6040518082815260200191505060405180910390f35b34801561021557600080fd5b5061021e610850565b604051808215151515815260200191505060405180910390f35b34801561024457600080fd5b5061024d610866565b005b34801561025b57600080fd5b50610264610900565b6040518080602001828103825283818151815260200191508051906020019080838360005b838110156102a4578082015181840152602081019050610289565b50505050905090810190601f1680156102d15780820380516001836020036101000a031916815260200191505b509250505060405180910390f35b3480156102eb57600080fd5b506102f46109a2565b6040518082815260200191505060405180910390f35b34801561031657600080fd5b5061034b600480360381019080803573ffffffffffffffffffffffffffffffffffffffff1690602001909291905050506109ac565b005b34801561035957600080fd5b5061038e600480360381019080803573ffffffffffffffffffffffffffffffffffffffff169060200190929190505050610a85565b604051808415151515815260200183151515158152602001828152602001935050505060405180910390f35b3480156103c657600080fd5b506103e560048036038101908080359060200190929190505050610ac9565b6040518082815260200191505060405180910390f35b34801561040757600080fd5b5061042660048036038101908080359060200190929190505050610af3565b6040518080602001828103825283818151815260200191508051906020019080838360005b8381101561046657808201518184015260208101905061044b565b50505050905090810190601f1680156104935780820380516001836020036101000a031916815260200191505b509250505060405180910390f35b3480156104ad57600080fd5b506104b6610bb5565b6040518082815260200191505060405180910390f35b3480156104d857600080fd5b506104f760048036038101908080359060200190929190505050610bc2565b6040518080602001838152602001828103825284818151815260200191508051906020019080838360005b8381101561053d578082015181840152602081019050610522565b50505050905090810190601f16801561056a5780820380516001836020036101000a031916815260200191505b50935050505060405180910390f35b600060035442111561058a57600080fd5b60001515600060149054906101000a900460ff16151514156105ab57600080fd5b600560003373ffffffffffffffffffffffffffffffffffffffff1673ffffffffffffffffffffffffffffffffffffffff1681526020019081526020016000209050600015158160000160009054906101000a900460ff161515141561060f57600080fd5b600115158160000160019054906101000a900460ff16151514156106615760016004826001015481548110151561064257fe5b9060005260206000209060020201600101600082825403925050819055505b60018160000160016101000a81548160ff021916908315150217905550818160010181905550600160048381548110151561069857fe5b9060005260206000209060020201600101600082825401925050819055505050565b6000809054906101000a900473ffffffffffffffffffffffffffffffffffffffff1673ffffffffffffffffffffffffffffffffffffffff163373ffffffffffffffffffffffffffffffffffffffff1614151561071557600080fd5b60035442111561072457600080fd5b60011515600060149054906101000a900460ff161515141561074557600080fd5b6004604080519081016040528083815260200160008152509080600181540180825580915050906001820390600052602060002090600202016000909192909190915060008201518160000190805190602001906107a4929190610c8d565b506020820151816001015550505050565b804211156107c257600080fd5b336000806101000a81548173ffffffffffffffffffffffffffffffffffffffff021916908373ffffffffffffffffffffffffffffffffffffffff16021790555060008060146101000a81548160ff0219169083151502179055508160019080519060200190610832929190610d0d565b506000600281905550806003819055505050565b6000600254905090565b60008060149054906101000a900460ff16905090565b6000809054906101000a900473ffffffffffffffffffffffffffffffffffffffff1673ffffffffffffffffffffffffffffffffffffffff163373ffffffffffffffffffffffffffffffffffffffff161415156108c157600080fd5b6003544211156108d057600080fd5b600260048054905010156108e357600080fd5b6001600060146101000a81548160ff021916908315150217905550565b606060018054600181600116156101000203166002900480601f0160208091040260200160405190810160405280929190818152602001828054600181600116156101000203166002900480156109985780601f1061096d57610100808354040283529160200191610998565b820191906000526020600020905b81548152906001019060200180831161097b57829003601f168201915b5050505050905090565b6000600354905090565b6000809054906101000a900473ffffffffffffffffffffffffffffffffffffffff1673ffffffffffffffffffffffffffffffffffffffff163373ffffffffffffffffffffffffffffffffffffffff16141515610a0757600080fd5b600354421115610a1657600080fd5b6001600560008373ffffffffffffffffffffffffffffffffffffffff1673ffffffffffffffffffffffffffffffffffffffff16815260200190815260200160002060000160006101000a81548160ff021916908315150217905550600160026000828254019250508190555050565b60056020528060005260406000206000915090508060000160009054906101000a900460ff16908060000160019054906101000a900460ff16908060010154905083565b6000600482815481101515610ada57fe5b9060005260206000209060020201600101549050919050565b6060600482815481101515610b0457fe5b90600052602060002090600202016000018054600181600116156101000203166002900480601f016020809104026020016040519081016040528092919081815260200182805460018160011615610100020316600290048015610ba95780601f10610b7e57610100808354040283529160200191610ba9565b820191906000526020600020905b815481529060010190602001808311610b8c57829003601f168201915b50505050509050919050565b6000600480549050905090565b600481815481101515610bd157fe5b9060005260206000209060020201600091509050806000018054600181600116156101000203166002900480601f016020809104026020016040519081016040528092919081815260200182805460018160011615610100020316600290048015610c7d5780601f10610c5257610100808354040283529160200191610c7d565b820191906000526020600020905b815481529060010190602001808311610c6057829003601f168201915b5050505050908060010154905082565b828054600181600116156101000203166002900490600052602060002090601f016020900481019282601f10610cce57805160ff1916838001178555610cfc565b82800160010185558215610cfc579182015b82811115610cfb578251825591602001919060010190610ce0565b5b509050610d099190610d8d565b5090565b828054600181600116156101000203166002900490600052602060002090601f016020900481019282601f10610d4e57805160ff1916838001178555610d7c565b82800160010185558215610d7c579182015b82811115610d7b578251825591602001919060010190610d60565b5b509050610d899190610d8d565b5090565b610daf91905b80821115610dab576000816000905550600101610d93565b5090565b905600a165627a7a723058203ae0e4c0c003fd11889fe2d7ee7ae1d167b947af0a0d22e10ca7638ebdc181f70029",
  "source": "pragma solidity ^0.4.18;\r\n// We have to specify what version of compiler this code will compile with\r\n\r\ncontract Voting {\r\n    // ~~~~~~~~~~~~~~~~~~~~~~~~~~~~~~~~~~~~~~~~~~~~ Contract Constructor ~~~~~~~~~~~~~~~~~~~~~~~~~~~~~~~~~~~~~~~~~~~~~~ //\r\n\r\n    address owner;                  // The address of the owner. Set in 'Ballot()'\r\n    bool    optionsFinalized;       // Whether the owner can still add voting options.\r\n\r\n\r\n    /*\r\n    * Modifier to only allow the owner to call a function.\r\n    */\r\n    modifier onlyOwner\r\n    {\r\n        if( msg.sender != owner )\r\n            throw;\r\n        _;\r\n    }\r\n\r\n    /*\r\n    *  This function is called *once* at first initialization into the blockchain.\r\n    */\r\n    function ETHVoteBallot(string _ballotName, uint _ballotEndTime)\r\n    {\r\n        if( now > _ballotEndTime)\r\n            throw;\r\n\r\n        owner                   = msg.sender;       // Set the owner to the address creating the contract.\r\n        optionsFinalized        = false;            // Initially false as we need to add some choices.\r\n        ballotName              = _ballotName;      // Sets the ballot name.\r\n        registeredVoterCount    = 0;                // Initialize voter count\r\n        ballotEndTime           = _ballotEndTime;   // Set the end date of this ballot.\r\n    }\r\n\r\n    // ~~~~~~~~~~~~~~~~~~~~~~~~~~~~~~~~~~~~~~~~~~~~~~ Ballot Options ~~~~~~~~~~~~~~~~~~~~~~~~~~~~~~~~~~~~~~~~~~~~~~~~~~ //\r\n\r\n    string  ballotName;             // The ballot name.\r\n    uint    registeredVoterCount;   // Total number of voter addresses registered.\r\n    uint    ballotEndTime;          // End time for ballot after which no changes can be made. (seconds since 1970-01-01)\r\n\r\n    /*\r\n    *  Structure which represents a single voting option for this ballot.\r\n    */\r\n    struct VotingOption\r\n    {\r\n        string name;    // Name of this voting option\r\n        uint voteCount; // Number of accumulated votes.\r\n    }\r\n    VotingOption[] public votingOptions; // dynamically sized array of 'VotingOptions'\r\n\r\n    /*\r\n    *  Add a new voting option for this ballot.\r\n    *  NOTE: this can only be called by the ballot owner.\r\n    */\r\n    function addVotingOption(string _votingOptionName) onlyOwner\r\n    {\r\n        if( now > ballotEndTime) throw;\r\n\r\n        if(optionsFinalized == true)    // Check we are allowed to add options.\r\n            throw;\r\n\r\n        votingOptions.push(VotingOption({\r\n            name: _votingOptionName,\r\n            voteCount: 0\r\n            }));\r\n    }\r\n\r\n    /*\r\n    *  Call this once all options have been added, this will stop further changes\r\n    *  and allow votes to be cast.\r\n    *  NOTE: this can only be called by the ballot owner.\r\n    */\r\n    function finalizeVotingOptions() onlyOwner\r\n    {\r\n        if(now > ballotEndTime) throw;\r\n\r\n        if(votingOptions.length < 2) throw;\r\n\r\n        optionsFinalized = true;    // Stop the addition of any more options.\r\n    }\r\n\r\n    // ~~~~~~~~~~~~~~~~~~~~~~~~~~~~~~~~~~~~~~~~~~~~~~~~ Voting Options ~~~~~~~~~~~~~~~~~~~~~~~~~~~~~~~~~~~~~~~~~~~~~~~~ //\r\n\r\n    /*\r\n    *  Structure which represents a single voter.\r\n    */\r\n    struct Voter\r\n    {\r\n        bool eligableToVote;    // Is this voter allowed to vote?\r\n        bool voted;             // State of whether this voter has voted.\r\n        uint votedFor;          // Index of 'votingOptions' this voter voted for.\r\n    }\r\n    mapping(address => Voter) public voters; // State variable which maps any address to a 'Voter' struct.\r\n\r\n    /*\r\n    *  Allow an address (voter) to vote on this ballot.\r\n    *  NOTE: this can only be called by the ballot owner.\r\n    */\r\n    function giveRightToVote(address _voter) onlyOwner\r\n    {\r\n        if(now > ballotEndTime) throw;\r\n        voters[_voter].eligableToVote = true;\r\n\r\n        registeredVoterCount += 1;      // Increment registered voters.\r\n    }\r\n\r\n    /*\r\n    *  Allow an eligable voter to vote for their chosen votingOption.\r\n    *  If they have already voted, then remove their vote from the previous\r\n    *  'votingOption' and assign it to the new one.\r\n    *\r\n    *  NOTE: if anything fails during this call we will throw and automatically\r\n    *        revert all changes.\r\n    */\r\n    function vote(uint _votingOptionIndex)\r\n    {\r\n        if(now > ballotEndTime) throw;\r\n\r\n        if(optionsFinalized == false)       // If the options are not finalized, we cannto vote.\r\n            throw;\r\n\r\n        Voter voter = voters[msg.sender];   // Get the Voter struct for this sender.\r\n\r\n        if(voter.eligableToVote == false)\r\n            throw;\r\n\r\n        if(voter.voted == true) // If the voter has already voted then we need to remove their prev vote choice.\r\n            votingOptions[voter.votedFor].voteCount -= 1;\r\n\r\n        voter.voted = true;\r\n        voter.votedFor = _votingOptionIndex;\r\n\r\n        votingOptions[_votingOptionIndex].voteCount += 1;\r\n\r\n    }\r\n\r\n    // ~~~~~~~~~~~~~~~~~~~~~~~~~~~~~~~~~~~~~~~~~~~~~~ Getter Functions ~~~~~~~~~~~~~~~~~~~~~~~~~~~~~~~~~~~~~~~~~~~~~~~~ //\r\n\r\n    /*\r\n    * Returns the ballots name string.\r\n    */\r\n    function getBallotName() returns (string)\r\n    {\r\n        return ballotName;\r\n    }\r\n\r\n    /*\r\n    * Returns the number of voting options.\r\n    */\r\n    function getVotingOptionsLength() returns (uint)\r\n    {\r\n        return votingOptions.length;\r\n    }\r\n\r\n    /*\r\n    * Returns the count of registered voter addresses.\r\n    */\r\n    function getRegisteredVoterCount() returns (uint)\r\n    {\r\n        return registeredVoterCount;\r\n    }\r\n\r\n    /*\r\n    * Returns the name of a voting option at a specific index.\r\n    * Throws if index out of bounds.\r\n    */\r\n    function getVotingOptionsName(uint _index) returns (string)\r\n    {\r\n        return votingOptions[_index].name;\r\n    }\r\n\r\n    /*\r\n    * Returns the number of votes for a voting option at the specified index.\r\n    * Throws if index out of bounds.\r\n    */\r\n    function getVotingOptionsVoteCount(uint _index) returns (uint)\r\n    {\r\n        return votingOptions[_index].voteCount;\r\n    }\r\n\r\n    /*\r\n    * Returns if the voting options have been finalized.\r\n    */\r\n    function getOptionsFinalized() returns (bool)\r\n    {\r\n        return optionsFinalized;\r\n    }\r\n\r\n    /*\r\n    * Returns the end time of the ballot in seconds since epoch.\r\n    */\r\n    function getBallotEndTime() returns (uint)\r\n    {\r\n        return ballotEndTime;\r\n    }\r\n\r\n}",
  "sourcePath": "E:\\Work\\ETH\\EtherVote\\OnlineBallotRegulator\\truffle\\contracts\\Voting_V3.sol",
  "compiler": {
    "name": "solc",
    "version": "0.4.24+commit.e67f0147.Emscripten.clang"
  },
  "schemaVersion": "2.0.1",
  "updatedAt": "2018-07-20T04:55:38.140Z"
}